:020000040800F2
:10000000E89E002041030008B55600082348000878
:10001000B554000801280008E5660008000000004B
:100020000000000000000000000000008102000845
:100030004128000800000000DD020008D15F000830
:100040005B0300085B0300085B0300085B03000818
:100050005B0300085B0300085B0300085B03000808
:100060005B0300085B0300085B0300085B030008F8
:100070005B0300085B0300085B0300085B030008E8
:100080005B0300085B0300085B0300085B030008D8
:100090005B0300085B0300085B0300085B030008C8
:1000A0005B0300085B0300085B0300085B030008B8
:1000B0005B0300085B0300088D6000085B03000819
:1000C0005B0300085B0300085B0300085B03000898
:1000D0005B0300085B0300085B0300085B03000888
:1000E0005B0300085B0300085B0300085B03000878
:1000F0005B0300085B0300085B0300085B03000868
:100100005B0300085B0300085B0300085B03000857
:100110005B030008096300085B0300085B03000839
:100120005B0300085B0300085B0300085B03000837
:100130005B0300085B0300085B0300085B03000827
:100140005B0300085B0300085B0300085B03000817
:100150005B0300085B0300085B0300085B03000807
:100160005B0300085B0300085B0300085B030008F7
:100170005B0300085B0300085B030008000000004D
:100180005B0300085B03000800F002F800F068F869
:100190000AA090E8000C82448344AAF10107DA45E2
:1001A00001D100F05DF8AFF2090EBAE80F0013F0CC
:1001B000010F18BFFB1A43F0010318473C9A0000D7
:1001C0005C9A00000A4410F8014B14F00F0508BFB8
:1001D00010F8015B240908BF10F8014B6D1E05D013
:1001E00010F8013B6D1E01F8013BF9D1641E03D0EC
:1001F000641E01F8015BFBD19142E4D3704700001B
:100200000023002400250026103A28BF78C1FBD81F
:10021000520728BF30C148BF0B607047662909F0FC
:100220001D82642900F06481752900F061817329C1
:1002300000F08586002070471FB509F002FA00F033
:100240005DFF04000020002108F06AFC401C606093
:100250000020002108F04EFCE0601FBD10B510BD6D
:1002600001F0DEF81146FFF7E7FF06F0E7FB01F0CB
:1002700087FB03B4FFF7F2FF03BC01F08BFB000028
:100280002C4B19680868B0E8F04F80F30988BFF379
:100290006F8F4FF0000080F311887047000000005E
:1002A00008480068006880F308884FF0000080F379
:1002B000148862B661B6BFF34F8FBFF36F8F00DF54
:1002C00000BF00BF08ED00E0DFF80C00016841F45A
:1002D00070010160704700BF88ED00E0EFF3098016
:1002E000BFF36F8F134B1A681EF0100F08BF20ED7D
:1002F000108A20E9F04F106009B44FF0500080F3ED
:100300001188BFF34F8FBFF36F8F07F003FD4FF0DE
:10031000000080F3118809BC19680868B0E8F04F44
:100320001EF0100F08BFB0EC108A80F30988BFF3ED
:100330006F8F7047C4000020EFF305807047000006
:100340000948804709480047FEE7FEE7FEE7FEE769
:10035000FEE7FEE7FEE7FEE7FEE7FEE704480549A5
:10036000054A064B704700007D60000889010008BF
:10037000E8980020E89E0020E89A0020E89A0020F3
:1003800053EA020C00F069802DE9F04B4FF00006B3
:10039000002B1FBFB3FA83F503FA05F424FA05F620
:1003A0005E4012BF1643B2FA82F502FA05F4C5F1B7
:1003B00020051EBF22FA05FC44EA0C04203556EA4B
:1003C000044C4FEA144418BF641C4FF000084FF06F
:1003D0000009904271EB030C39D3002919BFB1FA1F
:1003E00081F701FA07F6B0FA80F700FA07F6C7F1CD
:1003F00020071EBF20FA07FC46EA0C062037B6FB92
:10040000F4FCA7EB0507103F07F01F0BCBF120060C
:100410000CFA0BFB2CFA06F644BFB3460026202F3D
:10042000A4BF5E464FF0000B5BEA060C08BF4FF01E
:10043000010B19EB0B09ABFB027C48EB0608C01B58
:1004400006FB02CC0BFB03CC71EB0C01C1E70B46A6
:10045000024641464846BDE8F08B13B54FF0000018
:100460004FF00001AFF30080BDE81C407047000072
:100470000FB41CB5084B06AA7B446946009005984A
:1004800000F033FD04460020694600F041FD20469F
:100490001CBC5DF814FB0000950A000070B50C460A
:1004A0000546012A05D02878800600D5EA69002390
:1004B00002E0012305E05B1C934202D2E05C0028CD
:1004C000F9D1A869E618C01AA861286A18442862F8
:1004D0002846AFF3008004E0D5E9012114F8010BB0
:1004E0009047B442F8D32846AFF3008070BD0000B7
:1004F0002DE9F0410646002410687529314616A5FD
:1005000010D0AFF30080002802DA404213A507E0C4
:1005100031688A0701D512A502E0490704D511A563
:10052000012401E0AFF3008000210A2206F1240734
:1005300009E0B0FBF2FCB0FBF2F302FB1C00303030
:1005400078541846491C0028F3D123462A463046E1
:10055000BDE8F04100F05BBA000000002D00000093
:100560002B000000200000002DE9F0474FF0000AAA
:1005700089460446C0F820A02046E1688847002844
:1005800076D0252806D0D4E901219047206A401C66
:100590002062F1E7E168204600268847C4F81CA0E5
:1005A00005460027C4F818A02A2D09D0284606F0D1
:1005B000F6F938B304EB8708303DC8F8185019E055
:1005C00059F8041B204604EB87029161E1688847D3
:1005D000012F054618D1E069002820DA26F0200610
:1005E0001DE0D8F8180000EB800005EB4000303823
:1005F000C8F818002046E1688847054606F0CFF99C
:100600000028EED1012F0AD02E2D08D12046E16816
:1006100088477F1C0546022F46F02006C4DBA069F0
:10062000002803DA404246F00106A061F00701D03D
:1006300026F010066C2D0AD0682D08D04C2D39D02C
:100640006A2D35D0742D35D07A2D33D016E0E1687F
:100650002F4620468847B84205460AD16C2F27D03E
:100660004FF48060E168064320468847054605E070
:1006700027E06C2F1AD04FF4807006430DB3A5F11C
:100680004100192802D8203546F400664A4629461A
:10069000204626604E46FFF7C1FD80B101280BD0F1
:1006A000F61D26F0070000F1080965E74020E4E7A1
:1006B0008020D7E70020D5E706F104095CE728464B
:1006C00061E7206ABDE8F08770B5064600F090F952
:1006D0000468054630460A22002100F087FC2C60A1
:1006E00070BD0000014A00F0B9BC000044010020C8
:1006F00040EA010310B59B070FD1042A0DD310C89F
:1007000008C9121F9C42F8D020BA19BA884201D9F0
:10071000012010BD4FF0FF3010BD1AB1D30703D038
:10072000521C07E0002010BD10F8013B11F8014BEE
:100730001B1B07D110F8013B11F8014B1B1B01D10A
:10074000921EF1D1184610BD10B5431C02E010F8FE
:10075000011B71B18107FAD14FF0013202C88C1A26
:100760008C4314EAC211F9D0C01A0A0603D0C01E85
:1007700010BDC01A10BD0A0401D0801E10BD0902B0
:10078000FCD0401E10BD40EA010370B59B072ED17E
:100790004FF00136042A2AD308C810C99D1B9D4377
:1007A000121F15EAC61517D0D8B2E1B2401A50EAA6
:1007B000056110D198B2A1B2401A50EA05410AD1A0
:1007C00023F07F4024F07F41401A50EA052102D1F6
:1007D000180EA0EB146070BDA342DBD018BA21BA8A
:1007E000884201D9012070BD4FF0FF3070BD0AB9B9
:1007F000002070BD10F8013B11F8014B63B1A3421A
:100800000AD1521E08D010F8013B11F8014B1BB160
:10081000A34201D1521EEDD1181B70BD032A40F234
:10082000308010F0030C00F0158011F8013BBCF192
:10083000020F624498BF11F801CB00F8013B38BFAA
:1008400011F8013BA2F1040298BF00F801CB38BFB8
:1008500000F8013B11F0030300F02580083AC0F0D6
:10086000088051F8043B083A51F804CBA0E808107E
:10087000F5E7121D5CBF51F8043B40F8043BAFF3B1
:100880000080D20724BF11F8013B11F801CB48BF0B
:1008900011F8012B24BF00F8013B00F801CB48BF41
:1008A00000F8012B704710B5203AC0F00B80B1E87A
:1008B0001850203AA0E81850B1E81850A0E8185095
:1008C000BFF4F5AF5FEA027C24BFB1E81850A0E89E
:1008D000185044BF18C918C0BDE810405FEA827CB8
:1008E00024BF51F8043B40F8043B08BF7047D207CF
:1008F00028BF31F8023B48BF11F8012B28BF20F870
:10090000023B48BF00F8012B704702F0FF0343EAA7
:10091000032242EA024200F0C5BB4FF0000200B5DC
:10092000134694469646203922BFA0E80C50A0E812
:100930000C50B1F12001BFF4F7AF090728BFA0E8C0
:100940000C5048BF0CC05DF804EB890028BF40F88C
:10095000042B08BF704748BF20F8022B11F0804FCE
:1009600018BF00F8012B70474FF0013C50F8042BE2
:1009700051F8043B9A4221D1A2EB0C03934313EAB2
:10098000CC1317D150F8042B51F8043B9A4215D1DF
:10099000A2EB0C03934313EACC130BD150F8042BB6
:1009A00051F8043B9A4209D1A2EB0C03934313EA9A
:1009B000CC13DBD04FF00000704700BFD01A01BA53
:1009C000B1FA81F101F0180122FA01F0CB40C1F136
:1009D0002001DBB2C0B2C01A2CFA01F3D11A914344
:1009E00011EAC311E6D170477047704770470000A5
:1009F000004870478498002010B5FFF7F9FF0068A1
:100A000010BD10B50446FFF7F3FF046010BD2DE9DB
:100A1000F0470D4699469246044600F124080168C5
:100A2000880604D5E06921F01001216000E0012072
:100A3000A84201DD471B00E00027A1697A1902EBFB
:100A40000900081AA0612078C00602D42046AFF33E
:100A50000080002608E0D4E901211AF8060090473A
:100A6000206A401C761C20624E45F4DB2078C006CC
:100A70000AD52046AFF3008006E0D4E901213020FA
:100A80009047206A401C2062381EA7F10107F4DC61
:100A900007E0D4E9012118F805009047206A401CBE
:100AA0002062281EA5F10105F3DC2046AFF300808B
:100AB0002078000602D50220BDE8F0870120FBE780
:100AC00070472DE9FF4F0C461E464FF0FF378BB0A5
:100AD000D2E90001DDF860800A908A46C1F30A5528
:100AE00005B93D46002108464FF00000BAF1000F5D
:100AF00000F4400005DA00EB80004FF4400101EA09
:100B000050004FEA9059B9F1010F00DDB9460A983B
:100B100050EA4A000ED044F61050A5F2FF35454386
:100B20002F14B8F1000F1ED07542291E1EDDC9F129
:100B300000021CE0B8F1010F4FF0000001D030219D
:100B400003E0F24305E02154401CB042FBDB304699
:100B50000022002121540B99C1F80880C1E900202E
:100B60000FB0BDE8F08FBD1B6D1CDEE74A4600DA12
:100B7000694206A800F0C4FB06AB93E8070003AB8C
:100B800083E8070050460A9901F048F98DE807000C
:100B9000A0F500501F3800900398002D0ADD42F2A6
:100BA0001F014A460844002303A90390684601F048
:100BB000F3FB09E0A0F500504A461F38002303A9C3
:100BC0000390684601F012FC8DE807000004000C59
:100BD00003D04FF0FF30410800E01046B8F1000F9D
:100BE00003D00022009215461EE0751E05D400F0C9
:100BF00089FA303262556D1EF9D5B3460122084399
:100C000002D000227F1C04E02078302801D100228D
:100C10007F1E002A099784D01DE0112D07DA00F00D
:100C200071FA303262556D1C50EA0102F5D1084369
:100C300002D00098C8B10EE00021681E05E0235CD8
:100C4000625C63542254401E491C8142F7DBAB4670
:100C5000A81B401E0990002004F80B000B98099A6D
:100C6000C0F80880C0E9002B7AE711264FF0000891
:100C700057E72DE9F04F88460446D21D22F00701C0
:100C800091B0D1E90001CDE90A0105F02CFD024641
:100C90000B98C00F01D02D2007E02068810701D5F7
:100CA0002B2002E0202101EAC000032A099001D094
:100CB000072A05DB03464146204600F071FA0BE1A6
:100CC0002078800601D5E06900E00620B8F1650FC4
:100CD000814606D0B8F1660F18D0B8F1670F70D111
:100CE00031E00020B9F1110F009001DB112301E088
:100CF00009F101030AAA01A90CA8FFF7E2FEDDE948
:100D00000C70002609F10105834647E001204B469F
:100D100000904FF000470AAA01A90CA8FFF7D1FEE6
:100D2000DDE90DB00C995D46002610B909F101000E
:100D30000D18B9EB050003D4C0F1FF3609F1010528
:100D4000A5EB09002BE0B9F1010F01DA4FF0010921
:100D50000020B9F1110F0090484601DD112300E099
:100D600003460AAA01A90CA8FFF7ABFEDDE90C7047
:100D70004D4600268346207800070AD4AB4500DAAA
:100D80005D4601A8012D04DD411911F8011C30292F
:100D900007D04F4502DA17F1040F04DA012082462A
:100DA0000FE06D1EEEE7002F02DCED1B3E4403E07A
:100DB000781CA84200DD7D1CB81B00F1010A4FF031
:100DC00000472078000703D4AA4501DB4FF0FF3A23
:100DD0000021B7F1004F0DF143088DF8431024D0E6
:100DE00002202B23002F01DA7F422D230A21021E2D
:100DF000A0F1010000DC5FB197FBF1FC97FBF1F281
:100E000001FB1C7C17460CF1300C08F801CDEEE715
:100E1000A8F1010003702188090501D5452100E0F2
:100E20006521A0F1010800F8011C09980FA9A1EBA8
:100E30000807FF1D00B10120411901EBEA70A1690B
:100E40003844081A401EA0612078C00602D420460B
:100E5000AFF30080099828B1D4E901219047206AB6
:100E6000401C20622078C00622D52046AFF30080C7
:100E70001EE0002E04DBB34502DD01A8805D00E02A
:100E80003020D4E901219047206A401C2062761C62
:100E9000AAF101005FEA000A0AD100F02FF9C06848
:100EA0000168405CD4E901219047206A401C20621F
:100EB000281EA5F10105DCDC07E0D4E9012118F8C2
:100EC000010B9047206A401C2062381EA7F10107E1
:100ED000F3DC2046AFF30080032011B041E60000B0
:100EE00001694A1C02610878704700B58FB0CDE9EE
:100EF00001310021059105497944CDE903101146DE
:100F00006846FFF731FB0FB000BD0000E5FFFFFFB3
:100F10000A6802F8010B0A60704710B5436913B103
:100F2000AFF3008001E0FFF7B9FA012010BD12789D
:100F300000F124010A7000224A700122EDE71168D5
:100F40004FF0FF32E9E700000FB4002300B589B08D
:100F50000CA900910B99CB60214B7B440693214B4C
:100F60007B44079304236FF00042CDE901321E4A0F
:100F70007A446B4608920246002008F0D1FB09B083
:100F80005DF814FB70B506464FF0FF3015460C4671
:100F9000324686B00091CDE90101694600200490F7
:100FA00004A8FFF7D1FF02460498211825B108B123
:100FB000084600E020462860049800280DD0002A4A
:100FC00002DD0098884208D03246081B694600942A
:100FD000CDE9010404A8FFF7B7FF06B070BD00001B
:100FE000C3020000DB0200001B0200002DE9F047F5
:100FF00091460F4680460446002614F8015B2DB149
:1010000000F074F80068405DC007F6D12B2D02D0C7
:101010002D2D18D0641E4A463946204600F020F98E
:1010200027B13968A14201D1C7F800804FF002040E
:1010300071050BD54042002803DDFFF7D9FC0460A1
:10104000A007BDE8F08746F48066E4E70028F8DAF8
:10105000FFF7CEFC04606FF00040F2E72DE9F041AD
:1010600015460E46040002D12C6804B90BA4204694
:1010700000F0C8F90444207870B12746314638465C
:1010800000F0B0F90444207810B1002004F8010BFE
:1010900038462C60BDE8F0810027F9E70000000029
:1010A0004FF000020429C0F0128010F0030C3FF44E
:1010B00036ACCCF1040CBCF1020F18BF00F8012BC8
:1010C000A8BF20F8022BA1EB0C01FFF728BC5FEAB8
:1010D000C17C24BF00F8012B00F8012B48BF00F8A9
:1010E000012B7047004870478498002010B500F02D
:1010F00005F8001D10BD00BF297A000000487047A8
:10110000A498002030B5B0F10A024FEA900E71F1B8
:1011100000034EEA817EB0EB0E0061EB91014FEAD5
:10112000101E4EEA017E10EB0E0041EB11114FEA4A
:10113000102E4EEA016E10EB0E0041EB11214FEA2A
:10114000104E4EEA014E10EB0E0041EB11414018DB
:1011500041F100014FEAD00040EA41704FEAD1016D
:1011600010EB80054FEA810444EA907444EB0104DB
:101170006D1944EB0404521BA3414FF0000348BF18
:101180000A3200D530BD401C41F1000130BD10B520
:101190000446FFF7ABFF0068005D00F0010010BDE2
:1011A0002DE9F0411F46044603260168072A01F491
:1011B000006004DB08B116A505E016A503E008B140
:1011C00015A500E015A521F010002060A069C01E43
:1011D000A0610FB1401EA0612046AFF300804FB167
:1011E000D4E9012138469047206A401C2062C01C87
:1011F000206206E0206AFAE7D4E9012115F8010B24
:101200009047761EF8D22046AFF30080BDE8F0810B
:101210004E414E006E616E00494E4600696E66009A
:10122000426842B1016811F8013B23B1521EC0E986
:101230000012184670470121C160881E704742683D
:101240005AB1C368016843B983688B4205D0491E0F
:10125000521CC0E90012002070474FF0FF30704769
:101260002DE9F05F824615468B4600270AF10104FE
:10127000B9460078302801D09DB113E014F8010B75
:101280000127782803D0582801D045B10AE00DB1D4
:10129000102D07D1002714F8010B102502E00825B6
:1012A00000E00A250026B0460EE005FB080005FB1D
:1012B00006F101271FFA80F801EB1046B6F5803FD2
:1012C00000D3B94614F8010B294600F0CEF80028E7
:1012D000EBDABBF1000F05D00FB1641E00E05446FD
:1012E000CBF80040B9F1000F06D0FFF781FB0221D7
:1012F0000160C81EBDE8F09F48EA0640FAE700001A
:101300002DE9F047814616468AB0354878440DC825
:101310008DE80D0032487844801C03AC0DC884E889
:101320000D0041F69B300844372190FBF1F290FB11
:10133000F1F5A5F1800501FB12041B3C02D56442C6
:10134000012000E00020DFF898A080460027FA4442
:10135000AAF1BE0A0EE0E0070AD03246684607EB63
:10136000470101230AEB810101F040F88DE80700F5
:1013700064107F1C002CEED1194F7F44AE3F19E062
:10138000E80715D007EB04100DF1180A90E80E00DD
:101390008AE80E00C068F04201D1981908903246E0
:1013A000012306A903A801F021F803AB83E8070095
:1013B0006D10641C002DE3D14FF0010332466946E5
:1013C000B8F1000F03A802D000F0E6FF01E001F041
:1013D0000DF8C9E90001C9F808200AB0BDE8F08796
:1013E0002487000030B503461D781DB10A4603E08E
:1013F000AC4201D1181A30BD12F8014B002CF7D1C4
:101400005B1CF1E730B503461D783DB10A4612F882
:10141000014B1CB1AC42FAD15B1CF5E7181A30BD88
:101420007546FFF75FFEAE4605006946534620F05D
:101430000700854618B020B5FEF790FFBDE82040B4
:101440004FF000064FF000074FF000084FF0000B80
:1014500021F00701AC46ACE8C009ACE8C009ACE833
:10146000C009ACE8C0098D4670473A2800D2303830
:1014700020F02002412A01D3A2F13700884201D393
:101480004FF0FF30704700002DE9FF4F06468BB04C
:101490000878FF2806D0491C2D2805D000244FF0DD
:1014A000000908E000200CE00124F8E709EB8903BB
:1014B000491C00EB43090878FF28F7D114B1C9F1A2
:1014C00000008146107800252C46AA4629462D2882
:1014D00001D02B2804D1521C2D2813D00020824685
:1014E0008B461078FF280FD04FF0000C0A21521CB9
:1014F000A5FB017804FB018105FB0C11C5194BEB21
:101500000104EEE70120EAE7002108464FF0000061
:10151000BAF1000F02D000EB80004008C0F3815701
:10152000012F01DD4FF0FF370E9955EA040009EB5A
:1015300001080BD04FF0020918F5FA7F16DA4FEACE
:10154000CA70002F706008DD012007E04FEACA7002
:10155000C6E900B00FB0BDE8F08F00203060FFF7A3
:1015600047FAC0F800901821084616E0B8F5FA7F4F
:1015700018DD002F02DAF748784401E0F648784495
:10158000D0E90010C6E9001040EACA707060FFF7A9
:101590002FFAC0F80090142108460FB0BDE8F04FB4
:1015A00008F059B8002108464FF00000B8F10001DA
:1015B000099002DAC7F1000200E03A4601DAC8F108
:1015C000000106A8FFF79CFE06AB93E8070003ABFB
:1015D00083E8070044F23E005BEA040100905846AD
:1015E00004D144F21E012C465D460091210C0904F1
:1015F000014306D10099240444EA15442D0410390E
:10160000009104F07F41014306D10099240244EA8D
:1016100015642D020839009104F07041014306D190
:101620000099240144EA15742D01091F009104F06A
:101630004041014306D10099A40044EA9574AD00ED
:10164000891E009104F00041084304D100986D19EF
:101650006441401E00904FF001033A466846B8F1DD
:10166000000FCDE9014503A902DD00F0D4FE01E041
:1016700000F0A7FEBAF1000F04460D4601D084F039
:101680000044002108464FF00000099940F2FF771E
:10169000484010F00C0F07D124F00040284303D03D
:1016A000C4F30A50B84212D1FFF7A2F9C0F8009073
:1016B000C4F30A50B8420AD1A8487844D0E90010CF
:1016C000C6E9001004F000410843706042E7C6E933
:1016D00000543FE72DE9FF4F1F464FF0000A4FF03F
:1016E000FF38454691B0D7E90146CDF83CA0FFF759
:1016F00005FDC0680168405C1090B96912986D1CC6
:101700008847396A814688470028F6D1B9F1FF3FFA
:101710000AD0002E24F4D06411DDB9F12B0F08D0CB
:10172000B9F12D0F0BD102E0404615B013E744F498
:101730008064B96912986D1C8847761E81466005E1
:1017400004A901D52D2000E02B20002E01F1010B72
:101750000DF130088DF810003FDDB9F1690F08D0A8
:10176000B9F1490F05D0B9F16E0F02D0B9F14E0FA2
:101770001CD13B4601A8009580E85002DDE9121219
:101780006FF0020007F0D0FFC11CCED10EE0B969A6
:1017900012986D1C884781461398761E44F4007495
:1017A00005600F98401C002E0F9016DDB9F1300F28
:1017B000EDD0B9F1780F02D0B9F1580F0DD10F98D3
:1017C00001280AD13B46CDE90054DDE91212001F81
:1017D000029607F0A7FFC11CA7D1109989453ED1F9
:1017E00044F0800406E01399681CAAF1010A44F44D
:1017F00000740860B9696D1C1298761E88473028FD
:101800008146F0D02BE01099894505D1200603D4FC
:10181000761E44F0800418E0484605F0C0F808B38E
:10182000761E0DF123018B4544F4007408D2A9F112
:1018300030000BF8010B200607D5AAF1010003E0E8
:10184000200602D40AF101008246A00502D51399B0
:10185000681C0860B96912986D1C88478146002E83
:10186000D1DC53E0002E51DDB9F1650F02D0B9F1A2
:10187000450F4BD1A00549D5B9696D1C1298761E4C
:1018800024F440748847002E81460CDD2B2804D0B8
:10189000B9F12D0F07D144F48074B96912986D1C09
:1018A0008847761E8146E00501D52D2100E02B21D9
:1018B00008F8011BCDF8008021E0761E0DF13901FA
:1018C000884544F400740CD2A9F1300010F0FF00F8
:1018D00088F8000002D10099884509D908F101086B
:1018E00006E0E00501D51E4801E042F20F70824695
:1018F000B96912986D1C8847814613980560002EBF
:1019000004DD484605F04BF80028D6D1F969129855
:101910008847FF2053468BF8000088F8000000201D
:101920000A900B9004AA0CA90AA8FFF7ADFDA00528
:1019300002D46FF00100F8E614F0240F12D0E00793
:101940001CD13868DDE90A12031D3B600068C0E95C
:10195000001213E0A4860000968600005A8500005D
:10196000F1D8FFFF0AA9684605F006F8E00705D19F
:101970003868009A011D3960006802602846D4E684
:1019800010B50446AFF300802046BDE81040FEF7D6
:1019900070BC000001491820ABBEFEE72600020023
:1019A0002DE9FF4F1F464FF03C0987B04FF0004232
:1019B000DDE9141001F10108DDF858A002EA4050F9
:1019C0000390002005908346054604460490B969BB
:1019D000461E08988847AAF1010A0290BAF1000F42
:1019E0003BDD02982E2815D01021FFF73EFD002880
:1019F0002EDB4FF0010B0599014317D0B9F1000F11
:101A00000BDB4A46C11700F0F6F905430C43A9F178
:101A1000040905E0012004900BE008B145F0010540
:101A200001200590049820B9361D02E0049800B109
:101A3000361FB969089808F101088847BBF1000F03
:101A4000AAF1010A0290C9D00999C1F80080C5E73E
:101A50000298702808D0502806D0F969089888475D
:101A6000BBF1000F14D04FE0002002900120BBF129
:101A7000000F049009D0B969089808F10108884757
:101A8000AAF10109B9F1000F07DCF9690898884744
:101A90006FF001000BB0BDE8F08F2B2804D02D288B
:101AA0000CD14FF0FF300490B969089808F1010893
:101AB0008847A9F10109B9F1000FE6DD411CE4D026
:101AC0000A21FFF7D2FC0028DFDB029908F10108A8
:101AD00001EB810100EB41000290B9690898884749
:101AE0000A21FFF7C2FC099AA9F10109B9F1000F17
:101AF000C2F8008001DD0028E7DAF9690898884714
:101B00000499029800FB016655EA040004D004F031
:101B10004041090002D006E0039898E0A40044EA9E
:101B20009574AD00B61E04F00041080002D16D1995
:101B30006441761E159810F0240F03D04FF00B0966
:101B40005C4803E04FF028096FF07D00824656455F
:101B500007DAAAEB06018944B9F1410F01DD4FF024
:101B6000410901200021A9F1010200F044F90246D7
:101B700028400B462140084301D0012100E000210C
:101B8000501E029143F1FF3128402140084301D00B
:101B9000012000E000200299834651EA0B014FD05A
:101BA000002108464FF00000039900F4400039B1CD
:101BB00000EB80004FF4400100EBD07001EA6000C0
:101BC0008015012802DD4FF0FF3000E013D0401CEB
:101BD00036D0029860B3BBF1000F0CD14A46012009
:101BE000002100F008F928402140084301D00120DD
:101BF00000E00020E0B101204A46002100F0FBF89F
:101C0000034640190A4661412D1A8C4111D3B9F19E
:101C1000400F09DD159810F0240F02D0AAF1340608
:101C200003E0AAF1170600E0761C00254FF00044FF
:101C300006E05B1E42F1FF3220EA030521EA0204BE
:101C4000CAF10100B04206DA1B490398084301902B
:101C5000002000900EE0039AC4F3D321E80A0A435F
:101C6000164940EA44500A433146CDE9000268462D
:101C700004F08BFE159810F0240F0BD01598C007B8
:101C800015D13868DDE90012031D3B600068C0E92A
:101C900000120CE002A8694604F06EFE1598C00719
:101CA00005D13868029A011D39600068026040461B
:101CB000F0E6000002FCFFFF0000F07F0000F03FB4
:101CC0002DE9FF4F92461D4685B04FF00041DDE9FA
:101CD000124BDDE914727F1E01EA4B50414940F07E
:101CE000FF4940EA0108002122F020004928049120
:101CF00002D04E2828D04CE03BA0012607C88DE832
:101D00000700A9690698641C88477F1E014606D40F
:101D10001DF8060018B121F0200181420BD0E969BD
:101D200006988847032E34D0082E32D06FF0010079
:101D300009B0BDE8F08F761C032E01D0082EE0D14B
:101D4000601CCAF80000DCE7A9690698641C884793
:101D50007F1E2AD420F02000412826D1A9690698A8
:101D6000641C88477F1E20D420F020004E281CD100
:101D7000A9690698641C88477F1E48F4002849F426
:101D80008009CAF8004001D4282806D0E9690698DD
:101D900088475FEACB7012D022E0A9690698641CDC
:101DA00088477F1E01D4002803DAE969069888472E
:101DB000BCE72928F1D1641CCAF80040E9E71BF010
:101DC000240F07D028680499031D2B600068C0E920
:101DD000001805E02868021D2A600068C0F800901D
:101DE0002046A5E70000F07F494E46494E49545928
:101DF000000000007047B2F120030AD5C2F12003B1
:101E000001FA02F120FA03F300FA02F041EA0301B9
:101E1000704700FA03F14FF0000070475FEA400C92
:101E200008BF91F0000F4FEA8C234FEAC12243EA2A
:101E300051514FEA1C5018BF00F5F0404FEA3000F6
:101E400018BF41F000415FEA6C5C00F02980BCF1F2
:101E5000FF3F08BF40F080407047130C06BF1204DC
:101E60004FF0100C4FF0000C130E04BF12020CF1D7
:101E7000080C130F04BF12010CF1040C930F04BFE4
:101E800092000CF1020CD30F04BF52000CF1010CB4
:101E900011464FF00002A0F11F00A0EB0C007047AC
:101EA00011F0004F08BF704731F000413FF4D5AF4B
:101EB0000B0C06BF09044FF0100C4FF0000C0B0E7A
:101EC00004BF09020CF1080C0B0F04BF09010CF14F
:101ED000040C8B0F04BF89000CF1020CCB0F04BF64
:101EE00049000CF1010CCCF12003A0EB0C0022FA0C
:101EF00003F302FA0CF241EA030100F1010070471A
:101F000020F07F4C80EA030023F07F47ACEB07030F
:101F100003F57C5300F0004003F1FF032DE98049F5
:101F20004FEA154B09B44FEA144325EA0B4E24EA55
:101F300003480FF2042606EB132749083E785FEAB0
:101F4000320203FB0667C7F5000707FB06F64FEAF8
:101F500054374FEAD64606F1020607FB066CCCF171
:101F6000005C4FEA1C472CEA074C07FB06F40CFB0D
:101F700006F504EB15464FEA961634BF00204FF0E5
:101F800000404FEAD13706FB07FC4FEA1C4C0CFB24
:101F90000BF7D21B03FB0CF761EB07010CFB0EF7F1
:101FA000B0EB074072EB17420CFB08F734BFA2EB13
:101FB0000742B2EB074261EB17414FEA0C444FEA8C
:101FC000910706FB07FC4FEA1C4C0CFB0BF7B0EB30
:101FD000C74072EB573203FB0CF734BFA2EBC7428A
:101FE000B2EBC74261EB57310CFB0EF7B0EBC70009
:101FF00072EB57720CFB08F734BFA2EBC702B2EBCF
:10200000C70261EB5771039F4FEA816141EA921168
:1020100004EBCC044FEAD1374FEA826206FB07FC9F
:1020200042EA90124FEA80604FEA1C4C0CFB0BF71F
:10203000D21B03FB0CF761EB07010CFB0EF7B0EBB7
:10204000074072EB17420CFB08F734BFA2EB0742C4
:10205000B2EB074261EB17414FEA8C554FEA91070B
:1020600004EB9C2406FB07FC4FEA1C4C0CFB0BF713
:10207000B0EBC74072EB573203FB0CF734BFA2EB57
:10208000C742B2EBC74261EB57310CFB0EF7B0EB26
:10209000C70072EB57720CFB08F734BFA2EBC70204
:1020A000B2EBC70261EB577115EB4C254FEA81612A
:1020B00041EA92114FEA82624FEAD13742EA901226
:1020C00006FB07FC44F100044FEA80604FEA1C4C19
:1020D0000CFB0BF7D21B03FB0CF761EB07010CFBAE
:1020E0000EF7B0EB074072EB17420CFB08F734BF5A
:1020F000A2EB0742B2EB074261EB174115EB1C154F
:102100004FEA813141EA92414FEA823242EA9042FB
:102110004FEA80304FEA0C7644F1000448EA03436A
:102120004EEA0B484FF0000EB2EB080C71EB0307C0
:1021300024BF624639464EEB0E0E4FF0000B0018DE
:10214000524149414BEB0B0BB2EB080C71EB03070F
:102150007BF1000B24BF624639464EEB0E0E4FF06A
:10216000000B0018524149414BEB0B0BB2EB080C32
:1021700071EB03077BF1000B24BF624639464EEB3F
:102180000E0E51EA020718BF46F0010616EB0E7656
:1021900055F1000254F1000103D5BDE88901BDE805
:1021A0000088BDE88901BDE80048B619524141EBFD
:1021B0000101A3F10103704780807F7E7D7C7B7AE3
:1021C0007978777676757473727171706F6E6E6DE3
:1021D0006C6C6B6A6A696868676666656464636389
:1021E00062616160605F5F5E5E5D5D5C5C5B5B5A0F
:1021F0005A5959585857575656555555545453537C
:1022000052525251515050504F4F4F4E4E4D4D4DD6
:102210004C4C4C4B4B4B4A4A4A4949494848484721
:10222000474747464646454545444444444343435F
:10223000434242424241414146EA0646A3F57053B9
:102240004FEA164646EA42564FEAD22242EA415245
:1022500010B54FEAD121A3F1010300F02FF820F0CF
:10226000004000F1020C00F0004701EB0050114665
:10227000BCF5006F40EA070000D210BDBAF1000FB4
:102280000AD01CB503B44FF004004FF004014FF026
:1022900000000FBCBDE810404FF00001BBF1010F82
:1022A000B9BF04484FF0FF310348002140EA07005E
:1022B00010BD00BFFFFFEF7F0000F07F002B9C46AA
:1022C00030D477002BD01CB54FEA370703B44FF05A
:1022D00010004FF01001BAF1000F06D0BCF1000F52
:1022E000DCBF40F0080040F008014FF000000FBCD8
:1022F000BDE810400BF1010BBBF1010F08BF5FEA15
:10230000170722BF12F1010211F101014FF0004144
:1023100043F1000300F0004043EA00007047F9D3A6
:102320005708D0E746EA064613F1400F4FEA164633
:102330001FDD13F1200FDFBF16430A4600212033B3
:102340005B42BED0C3F1200746EA064602FA07F711
:102350004FEA164646EA0706C3F1200722FA03F2BF
:1023600001FA07F721FA03F14FF0000342EA0702EE
:10237000A7E746EA020646EA06464FEA164646EA56
:102380000106BCBF46EA0646360C4FF000034FF08C
:1023900000024FF0000194E72DE9804C9A469346E5
:1023A00070B491E8380007C831EA400C48BF34EAFD
:1023B000430C03D5FFF7A4FDFFF780FFF0BCBDE899
:1023C000008C2DE9804C9A46934670B491E8380011
:1023D00007C831EA400C48BF34EA430C03D5FFF785
:1023E0008FFDFFF729FFF0BCBDE8008C2DE9804C84
:1023F0009A46934670B491E8380007C810F0804FB1
:1024000008BF13F0804F03D100F01AF8FFF756FF12
:10241000F0BCBDE8008C2DE9804C9A46934670B420
:1024200091E8380007C810F0804F08BF13F0804FC4
:1024300003D100F005F8FFF7FFFEF0BCBDE8008C0B
:1024400020F07F4780EA030023F07F4C07EB0C036A
:10245000A3F57C5300F00040A3F1FE0392F0000FBF
:1024600000F0B38095F0000F00F077802DE901496E
:102470004FEA11404FEA144621EA004800FB06FCEF
:1024800024EA064708FB06F607FB08F800FB07F7F7
:1024900018EB06484CEB164C4FEA124B18EB07486A
:1024A0004FEA15464CEB174022EA0B4E0BFB06FC9D
:1024B00025EA06470EFB06F607FB0EFE0BFB07F7A9
:1024C0001EEB064E4CEB164C4FF000061EEB074E73
:1024D0004CEB174B18EB0B0840F1000018EB0E0B00
:1024E00058EB000840F100008F1A4FF000013CBF8C
:1024F000C943661B14BFB5EB040C00213CBFC943A4
:10250000F61B4FEA17444EEA8E0E27EA04454FEABF
:102510001C4704FB07622CEA074C05FB07F70CFB82
:1025200005F604FB0CFC16EB074642EB174216EBD4
:102530000C4642EB1C421BEB060658EB02024141E3
:1025400046EA9E0601D5BDE80189B619524141EB24
:102550000101A3F10103BDE801894FEA14454FEAE7
:10256000114724EA054621EA074C05FB07F406FB60
:1025700007F70CFB06F105FB0CFC11EB074144EBE4
:1025800017444FEA124711EB0C4144EB1C4422EA7A
:10259000074C05FB07F206FB07F70CFB06F605FBED
:1025A0000CFC16EB074642EB174216EB0C4642EBCF
:1025B0001C456A1854F1000148BF7047B6195241D2
:1025C00041EB0101A3F10103704795F0000F37D0F3
:1025D0004FEA11424FEA144721EA024624EA074C27
:1025E00002FB07F106FB07F70CFB06F402FB0CFCF1
:1025F00014EB074441EB17414FEA154714EB0C4429
:1026000041EB1C4125EA074C02FB07F506FB07F7E7
:102610000CFB06F602FB0CFC16EB074645EB1745D8
:1026200016EB0C4645EB1C42121951F1000148BF54
:102630007047B619524141EB0101A3F10103704704
:102640004FEA14454FEA114724EA054621EA074CB0
:1026500005FB07F106FB07F70CFB06F24FF000063F
:1026600005FB0CFC12EB074241EB174112EB0C424D
:1026700051EB1C4148BF7047921841EB0101A3F197
:1026800001037047F0B585B0074601251648CDE92E
:10269000000564242B466B22D0210294384600F0BA
:1026A0002BFDF0B9642000F095F903A8CDE90005F1
:1026B00000268DF80C6001231C22D021029438469C
:1026C00000F01AFD68B904A8CDE900058DF8106086
:1026D00001231B22D0210294384600F00DFD002872
:1026E00000D0012005B0F0BD0000002010B50C4660
:1026F00000F05CF8002850D1B4F9000000EE100A98
:10270000F8EEC00A9FED250A60EE800AC4ED040AC7
:10271000B4F9020000EE900AF8EEE00A60EE800ADA
:10272000C4ED050AB4F9040000EE900AF8EEE00AE0
:1027300020EE800A84ED060AB4F9060000EE100AC5
:10274000F8EEC00A9FED160A80EE801A84ED071A93
:10275000B4F9080000EE900AF8EEE00A80EE801A64
:1027600084ED081AB4F90A0000EE900AF8EEE00AC7
:1027700080EE801A84ED091AB4F90C009FED091A55
:1027800000EE100A0020B8EEC00AC0EE010A9FED6C
:10279000060A30EE800A84ED0A0A10BD0000803877
:1027A000000003430000AA43B81E12423EB50D4686
:1027B000124C64210E220094CDE9012101233B2219
:1027C000D12100F097FB08B101203EBD208840BA1E
:1027D0002880608840BA6880A08840BAA880E088D5
:1027E00040BAA881208940BAE880608940BA28812F
:1027F000A08940BA688100203EBD00004801002049
:10280000FEE7000030B50D4B0020014603F5E472F1
:1028100033F8114032F81150AC420BD001200021A6
:1028200033F8114022F81140491C1029F8DB196ACD
:10283000116230BD491C1029EADB30BD7C0100204B
:10284000704700008AB0282207A16846FEF72BF8DF
:102850006846FDF779FF82B24FF6FF7369460C4870
:1028600001F08EFF72B6FEE74572726F725F4861CB
:102870006E646C65723A2053797374656D2045728D
:10288000726F72204F63637572726564210D0A0066
:10289000900A0020012004F0CFF9FBE72DE9F04178
:1028A00015460E46044604281CD2002E1AD0002DD0
:1028B00018D00D4F786918B14FF0FF3104F08AFA43
:1028C00009480C30005D3070084800EB840090ED42
:1028D000000A85ED000A7869002803D0BDE8F041C0
:1028E00004F0D5BABDE8F08104000020D801002032
:1028F00070B50026044604280CD2074D686910B153
:10290000711E04F067FA04481030065D686908B16A
:1029100004F0BDFA304670BD040000202DE9F041FE
:102920000446876D00F066F9064694F835000025E8
:10293000022806D08020606584F834500120BDE86C
:10294000F0812068016821F016010160206841696A
:1029500021F080014161206C08B9A06C20B1206891
:10296000016821F0080101602068016821F001017F
:1029700001600CE000F03EF9801B052807D92020FB
:102980006065032084F8350084F83450D7E7206868
:102990000068C007EED194F85C103F208840B86012
:1029A000012084F8350084F834500020C7E790F8FF
:1029B0003510022903D0802141650120704705218F
:1029C00080F835100068016821F0010101600020E5
:1029D0007047000070B5044600F00CF90546601C15
:1029E00002D004480078044400F004F9401BA042DF
:1029F000FAD370BDB40000202DE9F84FDFF8BCA178
:102A00000022012503264FF00F090AF1040BAAF159
:102A1000040E00BF0B6805FA02F42340A34270D1F4
:102A20000F7907F00307012F01D0022F16D1876815
:102A30004FEA420806FA08FC27EA0C07D1F80CC056
:102A40000CFA08FC4CEA070CC0F808C04768A7431A
:102A50000C79C4F3001494403C4344600C79E44383
:102A6000A4070AD0C4684FEA420C06FA0CF7BC432C
:102A70008F6807FA0CF72743C7600C7904F003044A
:102A8000022C12D1D40800EB840CDCF8204057074C
:102A9000FF0E09FA07F824EA0804D1F8108008FAB2
:102AA00007F848EA0408CCF8208004684FEA420C92
:102AB00006FA0CF7BC430F7907F0030707FA0CF787
:102AC000274307604C6814F4403F70D03C4C2768A3
:102AD00047F480472760246822F0030704F4804409
:102AE0000094384C07EB040CDCF8084897074FEAD1
:102AF000177809FA08F7BC43334FB84202D10027D0
:102B000024E054E0314FB84201D101271EE0304F9C
:102B1000B84201D1022719E02E4FB84201D1032754
:102B200014E02D4FB84201D104270FE02B4FB842DB
:102B300001D105270AE02A4FB84201D1062705E056
:102B4000284FB84201D1072700E0082707FA08F705
:102B50002743CCF80878DAF800405746D1F804C08B
:102B60009C435FEACC2C00D51C433C60DBF8004062
:102B70005F46D1F804C09C435FEA8C2C00D51C430F
:102B80003C60DEF800407746D1F804C09C435FEA21
:102B90008C3C00D51C433C60084F083F3C68D1F892
:102BA00004C09C435FEACC3C00D51C433C60521CF3
:102BB000102AFFF42FAFBDE8F88F0000083C014059
:102BC000443802400030014000000240000402404E
:102BD00000080240000C02400010024000140240B5
:102BE00000180240001C02400AB1816170470904CC
:102BF000FBE700000148806870470000B400002037
:102C000070B5040025D094F83D00002520B984F863
:102C10003C50204600F008FB242084F83D0020684A
:102C2000016821F0010101602068016841F4004160
:102C300001602068016821F40041016000F0CEFCD1
:102C40004D4A6168914201D84C4900E04C498842A4
:102C500001D2012070BD4B492368B0FBF1F15E68E1
:102C600026F03F060E435E606368934206D94FF438
:102C7000967359434FF47A73B1FBF3F12368491CFF
:102C80001E6A26F03F06314319626168914210D8EE
:102C90004900401EB0FBF1F2521CC2F30B02042AA1
:102CA00001D2042022E0B0FBF1F0401CC0F30B0085
:102CB0001CE0A268F2B301EBC10303EB0116431E53
:102CC000B3FBF6F35B1C43F480431B0549D092B37E
:102CD00001EBC10202EB0111401EB0FBF1F0401C00
:102CE000C0F30B0040F4804040F400402168CA6902
:102CF0004CF6FF739A431043C861D4E907100143AF
:102D00002068026822F0C00211430160D4E9030187
:102D100001432068826848F2FF339A43114381607F
:102D2000D4E9050108432168CA6822F0FF02104374
:102D3000C86001E00EE016E02068016841F0010182
:102D400001602564202084F83D00256384F83E500E
:102D5000002070BD01EB4106431EB3FBF6F35B1C84
:102D6000B3E70120C2E701EB4101401EB0FBF1F0E7
:102D7000401CC0F30B00B7E7A086010080841E0052
:102D800000093D0040420F002DE9FF4F81B0894608
:102D90000446FFF72FFF054694F83D004FF000086A
:102DA00020287DD11923012250492046009501F0A9
:102DB0004FFE002874D194F83C00012870D0012007
:102DC00084F83C0020680168C90703D1016841F01C
:102DD000010101602068016821F400610160242084
:102DE00084F83D00002626644148E0624FF0011B54
:102DF00020272068016841F480710160009500225D
:102E000059462046049B01F023FE50B1206800681B
:102E1000C00502D54FF400702064032005B0BDE862
:102E2000F08F216809F0FE000861FFF7E3FE2168DA
:102E3000054648694969C0F34000C1F380214FF05D
:102E4000A00A0FE0FFF7D6FE411B0498814200D88C
:102E500008B984F83DA0216848694969C0F3400079
:102E6000C1F3802194F83D20A02A02D008B900299E
:102E7000E8D084F83D7020684169C943890716D4B9
:102E8000016841F40071016020684169806919237B
:102E9000012216492046009501F0DAFDB8B900E09C
:102EA00021E084F83D7084F83C600020B6E70168BA
:102EB00041F40071016021686FF48060486119235A
:102EC00001220A492046009501F0C2FD08B1012007
:102ED000A4E7039808F1010880458AD384F83D707F
:102EE00084F83C60F3E7022098E70000020010003D
:102EF0000000FFFF2DE9FF4F83B09A46DDE91187FF
:102F000093460446DDF84090FFF774FE054694F8BA
:102F10003D00202870D119230122744920460095D4
:102F200001F096FD0028F5D194F83C00012863D00B
:102F3000012084F83C0020680168C90703D10168BA
:102F400041F0010101602068016821F40061016025
:102F5000222084F83D00402084F83E0000262664AC
:102F6000C4F82490A4F82A80608D20856048E0622F
:102F7000CDE9007553465A462046049901F06AFC93
:102F8000002879D1208DD0B1012821D002282068D5
:102F900024D0416980690090208D032866D80128DB
:102FA0002BD0544902283B464FF00002009557D0E1
:102FB0008846204601F04CFD00285DD13AE02068AB
:102FC000416981690091016841F4007101607DE00F
:102FD0002068016821F480610160F0E7016821F454
:102FE000806101602068016841F40061016020682F
:102FF00041698069009069E075E02A4639462046BB
:1030000001F0CCFD88BB54E02068016841F40071F8
:10301000016020680069616A0870606A401C606233
:10302000218D491E2185618D491E618521680969AF
:10303000017042E02068016821F48061016020682D
:103040000069616A0870606A401C6062208D401EE1
:103050002085608D401E60853B46002241460095DC
:10306000204601F0F5FC00B9CEE705E02A463946D6
:10307000204601F093FD18B1012007B0BDE8F08FA4
:1030800020680069616A0870606A401C6062208D77
:10309000401E81B22185608D401E60852068426996
:1030A000D243520712D4032903D1016821F480616D
:1030B000016020680069616A0870606A401C606293
:1030C000208D401E2085608D401E6085208D00284B
:1030D0007FF462AF202084F83D0084F83E6084F8DD
:1030E0003C600020C9E70220C7E700000200100092
:1030F0000000FFFF040001002DE9FF4F83B09A4656
:10310000DDE9119793460446DDF84080FFF772FD34
:10311000054694F83D0020287FD11923012240491B
:103120002046009501F094FC002876D194F83C00EC
:10313000012872D0012084F83C0020680168C9078A
:1031400003D1016841F0010101602068016821F4A8
:1031500000610160212084F83D00402084F83E0099
:1031600000262664C4F82480A4F82A90608D208567
:103170002C48E062CDE9007553465A462046049932
:1031800001F0E6FB70B930E02A463946204601F0EE
:103190003DFD58B1206C042804D12068016841F439
:1031A00000710160012007B0BDE8F08F606A2168FE
:1031B00000780861606A401C6062218D491E89B2F6
:1031C0002185628D521E628522685369DB435B074D
:1031D0000BD469B100781061606A401C6062208D78
:1031E000401E2085608D401E6085208D0028CBD13B
:1031F0002A463946204601F0FFFB0028CAD154F880
:103200003D0B016841F400710160202004F81E09A3
:10321000E67766770020C6E7FFE70220C3E70000F5
:10322000020010000000FFFFF0B587B00446142133
:103230006846FDF772FB2768234CDFF888C0002240
:10324000214912230325042620481034674518D14C
:103250000F6847F002070F60096802AF01F0020132
:103260000591C021CDE9001387E864006946FFF7A6
:10327000C3FB206840F400102060206800F40010B8
:103280001CE0DFF84CC0674519D10F6847F0020712
:103290000F60096802AF01F0020105914FF440612F
:1032A000CDE9001387E864006946FFF7A5FB2068B5
:1032B00040F480002060206800F48000059007B092
:1032C000F0BD0000005400403038024000040240CD
:1032D00000580040024881680278114481607047BC
:1032E000B40000200B4810B5016841F40071016082
:1032F000016841F480610160016841F480710160FE
:10330000032000F09FF80F2000F006F800F050F8BE
:10331000002010BD003C024030B505461F4887B074
:103320000024016841F004010160006806A900F072
:103330000400009001A800F031F90498A8B100F051
:103340004DF940001649174AB0FBF1F11648491EE5
:10335000026040F2E732C0E90324C0E9011484614D
:1033600000F08EFB040003D015E000F037F9E9E728
:103370000D4800F0B3FB04000DD11E2000F034F81E
:10338000102D07D2002229461E2000F03BF80748E6
:10339000056000E0012407B0204630BD40380240FF
:1033A00040420F0000080040680B0020B8000020D9
:1033B0000C4882B0016841F480410160006800F46B
:1033C000804000900748001F016841F08051016073
:1033D0000068002200F0805000900F21901E02B083
:1033E00000F010B844380240002809DB00F01F024A
:1033F000012191404009800000F1E020C0F8001157
:1034000070470000F0B40E4B1B680C46C3F3022358
:10341000C3F10705042D00D90425191D072901D280
:10342000002300E0DB1E012606FA05F1491E2140BB
:1034300099409E40761E16403143F0BC03F06BB9B4
:103440000CED00E0064900F0070208684FF6FF03A4
:10345000184040EA0220034A104308607047000009
:103460000CED00E00000FA052DE9F0470E460500DE
:1034700065D0DFF81481D8F80000F7B200F007003B
:10348000B04207D288F80070D8F8000000F00700BA
:10349000B04254D128683D4C810712D5400703D56E
:1034A000206840F4E05020602878000703D52068A9
:1034B00040F4604020602068A96820F0F0000843D4
:1034C00020602878C0072DD0304968680839012865
:1034D00012D0022813D0032811D0096889070029C7
:1034E0002DDA216821F0030101432160FFF782FBFF
:1034F000814641F2883A0EE009688903EFE70968DE
:103500008901ECE7FFF776FBA0EB0901514502D9F1
:103510000320BDE8F0872068696800F00C00B0EB7C
:10352000810FEFD1D8F80010404601F00701B142F9
:1035300007D90770006800F00700B04201D00120F1
:10354000E7E72878400705D52068E96820F4E050CF
:10355000084320602878000706D52068296920F4F0
:10356000604040EAC100206000F058F82168084A35
:10357000C1F30311515CC840064908600648006861
:10358000FFF7CAFE0020C4E7003C024008380240B2
:10359000A0990008C0000020B80000200F2202609F
:1035A0000C4A136803F003034360136803F0F0034D
:1035B0008360136803F4E053C36012684FF4E05370
:1035C00003EAD20202610448006800F007000860C4
:1035D0007047000008380240003C0240044805499A
:1035E00000680968044AC1F38221515CC8407047F1
:1035F000C000002008380240B0990008044805497E
:1036000000680968044AC1F34231515CC840704700
:10361000C000002008380240B0990008154810B5D5
:10362000006810F00C02144813D01449042A0FD07B
:10363000082A0ED10F4C241F2268236802F03F0293
:103640005B0207D52068C0F38810A0FB010106E0EB
:10365000084610BD2168C1F38811A1FB00010023B9
:10366000FCF78EFE2168C1F30141491C4900B0FB03
:10367000F1F010BD083802400024F40040787D01CC
:103680002DE9F84F04006ED02078DFF84C93C00786
:10369000A9F104054AD009F104000168C1F38101D0
:1036A000012908D00068C0F3810002280AD1D9F8A6
:1036B0000000400206D52868800337D560680028DE
:1036C000E1D033E06068B0F5803F10D0B0F5A02FB6
:1036D000286810D020F480302860286820F48020EA
:1036E00028606068A8B1FFF785FA06460DE02868F3
:1036F00040F48030F4E740F480202860F7E700BF12
:10370000FFF778FA801B642873D828688003F7D500
:103710000CE0FFF76FFA064605E000BFFFF76AFA14
:10372000801B6428F0D828688003F7D42078DFF85D
:10373000AC8280074FF0000A3ED5A748001D016803
:1037400011F00C0F08D00068C0F3810002280BD1E3
:10375000D9F80000400207D42868800716D5E06831
:10376000012800D112E033E1E068B8B10120C8F8C7
:103770000000FFF73FFA064605E000BFFFF73AFA00
:10378000801B0228C0D828688007F7D528682169DF
:1037900020F0F80040EAC10028600DE0C8F800A061
:1037A000FFF728FA064604E0FFF724FA801B0228F8
:1037B0001FD828688007F7D42078000722D5864FC5
:1037C00087486169703771B101210160FFF712FA12
:1037D000064604E0FFF70EFA801B022809D8386875
:1037E0008007F7D50EE0C0F800A0FFF703FA064601
:1037F00005E082E0FFF7FEF9801B02287DD83868DB
:103800008007F7D42078400768D5DFF8CCB10027CF
:103810000BF13C0BDBF80000C0000BD4DBF8001010
:1038200041F08051CBF80010DBF80000012700F0D8
:10383000805000906B4E3068C00510D4306840F462
:1038400080703060FFF7D6F9009005E0FFF7D2F9FD
:103850000099401A022850D83068C005F6D55E4E4F
:10386000A0686C3601280FD00528306810D020F0F1
:1038700001003060306820F004003060A068B8B10A
:10388000FFF7B8F900900FE0306840F00100F4E76E
:1038900040F004003060F7E7FFF7ACF90099411AF7
:1038A00041F28830814266D830688007F4D50EE056
:1038B000FFF7A0F9009007E0FFF79CF90099411A83
:1038C00041F28830814256D830688007F4D42FB155
:1038D000DBF8001021F08051CBF80010A069C8B3CC
:1038E0003D49091D0968C1F3810102294AD0022816
:1038F000504607D0C8F8600000E03CE0FFF77AF9D6
:1039000004463BE04746C8F86000FFF773F90646F7
:1039100005E000BFFFF76EF9801B02282BD828684E
:103920008001F7D4D4E907010843A16A2E4A490867
:1039300002EB0141626A41EA8211084394F82C10BB
:1039400040EA0161C9F8001001203866FFF752F91A
:10395000044606E03EE000BFFFF74CF9001B0228DA
:1039600009D828688001F7D534E000BFFFF742F995
:10397000001B022802D90320BDE8F88F28688001C7
:10398000F4D427E00128F7D0D9F80000E26900F468
:10399000800191421CD1226A00F03F01914217D16F
:1039A00047F6C071626A0140B1EB821F10D1A26A72
:1039B0004FF0FF3300F4403103EB5202B1EB024F02
:1039C00006D194F82C1000F07060B0EB016F01D0BC
:1039D0000120D1E70020CFE7043802400000474231
:1039E000800E4742007000400000FFFF70477047A4
:1039F00070B590F83C20012A32D0012480F83C4078
:103A0000022280F83D2003685A689D6822F0700603
:103A10000A6832435A60134B02689A4214D0B2F1DA
:103A2000804F11D0104B9A420ED0104B9A420BD0BF
:103A30000F4B9A4208D00F4B9A4205D00E4B9A4238
:103A400002D00E4B9A4204D1496825F080031943F5
:103A5000916080F83D40002180F83C10084670BD20
:103A6000022070BD0000014000040040000800403A
:103A7000000C0040000401400040014000180040DC
:103A800010B5040003D094F83D0010B107E0012008
:103A900010BD002084F83C00204600F01EF80220F3
:103AA00084F83D00211D206802F0F6FA012084F818
:103AB000460084F83E0084F83F0084F8400084F813
:103AC000410084F8420084F8430084F8440084F8FC
:103AD000450084F83D00002010BD704790F83D106F
:103AE000012901D001207047022180F83D100168B2
:103AF000CA6842F00102CA6000681149884214D0C5
:103B0000B0F1804F11D00F4988420ED00E49884243
:103B10000BD00E49884208D00D49884205D00D4986
:103B2000884202D00C49884204D1816801F0070123
:103B3000062903D0016841F00101016000207047AF
:103B4000000001400004004000080040000C00405C
:103B50000004014000400140001800402DE9F04100
:103B60000D46040003D094F83D0018B108E0012090
:103B7000BDE8F081002084F83C00204600F040F8C9
:103B8000022084F83D002068816844F207029143D6
:103B90008160211D206802F07FFA22689068916997
:103BA000166A2B68AF69034340F20330814341EA50
:103BB0000721A868EF6908434FF6FC418843E9688C
:103BC00040EA0720014328692F6A000140EA0730D4
:103BD000084369686D6926F0AA0646EA0515294377
:103BE00093602268906154F8460B0162012004F84A
:103BF0001F09E0752076E0762077A0750020B7E7F2
:103C0000F0B587B0044614216846FCF786FE4949A2
:103C10004748D4F800C00024464B14390225032637
:103C20000127844519D1186840F001001860186810
:103C300000F001000590086840F010000860086876
:103C400002AA00F0100005904FF42060CDE90005B5
:103C500082E8D000694638484AE0364A3748121FA1
:103C6000BCF1804F1BD0DFF8D8E0C027F44543D12A
:103C7000136843F002031360126802F00202059217
:103C80000A6842F001020A60096800970396CDE9CC
:103C9000015401F00101CDE90451694628E013689F
:103CA00043F001031360126802F0010205920A68F2
:103CB00042F001020A600A6802F0010205920A68F5
:103CC00042F002020A60096802AB01F002010591AC
:103CD0002021CDE9001583E8D0006946FEF78CFE6F
:103CE0000820CDE9000502AB694683E8D0001548FD
:103CF000FEF782FE07B0F0BD13488445FAD118687C
:103D000040F002001860186800F002000590086892
:103D100040F0040008600868CDE9024600F00400A5
:103D2000CDE90460CDE9007569460848E0E7000088
:103D300000000140443802400010024000000240F0
:103D4000000400400004024000040140000802405A
:103D500070B590F83E60044690F83F5090F84230BD
:103D600090F84320022021B104290ED0012E1BD14E
:103D700014E0012E18D1012B16D184F83E0084F8EE
:103D8000420001220021206820E0012D0CD1012AEF
:103D90000AD184F83F0084F8430014E0012D03D1D8
:103DA000012B01D1012A01D0012070BD84F83E0011
:103DB00084F83F0084F8420084F843000122002187
:103DC000206802F0D1F901220421206802F0CCF928
:103DD0002068016841F001010160002070BD70475A
:103DE0002DE9F04104460068C66805694FF00007F8
:103DF000A90713D5B10711D5F91E0161012020775C
:103E0000206880698007204602D0FFF7E8FF04E0C1
:103E100000F0D8F8204600F099F92777680716D502
:103E2000700714D521686FF0040008610220207724
:103E30002068806910F4407F204602D0FFF7CFFF52
:103E400004E000F0BFF8204600F080F9277728074B
:103E500015D5300713D521686FF0080008610420DC
:103E600020772068C0698007204602D0FFF7B7FF9F
:103E700004E000F0A7F8204600F068F92777E8068C
:103E800016D5F00614D521686FF0100008610820DF
:103E900020772068C06910F4407F204602D0FFF7E9
:103EA0009EFF04E000F08EF8204600F04FF92777DF
:103EB000E80708D0F00706D021686FF0010008611C
:103EC000204600F0E7F9280608D5300606D5216817
:103ED0006FF0800008612046FFF788FD680608D56E
:103EE000700606D521686FF040000861204600F09A
:103EF000DBF9A8060AD5B00608D521686FF02000C6
:103F000008612046BDE8F041FFF771BDBDE8F081D2
:103F100010B586B0044614216846FCF7FEFC236801
:103F2000214C002021490222A34210D10B6843F00A
:103F300001030B60096801F0010105910F21009157
:103F4000CDE90120CDE903026946194813E0194C77
:103F5000A34214D10B6843F010030B60096801F011
:103F60001001059160210091CDE90120039003200B
:103F7000049069461048FEF73FFD06B010BD0F4C97
:103F8000A342FAD10B6843F002030B60096801F009
:103F900002010591E1000091CDE901200390092083
:103FA000049069460648E6E7000C004030380240BD
:103FB0000000024000400140001002400018004094
:103FC00000040240704770B5044690F83C0000269B
:103FD0000D4601280FD0012084F83C006AB1042A64
:103FE0001DD0082A2FD00C2A3FD00126002084F8AB
:103FF0003C00304670BD022070BD206802F0C2F85F
:104000002068816941F0080181612068816921F09F
:1040100004018161206881692A69114311E02068E7
:1040200002F0E0F82068816941F400618161206854
:10403000816921F480618161206881692A6941EA8E
:1040400002218161D2E7206802F002F92068C1698B
:1040500041F00801C1612068C16921F00401C1611A
:104060002068C1692A69114311E0206802F024F92F
:104070002068C16941F40061C1612068C16921F40F
:104080008061C1612068C1692A6941EA0221C16178
:10409000ACE710B5040003D094F83D0010B107E080
:1040A000012010BD002084F83C00204600F01EF8DE
:1040B000022084F83D00211D206801F0EDFF012061
:1040C00084F8460084F83E0084F83F0084F84000FD
:1040D00084F8410084F8420084F8430084F84400E6
:1040E00084F8450084F83D00002010BD08B5134A4F
:1040F00001681348914207D1016841F0080101604D
:10410000006800F008000BE00E4A91420AD10C480A
:10411000001D016841F480310160006800F48030C6
:10412000009008BD084A9142FBD1016841F040016E
:104130000160006800F04000F2E70000000C004061
:104140004038024000400140001800407047000025
:1041500010B50446022249B104290ED0082913D013
:1041600094F84100012816D0012010BD94F83E00BB
:104170000128F9D184F83E200FE094F83F0001288F
:10418000F2D184F83F2008E094F840000128EBD1F8
:1041900084F8402001E084F841200122206801F0E9
:1041A000E3FF16492068164A884201D0904203D1A5
:1041B000436C43F4004343642068884213D0B0F159
:1041C000804F10D00F4988420DD00F4988420AD045
:1041D0000E49884207D0904205D00D49884202D04E
:1041E0000C49884204D1816801F00701062903D0F7
:1041F000016841F001010160002010BD0000014094
:10420000000401400004004000080040000C004091
:10421000004001400018004030B504460D460068DB
:10422000002201F0A1FF194B41F2111120688A1000
:10423000984202D0164B984209D1036A0B4206D12C
:10424000036A134203D1436C23F4004343642068A0
:10425000036A0B4206D1016A114203D1016821F0C1
:104260000101016001203DB1042D08D0082D09D0C5
:1042700084F84100002030BD84F83E00FAE784F85D
:104280003F00F7E784F84000F4E700000000014039
:104290000004014000680349884201D1FFF71AB8C1
:1042A000704700000008004070477047064A0168E8
:1042B000914208D1416C09B10021416401220349B6
:1042C000034800F00FBA704700500040060000207D
:1042D000D80A0020F8B5016804460868CA684B6926
:1042E00010F00F0F4FF0000559D003F0010602F453
:1042F0009077374365D0C10705D0D10503D5616CF0
:1043000041F001016164410705D5D90703D0616C13
:1043100041F002016164810705D5D90703D0616CC2
:1043200041F004016164010707D502F02001314327
:1043300003D0616C41F008016164616C00293AD0DE
:10434000800604D5900602D5204602F011F82068B8
:104350004069616CC0F38010090700D460B3204647
:1043600001F0DFFF20684069400621D52068143045
:1043700050E8001F21F0400140E80012002AF5D16A
:10438000E06BA8B172490165E06BFEF710FB0028F5
:1043900011D0E06B016D01B0BDE8F0400847830625
:1043A0000FD593060DD52046BDE8F84001F0E0BFDB
:1043B0002046FFF77BFFF8BD2046FFF777FF6564D7
:1043C000F8BD266B2023012E7ED1C6067CD5D606ED
:1043D0007AD508684868009048694FF002064006A0
:1043E0004DD5E26B106840684FF480770004000CF4
:1043F0003AD0A18D814237D9E085D069B8422DD01D
:1044000020680C3050E8001F21F4807140E8001251
:10441000002AF5D12068143050E8001F21F0010176
:1044200040E80012002AF5D12068143050E8001F3F
:1044300021F0400140E80012002AF5D184F8423012
:10444000256320680C3050E8001F21F0100140E87F
:104450000012002AF5D1E06BFEF760FA6663A08DCA
:10446000E18D401A81B206E0A18D8142A8D1D069C8
:10447000B842A5D166632046FFF717FFF8BDA08DAF
:10448000E18D401A81B2E08D0028F7D00029F5D0E7
:1044900020680C3050E8002F22F4907240E800278A
:1044A000002FF5D12068143050E8002F22F00102CF
:1044B00040E80027002FF5D184F8423025632068BA
:1044C0000C3050E8002F00E006E022F0100240E837
:1044D0000023002BF3D1CDE705062BD5150629D5F2
:1044E00094F841002128C9D1A068B0F5805F01D1BE
:1044F0002069B0B1206A411C2162216800784860BF
:10450000E08C401E0004000CE084B7D12068C16834
:1045100021F08001C1602068C16841F04001C160A4
:10452000F8BD206A0088C0F308004860206A801C3B
:104530002062E5E74006F3D55006F1D5CA6820466B
:1045400022F04002CA6084F8413000F069F9F8BDF9
:104550001563000870B5040004D094F841000025EC
:1045600010B106E0012070BD84F84050204600F0F4
:1045700023F8242084F841002068C16821F4005108
:10458000C160204601F056FF2068016921F4904186
:1045900001612068416921F02A0141612068C168F8
:1045A00041F40051C1606564202084F8410084F822
:1045B00042006563002070BDF0B587B00446142149
:1045C0006846FCF7AAF94149DFF8FCC023680024DB
:1045D0003E4A10390225032608273D48634517D176
:1045E000136843F400231360126802F4002205925A
:1045F0000A6842F004020A60096802AB01F0040193
:104600000591B102CDE9001583E8D000694658E074
:10461000DFF8C0C0634535D1136843F480131360DD
:10462000126802F4801205920A6842F004020A60DD
:104630000A6802F0040205920A6842F008020A6061
:10464000096802AB01F0080105914FF48051CDE9F2
:10465000001583E8D0006946FEF7CEF90420CDE9C5
:10466000000502AB694683E8D0001B48FEF7C4F999
:10467000002205213520FEF7C5FE3520FEF7B4FEE9
:1046800007B0F0BD15488342FAD11048001D0268FA
:1046900042F010020260006800F010000590086807
:1046A00040F0010008600868029400F001000590E5
:1046B0004FF4C060CDE900050720CDE903606946ED
:1046C0000748FEF799F9DBE7004C0040403802400C
:1046D0000008024000500040000C02400010014061
:1046E0000000024090F84230202B01D00220704799
:1046F00021B11AB10023036301F022BF01207047EA
:1047000000B50068124989B088421FD1FEF772FADD
:10471000104948600F480121801C00F083FB0D49BF
:104720000122891C0C48FFF7DDFF00280ED0202253
:104730000AA16846FCF7B7F86846FCF705F882B2AC
:104740004FF6FF7369460D4800F01AF809B000BD36
:104750000050004004000020D80A00205541525467
:10476000352052652D7374617274207265636569BA
:104770007665206572726F720D0A0000900A002043
:104780002DE9F843044690F84100984616460D4638
:10479000202802D00220BDE8F88385B17EB1002038
:1047A0006064212084F84100FEF724FAA684814643
:1047B000E684A0682027B0F5805F02D003E00120E6
:1047C000E9E7206910B12E4600250EE000260CE036
:1047D0008021204601F018FFA8B9C6B116F8010BD8
:1047E00021684860E08C401EE084E08C4B464FF02E
:1047F0000002CDF800800028EAD14FF040012046A9
:1048000001F002FF40B184F841700320C3E735F89E
:10481000020BC0F30800E3E784F841700020BAE718
:104820007047FEE701684A69D24352050FD46FF41E
:1048300080624A61002140F8301F20224273817358
:10484000026942F0040202610173012070470020F6
:10485000704700002DE9F84F0446006889460B9D1B
:1048600001689846174641F480610160206801683C
:1048700041F48071016000954FF0011B0022594600
:1048800020460A9B00F0E4F84FF4007A40B120681B
:104890000068C00501D5C4F840A00320BDE8F88F2A
:1048A000216809F0FE0008612B46284920460A9A33
:1048B00000F016F9F0BB20684169806900902A4633
:1048C00020460A9900F0A2F940B1206C04283AD1A0
:1048D0002068016841F40071016034E0FEB2B8F173
:1048E000010F09D02168380A08612A4620460A9932
:1048F00000F08CF90028E8D1206806612A4620469D
:104900000A9900F083F90028DFD12068016841F49A
:104910008071016000950022594620460A9B00F0F4
:1049200097F80028B3D1216809F0FF0040F001009A
:10493000086100E007E02B46044920460A9A00F08F
:10494000CFF80028AAD00120A8E70000020001004B
:104950002DE9F843044600680D46DDE90897016833
:104960009846164641F4807101604B4600224FF094
:1049700001112046009700F06BF848B120680068EC
:10498000C00502D54FF4007020640320BDE8F88311
:10499000216805F0FE0008613B464A46154920465D
:1049A00000F09EF888B920684169806900903A4615
:1049B0004946204600F02AF948B1206C042804D169
:1049C0002068016841F4007101600120DEE7F5B262
:1049D000B8F1010F09D02168300A08613A4649460A
:1049E000204600F013F90028E7D120680561002077
:1049F000CCE700000200010070B516460D460446E3
:104A00001EE02046FFF70EFF08B1012070BD681CB4
:104A100016D0FEF7EFF8801BA84200D885B92068B1
:104A20004069C04340070BD5002044F8300F2021D7
:104A30006173A073216941F0200121612073E4E7D3
:104A400020684069C0434007DBD4002070BD0000EF
:104A50002DE9F047984617460D460446C1F3074630
:104A6000DDF820902AE000BFB8F1FF3F26D0FEF726
:104A7000C1F8A0EB0901414502D8B8F1000F1DD1E2
:104A80002068012E16D0806925EA00000004000C81
:104A900012D00020B84211D1002044F8300F20215C
:104AA0006173A073216941F020012161207301200D
:104AB000BDE8F0874069E7E70120EBE72068012EB9
:104AC0000AD0806925EA00000004000C06D000200E
:104AD000B842C9D00020EBE74069F3E70120F7E7CF
:104AE0002DE9F047984616460D4604464FF000095A
:104AF0004FF0200AC1F3074723E020684069C04314
:104B0000400515D42068016841F4007101602168F6
:104B10006FF480604861C4F8309084F83DA084F858
:104B20003E90216C41F00401216484F83C9021E026
:104B3000701C06D0FEF75EF8A0EB0800B04203D868
:104B400016B1012F1FD021E02068012F15D08069F8
:104B500025EA00000004000C18D000BF44F8309F84
:104B600084F80DA084F80E90216941F020012161A4
:104B700084F80C900120BDE8F087406925EA000028
:104B80000004000CEAD12068406901E020688069D7
:104B900025EA00000004000CAFD1ECE72DE9F0415C
:104BA000002590460E460446202728E04069C04371
:104BB000C0060CD454F8301B6FF01000486144F864
:104BC00010596777A577206A2062257714E0FEF7F1
:104BD00011F8A0EB0800B04200D886B920684069FF
:104BE000C04340060BD544F8305F6773A573206956
:104BF00040F02000206125730120BDE8F08120688D
:104C00004169C9434906D1D40020F6E770B516467C
:104C10000D4604461EE02046FFF704FE08B10120C1
:104C200070BD681C16D0FDF7E5FF801BA84200D8B8
:104C300085B920684069C04300060BD5002044F8C0
:104C4000300F20216173A073216941F0200121619F
:104C50002073E4E720684069C0430006DBD40020ED
:104C600070BD0000B0B04FF47A7001F0E5FF33483A
:104C7000FDF708FD08B132A100E03AA10CA8FBF74E
:104C8000F7FB0CA8FBF760FD82B24FF6FF730CA98F
:104C90003D48FFF775FD25A92848FDF727FD88B198
:104CA0003AA10CA8FBF7E4FB0CA8FBF74DFD82B280
:104CB0004FF6FF730CA93448FFF762FD642001F042
:104CC000BBFFE8E72F9804F04BFC06460F462E98F2
:104CD00004F046FC04460D462D9804F041FCCDE955
:104CE00002012C9804F03CFCCDE900012B9804F063
:104CF00037FC82468B462A9804F032FC804689466F
:104D0000299804F02DFC41EC100B08A853EC102B53
:104D100080E8F000DDE90201CDE90601DDE90001EE
:104D2000CDE904018DE8000F1E490CA8FBF7A0FB9C
:104D300029A991EC070A01F0A1FCBFE7F0070020C8
:104D40004D50553630353020496E697469616C6953
:104D50007A6174696F6E204661696C6564210D0A21
:104D6000000000004D50553630353020496E6974D2
:104D700069616C697A6174696F6E205375636365EC
:104D80007373210D0A000000900A00204D50553623
:104D90003035302052656164204572726F72210D8A
:104DA0000A000000CC9A00081FB50A4C00202070B1
:104DB0006070606940B9084B0FCB8DE80F00684602
:104DC00002F031F8606110B1002004B010BD012084
:104DD000FBE70000040000205C9700080122024964
:104DE0000248FFF77FBC000006000020D80A002020
:104DF00010B5064C2078002807D0FDF7FBFE61684F
:104E0000401AC82801D90020207010BD04000020DD
:104E100003480178322901D9002101707047000050
:104E2000040000202DE9F0470025C2B00F4682465D
:104E3000A8464FF00109304C304E56E01AF80510E4
:104E40000A2902D00D2934D049E0207880B33118E6
:104E500011F8011C06F800800D2984F8019015D086
:104E6000401EC1B2254800F05FFD60B12078401EB1
:104E7000C1B2224800F072FE28B12078401EC1B2B3
:104E80001E4800F0F3FD84F800802CE0801EC1B2C3
:104E90001A4800F049FD0028F5D02078801EC1B2E4
:104EA000164800F05BFE0028EDD02078801EE6E773
:104EB00015E0207898B106F8008084F801900F4A38
:104EC0000FA16846FBF7D4FA6846FBF73DFC82B2B7
:104ED0004FF6FF7369460D48FFF752FCD3E7207881
:104EE0003154401C20706D1CEDB2BD42A6D342B0BF
:104EF0000020BDE8F087000004000020A00300208F
:104F00004D6573736167653A20257300900A002030
:104F10009AB00025FFF748FF642001F08DFEFFF7EF
:104F20005DFF4FF6FF7408B124A100E02CA1684694
:104F3000FBF79EFA6846FBF707FC82B223466946F8
:104F40003148FFF71DFC4FF47A7001F075FE2FA178
:104F50006846FBF78DFA6846FBF7F6FB82B22346FC
:104F600069462948FFF70CFC314C00BFD4ED101AFC
:104F700094ED0B1AD4ED060A94ED010A94F944302D
:104F800094F9302094F91C1094F9080001F082FB88
:104F90000A2001F051FEFFF72BFFFFF739FFFDF765
:104FA00031FC20B9FDF726FE401B0A28DED300F0B5
:104FB00059FEFDF71FFE0546D8E700004661696C03
:104FC000656420746F20737461727420554152546B
:104FD0003520495420726563656976650D0A0000C5
:104FE0005541525435204954207265636569766590
:104FF0002073746172746564207375636365737381
:1050000066756C6C790D0A00900A00204A6574730D
:105010006F6E20436F6D6D205461736B205374610C
:105020007274656420617420313030487A0D0A0052
:10503000A007002070B586B014216846FBF76DFC10
:1050400022480024016841F010010160016801F06C
:1050500010010591016841F080010160016801F0D3
:1050600080010591016841F001010160016801F0D2
:1050700001010591016841F002010160016801F040
:1050800002010591016841F004010160016801F02D
:1050900004010591016841F00801016000680C4EAF
:1050A00000F008004FF48055059000222946304654
:1050B000FDF79AFD01200095CDE9010469463046CF
:1050C0000394FDF799FC06B070BD00003038024033
:1050D000000402400C4810B50A4901600B494160C8
:1050E00000214FF480428160C0E903124161816177
:1050F000C1610162FDF784FD002801D0FDF7A2FB2C
:1051000010BD000000540040F0070020A086010000
:105110000C4810B50A4901600B49416000214FF469
:1051200080428160C0E9031241618161C161016215
:10513000FDF766FD002801D0FDF784FB10BD0000DF
:105140000058004044080020A086010010B588B037
:105150001C216846FBF7E1FB144813490024016059
:105160000321C0E9011443F2AF61C0E90314846173
:10517000FEF78FFF80B96020CDE900040294002281
:1051800069460A480494FEF71EFF28B904226946BE
:105190000648FEF718FF08B1FDF754FB0348FEF779
:1051A000B7FE08B010BD000000180040480A0020FB
:1051B00010B58CB024216846FBF7AFFB00241548DE
:1051C000099413490A94C0E900144FF6FF71C0E92D
:1051D00002410461446184610320CDE9000401209F
:1051E000CDE902040494CDE90540079469460948D5
:1051F0000894FEF7B3FC38B9099409A905480A9444
:10520000FEF7F6FB002801D0FDF71CFB0CB010BD2B
:10521000000001409808002010B58CB02421684699
:10522000FBF77BFB0024144809944FF080410A945B
:10523000C0E90014611EC0E90241046184610320D9
:10524000CDE900040120CDE902040494CDE9054034
:105250000794694608480894FEF780FC38B9099419
:1052600009A905480A94FEF7C3FB002801D0FDF701
:10527000E9FA0CB010BD0000E008002010B58CB0B9
:1052800024216846FBF749FB00241548099413497B
:105290000A94C0E900144FF6FF71C0E902410461AD
:1052A00084610320CDE900040120CDE902040494C7
:1052B000CDE905400794694609480894FEF74EFC7D
:1052C00038B9099409A906480A94FEF791FB002809
:1052D00001D0FDF7B7FA0CB010BD0000000400408B
:1052E0002809002010B58AB0002407941C216846C4
:1052F0000894FBF712FB1D481B4901600321C0E91C
:10530000011443F2AF61C0E903148461FEF7C1FEEA
:1053100018BB079407A915480894FEF769FBE0B984
:105320006020CDE900040294002269460F480494ED
:10533000FEF749FE88B9042269460C48FEF743FE91
:1053400058B9082269460948FEF73DFE28B90C22E3
:1053500069460648FEF737FE08B1FDF773FA0348C1
:10536000FEF7D6FD0AB010BD000C00407009002009
:1053700010B58CB024216846FBF7CFFA00241548FD
:10538000099413490A94C0E900144FF6FF71C0E96B
:1053900002410461446184610320CDE900040120DD
:1053A000CDE902040494CDE9054007946946094813
:1053B0000894FEF7D3FB38B9099409A905480A9463
:1053C000FEF716FB002801D0FDF73CFA0CB010BD2B
:1053D00000040140B809002010B588B01C216846BF
:1053E000FBF79BFA14481349002401600721C0E928
:1053F000011443F2AF61C0E903148461FEF749FE72
:1054000080B96020CDE900040294002269460A4870
:105410000494FEF7D8FD28B9042269460648FEF731
:10542000D2FD08B1FDF70EFA0348FEF771FD08B092
:1054300010BD000000400140000A00200B4810B5DC
:10544000094901604FF4E1314160002181600C2283
:10545000C160C0E904128161C161FFF77BF80028D7
:1054600001D0FDF7EFF910BD004C0040900A00207C
:105470000F4810B50D4901604FF4E1314160002142
:1054800081600C22C160C0E904128161C161FFF733
:1054900061F808B1FDF7D6F9002205213520FDF7A6
:1054A000B1FFBDE810403520FDF79EBF0050004021
:1054B000D80A0020FEE700001CB505783F4C404E9E
:1054C000DFF800814FF480494FF4004A2846FDF789
:1054D0000FFA07466A4601A92846FDF7DFF92FB102
:1054E000012F1ED0022F4FD0032F52D0284600F09C
:1054F0002BFD35B1012D0BD0022D50D0032D3FD106
:1055000054E0002201212046FDF76EFB002219E045
:10551000002204212046FDF767FB00221AE0204606
:105520002CE0284600F010FD35B1012D0CD0022DE5
:1055300012D0032D24D118E0012211462046FDF798
:1055400053FB01220221EAE7012204212046FDF754
:105550004BFB01220821E2E7012249463046FDF7D4
:1055600043FB01225146304608E0012220214746F4
:105570004046FDF739FB012240213846FDF734FB58
:105580000A2001F059FBA1E79DED000AB1EE400AA7
:1055900001E09DED000A284600F04CFCF0E70022F7
:1055A00049463046FDF720FB0022DBE700222021A0
:1055B00047464046FDF718FB0022DDE700000240A9
:1055C00000040240001002402DED028B8CB0044616
:1055D0001422334906A8FBF766F914216846FBF745
:1055E0009CF9247806AD8DF8004055F82400006839
:1055F000406AADF8100003F099F89FED2A8ADFEDBC
:105600002A8A2A4E2A4F4FF014094FF0FF3805908E
:1056100055F824000068416ABDF81000ADF810107C
:10562000081A00B200EE100A0399ADF80A00B8EEAD
:10563000C00A01440391002860EE080A80EEA80A1F
:105640008DED010A02DD4FF0010005E002DA8DF870
:10565000088003E04FF000008DF8080043464FF04B
:1056600000026946F06B01F081FB9DF800009DEDA2
:10567000010A401E9DF90810C0B201F01FF89DF804
:105680000000142200EB800007EB8000694614380C
:10569000FBF709F9494605A802F020FAB8E700002F
:1056A0008C99000800803B45000093441C000020BA
:1056B000A0070020FEE730B505462DED028B85B032
:1056C00000208DF80C000121642203A88DE807005A
:1056D0000B46B0EE408A002280212846FDF70CFDE3
:1056E000B0EE480A284600F02BF8002400231A46A2
:1056F0002146284600F0ACF8641CE4B2102CF5D327
:105700004FF4FA70FDF766F905B0BDEC028B30BDC1
:10571000B42A00D9B42200EE102A9FED071A002205
:10572000F8EE400A9FED050A00EE810ABCEEC00AC1
:1057300010EE103A00F08CB8AE4711400000DC4289
:1057400070B506462DED028B88B010EE100A03F0FE
:1057500007FF9FED371B53EC112B03F0E3FC03F025
:10576000F5F99FED358B03F0FBFE41EC100B51EC8E
:10577000180B53EC102B03F0D7FA9FED311B53ECB1
:10578000112B03F003FE9FED301B53EC112B03F0A4
:105790000FFA03F05DFC8DF81400012504A8CDE993
:1057A000000564242B460022802102943046FDF738
:1057B000A1FB9DF810008DF80C0000F07F0040F078
:1057C00010008DF8180006A8CDE90005012300227D
:1057D000802102943046FDF78FFC05A8CDE9000535
:1057E0000123FE22802102943046FDF785FC03A8A8
:1057F000CDE9000501230022802102943046FDF707
:105800007BFC0220FDF7E6F89DF80C00012340F038
:10581000A1008DF81C0007A8CDE900050022802119
:1058200002943046FDF768FC08B0BDEC028B70BDF9
:10583000713D0AD7A370ED3F0000000084D7B74048
:10584000000000000000F03F000000000000E03F0A
:105850001FB564248DF80C20C2F303228DF80D20AF
:105860008DF80E30C3F303228DF80F20042303AA12
:105870008DE81C00062202EB810201238021FDF746
:105880003BFC1FBD9AB04FF47A7001F0D5F9642348
:10589000052280211148FDF777FA4FF6FF74B0B169
:1058A0000FA16846FAF7E4FD6846FAF74DFF82B2A9
:1058B000234669461148FEF763FF02F037FF19904F
:1058C00000F06EFA0A2119A802F008F9F8E79FED36
:1058D0000C0A0248FFF7EFFE0AA1E2E744080020A5
:1058E0005043413936383520446576696365204E2A
:1058F0006F7420466F756E64210D0A00900A0020B7
:10590000000048425043413936383520496E6974A9
:1059100069616C697A6174696F6E20537563636540
:105920007373210D0A0000002DE9F04FC1B000286B
:105930005ED000295CD000226B4602E0845C9C545F
:10594000521C8A4201DAFF2AF8D34FF0000903F80B
:1059500001900C223BA11846FAF715FF002847D109
:105960003CA16846FAF7BEFEF0B33BA1FAF7FCFF94
:10597000D0BB4C213B48FAF7D0FF0025394C1DE045
:10598000FAF7A2FEC6B2102E32D232A10020FAF7E8
:10599000A9FE48B3FAF798FEC7B2B42F28D82DA1B4
:1059A0000020FAF79FFEF8B1FAF78EFE04F82560A2
:1059B00004EB85016D1C4F704880EDB225A10020DD
:1059C000FAF790FE08B1102DDAD384F84050FDF7B5
:1059D00011F9DFF890B04FF00108606484F8488056
:1059E0000025ABF1100B00E002E0ABF5807A17E088
:1059F000012041B0BDE8F08F04EB850014F825606C
:105A00004778418891B10AEB06101BF80620027016
:105A100047708160616C416080F80C806D1CEDB254
:105A200094F84000A842E7D80020E2E73A46314621
:105A30000D48FFF76DFE0AEB06110BF8067081F8B2
:105A40000C90EBE742415443485F534552564F2C6C
:105A5000000000002C00000042415443485F5345C1
:105A600052564F00F80200204408002030B5A1B083
:105A7000002849D0002947D0802945D200226B4612
:105A800002E0845C9C54521C8A4201DA7F2AF8D3DB
:105A900000205854062229A11846FAF774FE98BB34
:105AA00028A16846FAF71EFE70B327A1FAF75CFF3B
:105AB00050BB24A10020FAF715FE28B3FAF704FE24
:105AC000C4B220A10020FAF70DFEE8B1FAF7FCFD00
:105AD000C5B21CA10020FAF705FEA8B100F0A8FE8F
