:020000040800F2
:10000000285100200103000873310008512B00081B
:100010007131000891170008EB380008000000005B
:100020000000000000000000000000004102000885
:1000300093170008000000009D02000875350008B5
:100040001B0300081B0300081B0300081B03000818
:100050001B0300081B0300081B0300081B03000808
:100060001B0300081B0300081B0300081B030008F8
:100070001B0300081B0300081B0300081B030008E8
:100080001B0300081B0300081B0300081B030008D8
:100090001B0300081B0300081B0300081B030008C8
:1000A0001B0300081B0300081B0300081B030008B8
:1000B0001B0300081B030008353600081B0300085B
:1000C0001B0300081B0300081B0300081B03000898
:1000D0001B0300081B0300081B0300081B03000888
:1000E0001B0300081B0300081B0300081B03000878
:1000F0001B0300081B0300081B0300081B03000868
:100100001B0300081B0300081B0300081B03000857
:100110001B0300081B0300081B0300081B03000847
:100120001B0300081B0300081B0300081B03000837
:100130001B0300081B0300081B0300081B03000827
:100140001B0300081B0300081B0300081B03000817
:100150001B0300081B0300081B0300081B03000807
:100160001B0300081B0300081B0300081B030008F7
:100170001B0300081B0300081B030008000000000D
:100180001B0300081B03000800F002F800F049F808
:100190000AA090E8000C82448344AAF10107DA45E2
:1001A00001D100F03EF8AFF2090EBAE80F0013F0EB
:1001B000010F18BFFB1A43F001031847E05B000072
:1001C000005C0000103A24BF78C878C1FAD8520702
:1001D00024BF30C830C144BF04680C6070470000C1
:1001E0000023002400250026103A28BF78C1FBD840
:1001F000520728BF30C148BF0B607047662905F021
:10020000D084002070471FB505F0C1FC00F0C4FC8D
:1002100004000020002104F0EBFFE0601FBD10B5DA
:1002200010BD00F0B9FD1146FFF7EDFF03F08EFBA6
:1002300000F0D7FD03B4FFF7F2FF03BC00F01AFE95
:100240002C4B19680868B0E8F04F80F30988BFF3B9
:100250006F8F4FF0000080F311887047000000009E
:1002600008480068006880F308884FF0000080F3B9
:10027000148862B661B6BFF34F8FBFF36F8F00DF94
:1002800000BF00BF08ED00E0DFF80C00016841F49A
:1002900070010160704700BF88ED00E0EFF3098056
:1002A000BFF36F8F134B1A681EF0100F08BF20EDBD
:1002B000108A20E9F04F106009B44FF0500080F32D
:1002C0001188BFF34F8FBFF36F8F04F063FA4FF0C5
:1002D000000080F3118809BC19680868B0E8F04F85
:1002E0001EF0100F08BFB0EC108A80F30988BFF32E
:1002F0006F8F704728000020EFF3058070470000E3
:100300000948804709480047FEE7FEE7FEE7FEE7A9
:10031000FEE7FEE7FEE7FEE7FEE7FEE704480549E5
:10032000054A064B70470000253600088901000881
:10033000284B002028510020284D0020284D002067
:1003400053EA020C00F069802DE9F04B4FF00006F3
:10035000002B1FBFB3FA83F503FA05F424FA05F660
:100360005E4012BF1643B2FA82F502FA05F4C5F1F7
:1003700020051EBF22FA05FC44EA0C04203556EA8B
:10038000044C4FEA144418BF641C4FF000084FF0AF
:100390000009904271EB030C39D3002919BFB1FA5F
:1003A00081F701FA07F6B0FA80F700FA07F6C7F10D
:1003B00020071EBF20FA07FC46EA0C062037B6FBD2
:1003C000F4FCA7EB0507103F07F01F0BCBF120064D
:1003D0000CFA0BFB2CFA06F644BFB3460026202F7E
:1003E000A4BF5E464FF0000B5BEA060C08BF4FF05F
:1003F000010B19EB0B09ABFB027C48EB0608C01B99
:1004000006FB02CC0BFB03CC71EB0C01C1E70B46E6
:10041000024641464846BDE8F08B13B54FF0000058
:100420004FF00001AFF30080BDE81C4070470000B2
:100430000FB41CB5084B06AA7B446946009005988A
:1004400000F03DFB04460020694600F04BFB2046CF
:100450001CBC5DF814FB0000A90600002DE9F04764
:100460004FF0000A89460446C0F820A02046E16803
:100470008847002876D0252806D0D4E90121904766
:10048000206A401C2062F1E7E16820460025884789
:10049000C4F81CA006460027C4F818A02A2E09D0CC
:1004A000304603F04BFA38B304EB8708303EC8F807
:1004B000186019E059F8041B204604EB870291618B
:1004C000E1688847012F064618D1E069002820DA44
:1004D00025F020051DE0D8F8180000EB800006EBA1
:1004E00040003038C8F818002046E16888470646C2
:1004F00003F024FA0028EED1012F0AD02E2E08D1C5
:100500002046E16888477F1C0646022F45F02005FB
:10051000C4DBA069002803DA404245F00105A06170
:10052000E80701D025F01005B6B1A6F14100192861
:1005300002D8203645F400654A46314620462560FB
:100540004D46FFF75BFE58B1012806D0ED1D25F0A2
:10055000070000F1080989E704E005F1040985E7CF
:1005600030468AE7206ABDE8F08710B5431C02E0F8
:1005700010F8011B71B18107FAD14FF0013202C8A6
:100580008C1A8C4314EAC211F9D0C01A0A0603D09F
:10059000C01E10BDC01A10BD0A0401D0801E10BDBF
:1005A0000902FCD0401E10BD032A40F2308010F03A
:1005B000030C00F0158011F8013BBCF1020F6244FE
:1005C00098BF11F801CB00F8013B38BF11F8013B8F
:1005D000A2F1040298BF00F801CB38BF00F8013B3C
:1005E00011F0030300F08382083AC0F0088051F84C
:1005F000043B083A51F804CBA0E80810F5E7121DB7
:100600005CBF51F8043B40F8043BAFF30080D207D5
:1006100024BF11F8013B11F801CB48BF11F8012BA1
:1006200024BF00F8013B00F801CB48BF00F8012BC4
:10063000704702F0FF0343EA032242EA024200F05D
:100640008ABA4FF0000200B5134694469646203908
:1006500022BFA0E80C50A0E80C50B1F12001BFF47B
:10066000F7AF090728BFA0E80C5048BF0CC05DF8E1
:1006700004EB890028BF40F8042B08BF704748BF2F
:1006800020F8022B11F0804F18BF00F8012B7047A3
:1006900070477047704770472DE9FF4F0C461E4664
:1006A0004FF0FF378BB0D2E90001DDF860800A908F
:1006B0008A46C1F30A5505B93D46002108464FF068
:1006C0000000BAF1000F00F4400005DA00EB8000F2
:1006D0004FF4400101EA50004FEA9059B9F1010F7F
:1006E00000DDB9460A9850EA4A000ED044F6105090
:1006F000A5F2FF3545432F14B8F1000F1ED0754207
:10070000291E1EDDC9F100021CE0B8F1010F4FF0F7
:10071000000001D0302103E0F24305E02154401CE9
:10072000B042FBDB30460022002121540B99C1F876
:100730000880C1E900200FB0BDE8F08FBD1B6D1C23
:10074000DEE74A4600DA694206A800F0AFFA06ABD7
:1007500093E8070003AB83E8070050460A9900F0CE
:1007600090FB8DE80700A0F500501F38009003981B
:10077000002D0ADD42F21F014A460844002303A966
:100780000390684600F0F9FD09E0A0F500504A46E4
:100790001F38002303A90390684600F003FE8DE88C
:1007A00007000004000C03D04FF0FF30410800E0C8
:1007B0001046B8F1000F03D00022009215461EE04B
:1007C000751E05D400F0ECF9303262556D1EF9D576
:1007D000B3460122084302D000227F1C04E02078A7
:1007E000302801D100227F1E002A099784D01DE005
:1007F000112D07DA00F0D4F9303262556D1C50EA41
:100800000102F5D1084302D00098C8B10EE00021E2
:10081000681E05E0235C625C63542254401E491C40
:100820008142F7DBAB46A81B401E0990002004F86C
:100830000B000B98099AC0F80880C0E9002B7AE7F2
:1008400011264FF0000857E72DE9F04F884604467F
:10085000D21D22F0070191B0D1E90001CDE90A01D2
:1008600003F044F802460B98C00F01D02D2007E09A
:100870002068810701D52B2002E0202101EAC00079
:10088000032A099001D0072A05DB0346414620468A
:1008900000F0CCF90BE12078800601D5E06900E09A
:1008A0000620B8F1650F814606D0B8F1660F18D062
:1008B000B8F1670F70D131E00020B9F1110F00904D
:1008C00001DB112301E009F101030AAA01A90CA827
:1008D000FFF7E2FEDDE90C70002609F10105834611
:1008E00047E001204B4600904FF000470AAA01A9BB
:1008F0000CA8FFF7D1FEDDE90DB00C995D4600268E
:1009000010B909F101000D18B9EB050003D4C0F1CD
:10091000FF3609F10105A5EB09002BE0B9F1010F44
:1009200001DA4FF001090020B9F1110F009048469B
:1009300001DD112300E003460AAA01A90CA8FFF774
:10094000ABFEDDE90C704D4600268346207800079B
:100950000AD4AB4500DA5D4601A8012D04DD41193A
:1009600011F8011C302907D04F4502DA17F1040FA6
:1009700004DA012082460FE06D1EEEE7002F02DC54
:10098000ED1B3E4403E0781CA84200DD7D1CB81B33
:1009900000F1010A4FF000472078000703D4AA4570
:1009A00001DB4FF0FF3A0021B7F1004F0DF1430892
:1009B0008DF8431024D002202B23002F01DA7F4230
:1009C0002D230A21021EA0F1010000DC5FB197FB7C
:1009D000F1FC97FBF1F201FB1C7C17460CF1300C8B
:1009E00008F801CDEEE7A8F10100037021880905A0
:1009F00001D5452100E06521A0F1010800F8011CA6
:100A000009980FA9A1EB0807FF1D00B101204119AA
:100A100001EBEA70A1693844081A401EA0612078F1
:100A2000C00602D42046AFF30080099828B1D4E96B
:100A300001219047206A401C20622078C00622D500
:100A40002046AFF300801EE0002E04DBB34502DD3C
:100A500001A8805D00E03020D4E901219047206AA0
:100A6000401C2062761CAAF101005FEA000A0AD14C
:100A700000F092F8C0680168405CD4E90121904719
:100A8000206A401C2062281EA5F10105DCDC07E07D
:100A9000D4E9012118F8010B9047206A401C20621C
:100AA000381EA7F10107F3DC2046AFF300800320D6
:100AB00011B041E601694A1C02610878704700B52F
:100AC0008FB0CDE901310021059105497944CDE987
:100AD000031011466846FFF7C1FC0FB000BD0000CF
:100AE000E5FFFFFF0A6802F8010B0A60704710B5C6
:100AF000203AC0F00B80B1E81850203AA0E8185016
:100B0000B1E81850A0E81850BFF4F5AF5FEA027CD6
:100B100024BFB1E81850A0E8185044BF18C918C045
:100B2000BDE810405FEA827C24BF51F8043B40F8E6
:100B3000043B08BF7047D20728BF31F8023B48BFCB
:100B400011F8012B28BF20F8023B48BF00F8012B09
:100B500070474FF000020429C0F0128010F0030C1F
:100B60003FF471ADCCF1040CBCF1020F18BF00F8DA
:100B7000012BA8BF20F8022BA1EB0C01FFF763BDEE
:100B80005FEAC17C24BF00F8012B00F8012B48BFAD
:100B900000F8012B7047000000487047E44A00202D
:100BA00030B5B0F10A024FEA900E71F100034EEA3F
:100BB000817EB0EB0E0061EB91014FEA101E4EEA10
:100BC000017E10EB0E0041EB11114FEA102E4EEAA0
:100BD000016E10EB0E0041EB11214FEA104E4EEA70
:100BE000014E10EB0E0041EB1141401841F10001A4
:100BF0004FEAD00040EA41704FEAD10110EB800586
:100C00004FEA810444EA907444EB01046D1944EB0B
:100C10000404521BA3414FF0000348BF0A3200D521
:100C200030BD401C41F1000130BD00002DE9F04114
:100C30001F46044603260168072A01F4006004DB0E
:100C400008B116A505E016A503E008B115A500E05A
:100C500015A521F010002060A069C01EA0610FB191
:100C6000401EA0612046AFF300804FB1D4E90121BE
:100C700038469047206A401C2062C01C206206E073
:100C8000206AFAE7D4E9012115F8010B9047761E96
:100C9000F8D22046AFF30080BDE8F0814E414E000F
:100CA0006E616E00494E4600696E66002DE9F047A0
:100CB000814616468AB0354878440DC88DE80D0047
:100CC00032487844801C03AC0DC884E80D0041F61E
:100CD0009B300844372190FBF1F290FBF1F5A5F130
:100CE000800501FB12041B3C02D56442012000E098
:100CF0000020DFF898A080460027FA44AAF1BE0A37
:100D00000EE0E0070AD03246684607EB47010123B0
:100D10000AEB810100F046FB8DE8070064107F1CA0
:100D2000002CEED1194F7F44AE3F19E0E80715D0F3
:100D300007EB04100DF1180A90E80E008AE80E0087
:100D4000C068F04201D1981908903246012306A9E3
:100D500003A800F027FB03AB83E807006D10641CB9
:100D6000002DE3D14FF0010332466946B8F1000F80
:100D700003A802D000F001FB01E000F013FBC9E979
:100D80000001C9F808200AB0BDE8F087345000001F
:100D900000487047C44A00207546FFF7F9FFAE4689
:100DA00005006946534620F00700854618B020B577
:100DB000FFF7B4FABDE820404FF000064FF00007FF
:100DC0004FF000084FF0000B21F00701AC46ACE8F3
:100DD000C009ACE8C009ACE8C009ACE8C0098D4660
:100DE000704710B50446AFF300802046BDE81040C0
:100DF000FFF720BA4FF0013C50F8042B51F8043BA8
:100E00009A4221D1A2EB0C03934313EACC1317D1DE
:100E100050F8042B51F8043B9A4215D1A2EB0C0375
:100E2000934313EACC130BD150F8042B51F8043B35
:100E30009A4209D1A2EB0C03934313EACC13DBD003
:100E40004FF00000704700BFD01A01BAB1FA81F12B
:100E500001F0180122FA01F0CB40C1F12001DBB210
:100E6000C0B2C01A2CFA01F3D11A914311EAC3118E
:100E7000E6D1704701491820ABBEFEE7260002000C
:100E800070475FEA400C08BF91F0000F4FEA8C23D7
:100E90004FEAC12243EA51514FEA1C5018BF00F5F6
:100EA000F0404FEA300018BF41F000415FEA6C5C4F
:100EB00000F02980BCF1FF3F08BF40F08040704740
:100EC000130C06BF12044FF0100C4FF0000C130E61
:100ED00004BF12020CF1080C130F04BF12010CF135
:100EE000040C930F04BF92000CF1020CD30F04BF4B
:100EF00052000CF1010C11464FF00002A0F11F004E
:100F0000A0EB0C00704711F0004F08BF704731F0A4
:100F100000413FF4D5AF0B0C06BF09044FF0100C95
:100F20004FF0000C0B0E04BF09020CF1080C0B0F64
:100F300004BF09010CF1040C8B0F04BF89000CF1F4
:100F4000020CCB0F04BF49000CF1010CCCF12003C3
:100F5000A0EB0C0022FA03F302FA0CF241EA0301BF
:100F600000F10100704720F07F4C80EA030023F07D
:100F70007F47ACEB070303F57C5300F0004003F11F
:100F8000FF032DE980494FEA154B09B44FEA14439A
:100F900025EA0B4E24EA03480FF2042606EB13273A
:100FA00049083E785FEA320203FB0667C7F500078F
:100FB00007FB06F64FEA54374FEAD64606F102061B
:100FC00007FB066CCCF1005C4FEA1C472CEA074C8F
:100FD00007FB06F40CFB06F504EB15464FEA9616E4
:100FE00034BF00204FF000404FEAD13706FB07FC2A
:100FF0004FEA1C4C0CFB0BF7D21B03FB0CF761EB0D
:1010000007010CFB0EF7B0EB074072EB17420CFB2D
:1010100008F734BFA2EB0742B2EB074261EB17417E
:101020004FEA0C444FEA910706FB07FC4FEA1C4CC1
:101030000CFB0BF7B0EBC74072EB573203FB0CF71E
:1010400034BFA2EBC742B2EBC74261EB57310CFB96
:101050000EF7B0EBC70072EB57720CFB08F734BF0A
:10106000A2EBC702B2EBC70261EB5771039F4FEAD5
:10107000816141EA921104EBCC044FEAD1374FEA87
:10108000826206FB07FC42EA90124FEA80604FEA58
:101090001C4C0CFB0BF7D21B03FB0CF761EB07019D
:1010A0000CFB0EF7B0EB074072EB17420CFB08F796
:1010B00034BFA2EB0742B2EB074261EB17414FEAA4
:1010C0008C554FEA910704EB9C2406FB07FC4FEA82
:1010D0001C4C0CFB0BF7B0EBC74072EB573203FB19
:1010E0000CF734BFA2EBC742B2EBC74261EB5731FA
:1010F0000CFB0EF7B0EBC70072EB57720CFB08F756
:1011000034BFA2EBC702B2EBC70261EB577115EB1C
:101110004C254FEA816141EA92114FEA82624FEA1F
:10112000D13742EA901206FB07FC44F100044FEA73
:1011300080604FEA1C4C0CFB0BF7D21B03FB0CF737
:1011400061EB07010CFB0EF7B0EB074072EB1742A7
:101150000CFB08F734BFA2EB0742B2EB074261EB8E
:10116000174115EB1C154FEA813141EA92414FEAD4
:10117000823242EA90424FEA80304FEA0C7644F1E4
:10118000000448EA03434EEA0B484FF0000EB2EB6E
:10119000080C71EB030724BF624639464EEB0E0E76
:1011A0004FF0000B0018524149414BEB0B0BB2EBD7
:1011B000080C71EB03077BF1000B24BF6246394634
:1011C0004EEB0E0E4FF0000B0018524149414BEB15
:1011D0000B0BB2EB080C71EB03077BF1000B24BF88
:1011E000624639464EEB0E0E51EA020718BF46F032
:1011F000010616EB0E7655F1000254F1000103D5FD
:10120000BDE88901BDE80088BDE88901BDE8004866
:10121000B619524141EB0101A3F1010370478080EF
:101220007F7E7D7C7B7A7978777676757473727140
:1012300071706F6E6E6D6C6C6B6A6A6968686766F8
:1012400066656464636362616160605F5F5E5E5D8A
:101250005D5C5C5B5B5A5A595958585757565655FE
:1012600055555454535352525251515050504F4F60
:101270004F4E4E4D4D4D4C4C4C4B4B4B4A4A4A49B0
:1012800049494848484747474746464645454544F3
:101290004444444343434342424242414141002B80
:1012A0009C4630D477002BD01CB54FEA370703B4E7
:1012B0004FF010004FF01001BAF1000F06D0BCF152
:1012C000000FDCBF40F0080040F008014FF00000C4
:1012D0000FBCBDE810400BF1010BBBF1010F08BFC3
:1012E0005FEA170722BF12F1010211F101014FF06D
:1012F000004143F1000300F0004043EA0000704762
:10130000F9D35708D0E746EA064613F1400F4FEAF3
:1013100016461FDD13F1200FDFBF16430A460021DA
:1013200020335B42BED0C3F1200746EA064602FAEC
:1013300007F74FEA164646EA0706C3F1200722FAE6
:1013400003F201FA07F721FA03F14FF0000342EA32
:101350000702A7E746EA020646EA06464FEA1646AD
:1013600046EA0106BCBF46EA0646360C4FF00003CB
:101370004FF000024FF0000194E72DE9804C9A46AF
:10138000934670B491E8380007C831EA400C48BF72
:1013900034EA430C03D5FFF7E6FDFFF780FFF0BC0E
:1013A000BDE8008C2DE9804C9A46934670B491E8D4
:1013B000380007C810F0804F08BF13F0804F03D1EA
:1013C00000F005F8FFF76BFFF0BCBDE8008C20F0E3
:1013D0007F4780EA030023F07F4C07EB0C03A3F563
:1013E0007C5300F00040A3F1FE0392F0000F00F0E8
:1013F000B38095F0000F00F077802DE901494FEAA6
:1014000011404FEA144621EA004800FB06FC24EA9A
:10141000064708FB06F607FB08F800FB07F718EB82
:1014200006484CEB164C4FEA124B18EB07484FEAB4
:1014300015464CEB174022EA0B4E0BFB06FC25EA47
:1014400006470EFB06F607FB0EFE0BFB07F71EEB2F
:10145000064E4CEB164C4FF000061EEB074E4CEBC5
:10146000174B18EB0B0840F1000018EB0E0B58EB74
:10147000000840F100008F1A4FF000013CBFC94343
:10148000661B14BFB5EB040C00213CBFC943F61B1F
:101490004FEA17444EEA8E0E27EA04454FEA1C47EE
:1014A00004FB07622CEA074C05FB07F70CFB05F66B
:1014B00004FB0CFC16EB074642EB174216EB0C46FE
:1014C00042EB1C421BEB060658EB0202414146EA86
:1014D0009E0601D5BDE80189B619524141EB0101D3
:1014E000A3F10103BDE801894FEA14454FEA114712
:1014F00024EA054621EA074C05FB07F406FB07F73B
:101500000CFB06F105FB0CFC11EB074144EB174407
:101510004FEA124711EB0C4144EB1C4422EA074C02
:1015200005FB07F206FB07F70CFB06F605FB0CFCB8
:1015300016EB074642EB174216EB0C4642EB1C45F6
:101540006A1854F1000148BF7047B619524141EB87
:101550000101A3F10103704795F0000F37D04FEA66
:1015600011424FEA144721EA024624EA074C02FBE3
:1015700007F106FB07F70CFB06F402FB0CFC14EB6F
:10158000074441EB17414FEA154714EB0C4441EB7C
:101590001C4125EA074C02FB07F506FB07F70CFB8D
:1015A00006F602FB0CFC16EB074645EB174516EB5F
:1015B0000C4645EB1C42121951F1000148BF70471F
:1015C000B619524141EB0101A3F1010370474FEA03
:1015D00014454FEA114724EA054621EA074C05FB6A
:1015E00007F106FB07F70CFB06F24FF0000605FBC0
:1015F0000CFC12EB074241EB174112EB0C4251EB92
:101600001C4148BF7047921841EB0101A3F101034F
:1016100070470000F0B585B0074601251648CDE9B2
:10162000000564242B466B22D0210294384600F03A
:1016300047FCF0B9642000F0B1F803A8CDE900053B
:1016400000268DF80C6001231C22D021029438461C
:1016500000F036FC68B904A8CDE900058DF81060EB
:1016600001231B22D0210294384600F029FC0028D7
:1016700000D0012005B0F0BD0000002010B50C46E0
:1016800000F05CF8002850D1B4F9000000EE100A18
:10169000F8EEC00A9FED250A60EE800AC4ED040A48
:1016A000B4F9020000EE900AF8EEE00A60EE800A5B
:1016B000C4ED050AB4F9040000EE900AF8EEE00A61
:1016C00020EE800A84ED060AB4F9060000EE100A46
:1016D000F8EEC00A9FED160A80EE801A84ED071A14
:1016E000B4F9080000EE900AF8EEE00A80EE801AE5
:1016F00084ED081AB4F90A0000EE900AF8EEE00A48
:1017000080EE801A84ED091AB4F90C009FED091AD5
:1017100000EE100A0020B8EEC00AC0EE010A9FEDEC
:10172000060A30EE800A84ED0A0A10BD00008038F7
:10173000000003430000AA43B81E12423EB50D4606
:10174000124C64210E220094CDE9012101233B2299
:10175000D12100F0B3FA08B101203EBD208840BA83
:101760002880608840BA6880A08840BAA880E08855
:1017700040BAA881208940BAE880608940BA2881AF
:10178000A08940BA688100203EBD0000A80000206A
:10179000FEE77047012002F045F9FBE770B504460B
:1017A00000F00CF90546601C02D00448007804449F
:1017B00000F004F9401BA042FAD370BD18000020CD
:1017C0002DE9F84FDFF8BCA10022012503264FF0D8
:1017D0000F090AF1040BAAF1040E00BF0B6805FA09
:1017E00002F42340A34270D10F7907F00307012FC1
:1017F00001D0022F16D187684FEA420806FA08FC8A
:1018000027EA0C07D1F80CC00CFA08FC4CEA070CCC
:10181000C0F808C04768A7430C79C4F3001494408B
:101820003C4344600C79E443A4070AD0C4684FEAFF
:10183000420C06FA0CF7BC438F6807FA0CF72743F3
:10184000C7600C7904F00304022C12D1D40800EB19
:10185000840CDCF820405707FF0E09FA07F824EA49
:101860000804D1F8108008FA07F848EA0408CCF810
:10187000208004684FEA420C06FA0CF7BC430F794B
:1018800007F0030707FA0CF7274307604C6814F4C6
:10189000403F70D03C4C276847F48047276024685D
:1018A00022F0030704F480440094384C07EB040C46
:1018B000DCF8084897074FEA177809FA08F7BC439D
:1018C000334FB84202D1002724E054E0314FB842F0
:1018D00001D101271EE0304FB84201D1022719E0A3
:1018E0002E4FB84201D1032714E02D4FB84201D149
:1018F00004270FE02B4FB84201D105270AE02A4FF9
:10190000B84201D1062705E0284FB84201D1072788
:1019100000E0082707FA08F72743CCF80878DAF838
:1019200000405746D1F804C09C435FEACC2C00D558
:101930001C433C60DBF800405F46D1F804C09C4388
:101940005FEA8C2C00D51C433C60DEF800407746F3
:10195000D1F804C09C435FEA8C3C00D51C433C603A
:10196000084F083F3C68D1F804C09C435FEACC3C78
:1019700000D51C433C60521C102AFFF42FAFBDE879
:10198000F88F0000083C014044380240003001401C
:10199000000002400004024000080240000C024027
:1019A000001002400014024000180240001C0240D7
:1019B0000AB1816170470904FBE7000001488068B3
:1019C000704700001800002070B5040025D094F87E
:1019D0003D00002520B984F83C50204600F008FB6B
:1019E000242084F83D002068016821F00101016095
:1019F0002068016841F4004101602068016821F419
:101A00000041016000F0CEFC4D4A6168914201D86E
:101A10004C4900E04C49884201D2012070BD4B493D
:101A20002368B0FBF1F15E6826F03F060E435E606E
:101A30006368934206D94FF4967359434FF47A730F
:101A4000B1FBF3F12368491C1E6A26F03F063143BF
:101A500019626168914210D84900401EB0FBF1F252
:101A6000521CC2F30B02042A01D2042022E0B0FB74
:101A7000F1F0401CC0F30B001CE0A268F2B301EBD4
:101A8000C10303EB0116431EB3FBF6F35B1C43F4E7
:101A900080431B0549D092B301EBC10202EB011157
:101AA000401EB0FBF1F0401CC0F30B0040F480403E
:101AB00040F400402168CA694CF6FF739A43104312
:101AC000C861D4E9071001432068026822F0C0020F
:101AD00011430160D4E9030101432068826848F2A0
:101AE000FF339A4311438160D4E90501084321681B
:101AF000CA6822F0FF021043C86001E00EE016E061
:101B00002068016841F0010101602564202084F80B
:101B10003D00256384F83E50002070BD01EB410676
:101B2000431EB3FBF6F35B1CB3E70120C2E701EBF6
:101B30004101401EB0FBF1F0401CC0F30B00B7E7C1
:101B4000A086010080841E0000093D0040420F0075
:101B50002DE9FF4F81B089460446FFF72FFF054668
:101B600094F83D004FF0000820287DD11923012270
:101B700050492046009501F001F9002874D194F8ED
:101B80003C00012870D0012084F83C0020680168E6
:101B9000C90703D1016841F00101016020680168B3
:101BA00021F400610160242084F83D0000262664B1
:101BB0004148E0624FF0011B20272068016841F492
:101BC000807101600095002259462046049B01F077
:101BD000D5F850B120680068C00502D54FF40070F8
:101BE0002064032005B0BDE8F08F216809F0FE00F5
:101BF0000861FFF7E3FE2168054648694969C0F3BB
:101C00004000C1F380214FF0A00A0FE0FFF7D6FE9D
:101C1000411B0498814200D808B984F83DA021688E
:101C200048694969C0F34000C1F3802194F83D2020
:101C3000A02A02D008B90029E8D084F83D702068B5
:101C40004169C943890716D4016841F400710160F4
:101C500020684169806919230122164920460095B0
:101C600001F08CF8B8B900E021E084F83D7084F808
:101C70003C600020B6E7016841F400710160216812
:101C80006FF480604861192301220A4920460095BB
:101C900001F074F808B10120A4E7039808F10108E5
:101CA00080458AD384F83D7084F83C60F3E70220D5
:101CB00098E70000020010000000FFFF2DE9FF4F31
:101CC00083B09A46DDE9118793460446DDF84090DB
:101CD000FFF774FE054694F83D00202870D11923C3
:101CE000012274492046009501F048F80028F5D1FA
:101CF00094F83C00012863D0012084F83C0020685F
:101D00000168C90703D1016841F001010160206841
:101D1000016821F400610160222084F83D00402028
:101D200084F83E0000262664C4F82490A4F82A8093
:101D3000608D20856048E062CDE9007553465A46C3
:101D40002046049900F01CFF002879D1208DD0B1E5
:101D5000012821D00228206824D0416980690090A0
:101D6000208D032866D801282BD0544902283B46F1
:101D70004FF00002009557D08846204600F0FEFF45
:101D800000285DD13AE020684169816900910168CD
:101D900041F4007101607DE02068016821F48061F8
:101DA0000160F0E7016821F480610160206801684A
:101DB00041F400610160206841698069009069E038
:101DC00075E02A463946204601F07EF888BB54E08B
:101DD0002068016841F40071016020680069616A4F
:101DE0000870606A401C6062218D491E2185618DEA
:101DF000491E618521680969017042E02068016817
:101E000021F48061016020680069616A0870606A7D
:101E1000401C6062208D401E2085608D401E6085C4
:101E20003B46002241460095204600F0A7FF00B93E
:101E3000CEE705E02A463946204601F045F818B1BC
:101E4000012007B0BDE8F08F20680069616A087062
:101E5000606A401C6062208D401E81B22185608DC9
:101E6000401E608520684269D243520712D403297C
:101E700003D1016821F48061016020680069616A12
:101E80000870606A401C6062208D401E2085608D55
:101E9000401E6085208D00287FF462AF202084F8EA
:101EA0003D0084F83E6084F83C600020C9E70220D1
:101EB000C7E70000020010000000FFFF040001005F
:101EC0002DE9FF4F83B09A46DDE91197934604460A
:101ED000DDF84080FFF772FD054694F83D002028AC
:101EE0007FD11923012240492046009500F046FF8A
:101EF000002876D194F83C00012872D0012084F8A3
:101F00003C0020680168C90703D1016841F0010164
:101F100001602068016821F400610160212084F8DB
:101F20003D00402084F83E0000262664C4F824804A
:101F3000A4F82A90608D20852C48E062CDE90075D8
:101F400053465A462046049900F098FE70B930E096
:101F50002A463946204600F0EFFF58B1206C04288D
:101F600004D12068016841F400710160012007B0CC
:101F7000BDE8F08F606A216800780861606A401CE3
:101F80006062218D491E89B22185628D521E628553
:101F900022685369DB435B070BD469B10078106199
:101FA000606A401C6062208D401E2085608D401E4E
:101FB0006085208D0028CBD12A463946204600F086
:101FC000B1FE0028CAD154F83D0B016841F40071FC
:101FD0000160202004F81E09E67766770020C6E736
:101FE000FFE70220C3E70000020010000000FFFF2F
:101FF000F0B587B0044614216846FEF722FB276837
:10200000234CDFF888C0002221491223032504262F
:1020100020481034674518D10F6847F002070F6059
:10202000096802AF01F002010591C021CDE900135A
:1020300087E864006946FFF7C3FB206840F400109E
:102040002060206800F400101CE0DFF84CC06745F9
:1020500019D10F6847F002070F60096802AF01F05D
:10206000020105914FF44061CDE9001387E8640057
:102070006946FFF7A5FB206840F4800020602068D7
:1020800000F48000059007B0F0BD0000005400404F
:102090003038024000040240005800400248816885
:1020A0000278114481607047180000200B4810B579
:1020B000016841F400710160016841F480610160D0
:1020C000016841F480710160032000F09FF80F2047
:1020D00000F006F800F050F8002010BD003C02406F
:1020E00030B505461F4887B00024016841F004015F
:1020F0000160006806A900F00400009001A800F04B
:1021000031F90498A8B100F04DF940001649174A7A
:10211000B0FBF1F11648491E026040F2E732C0E917
:102120000324C0E90114846100F046FB040003D0DD
:1021300015E000F037F9E9E70D4800F06BFB04000B
:102140000DD11E2000F034F8102D07D200222946B0
:102150001E2000F03BF80748056000E0012407B0AE
:10216000204630BD4038024040420F000008004089
:10217000A80100201C0000200C4882B0016841F436
:1021800080410160006800F4804000900748001F13
:10219000016841F0805101600068002200F0805029
:1021A00000900F21901E02B000F010B84438024099
:1021B000002809DB00F01F02012191404009800046
:1021C00000F1E020C0F8001170470000F0B40E4BA1
:1021D0001B680C46C3F30223C3F10705042D00D985
:1021E0000425191D072901D2002300E0DB1E01266A
:1021F00006FA05F1491E214099409E40761E164080
:102200003143F0BC01F08ABB0CED00E0064900F060
:10221000070208684FF6FF03184040EA0220034A0D
:1022200010430860704700000CED00E00000FA0564
:102230002DE9F0470E46050065D0DFF81481D8F887
:102240000000F7B200F00700B04207D288F8007033
:10225000D8F8000000F00700B04254D128683D4C87
:10226000810712D5400703D5206840F4E050206074
:102270002878000703D5206840F46040206020687B
:10228000A96820F0F000084320602878C0072DD00E
:10229000304968680839012812D0022813D0032871
:1022A00011D00968890700292DDA216821F003017E
:1022B00001432160FFF782FB814641F2883A0EE03C
:1022C00009688903EFE709688901ECE7FFF776FB06
:1022D000A0EB0901514502D90320BDE8F087206831
:1022E000696800F00C00B0EB810FEFD1D8F8001056
:1022F000404601F00701B14207D90770006800F0BD
:102300000700B04201D00120E7E72878400705D553
:102310002068E96820F4E05008432060287800072E
:1023200006D52068296920F4604040EAC100206099
:1023300000F058F82168084AC1F30311515CC84005
:102340000649086006480068FFF7CAFE0020C4E797
:10235000003C0240083802405C5C00082400002079
:102360001C0000200F2202600C4A136803F00303D4
:102370004360136803F0F0038360136803F4E053D1
:10238000C36012684FF4E05303EAD20202610448CA
:10239000006800F00700086070470000083802403D
:1023A000003C02400448054900680968044AC1F33A
:1023B0008221515CC8407047240000200838024048
:1023C0006C5C00080448054900680968044AC1F3C8
:1023D0004231515CC8407047240000200838024058
:1023E0006C5C0008154810B5006810F00C02144829
:1023F00013D01449042A0FD0082A0ED10F4C241FE1
:102400002268236802F03F025B0207D52068C0F310
:102410008810A0FB010106E0084610BD2168C1F349
:102420008811A1FB00010023FDF78AFF2168C1F399
:102430000141491C4900B0FBF1F010BD08380240D1
:102440000024F40040787D012DE9F84F04006ED09F
:102450002078DFF84C93C007A9F104054AD009F1B0
:1024600004000168C1F38101012908D00068C0F3AC
:10247000810002280AD1D9F80000400206D5286858
:10248000800337D560680028E1D033E06068B0F59C
:10249000803F10D0B0F5A02F286810D020F48030F5
:1024A0002860286820F4802028606068A8B1FFF7C1
:1024B00085FA06460DE0286840F48030F4E740F4E1
:1024C00080202860F7E700BFFFF778FA801B6428B8
:1024D00073D828688003F7D50CE0FFF76FFA06463B
:1024E00005E000BFFFF76AFA801B6428F0D828686F
:1024F0008003F7D42078DFF8AC8280074FF0000A21
:102500003ED5A748001D016811F00C0F08D00068E7
:10251000C0F3810002280BD1D9F80000400207D493
:102520002868800716D5E068012800D112E033E161
:10253000E068B8B10120C8F80000FFF73FFA06468E
:1025400005E000BFFFF73AFA801B0228C0D82868D0
:102550008007F7D52868216920F0F80040EAC1001B
:1025600028600DE0C8F800A0FFF728FA064604E04E
:10257000FFF724FA801B02281FD828688007F7D4A9
:102580002078000722D5864F87486169703771B17E
:1025900001210160FFF712FA064604E0FFF70EFA88
:1025A000801B022809D838688007F7D50EE0C0F8EC
:1025B00000A0FFF703FA064605E082E0FFF7FEF908
:1025C000801B02287DD838688007F7D42078400720
:1025D00068D5DFF8CCB100270BF13C0BDBF800002D
:1025E000C0000BD4DBF8001041F08051CBF8001094
:1025F000DBF80000012700F0805000906B4E30683F
:10260000C00510D4306840F480703060FFF7D6F910
:10261000009005E0FFF7D2F90099401A022850D83F
:102620003068C005F6D55E4EA0686C3601280FD024
:102630000528306810D020F001003060306820F0AC
:1026400004003060A068B8B1FFF7B8F900900FE05F
:10265000306840F00100F4E740F004003060F7E734
:10266000FFF7ACF90099411A41F28830814266D8EF
:1026700030688007F4D50EE0FFF7A0F9009007E07E
:10268000FFF79CF90099411A41F28830814256D8EF
:1026900030688007F4D42FB1DBF8001021F08051AE
:1026A000CBF80010A069C8B33D49091D0968C1F302
:1026B000810102294AD00228504607D0C8F860009C
:1026C00000E03CE0FFF77AF904463BE04746C8F8F3
:1026D0006000FFF773F9064605E000BFFFF76EF9EB
:1026E000801B02282BD828688001F7D4D4E9070181
:1026F0000843A16A2E4A490802EB0141626A41EA95
:102700008211084394F82C1040EA0161C9F80010C6
:1027100001203866FFF752F9044606E03EE000BFAC
:10272000FFF74CF9001B022809D828688001F7D56B
:1027300034E000BFFFF742F9001B022802D9032052
:10274000BDE8F88F28688001F4D427E00128F7D08D
:10275000D9F80000E26900F4800191421CD1226A9C
:1027600000F03F01914217D147F6C071626A014003
:10277000B1EB821F10D1A26A4FF0FF3300F4403159
:1027800003EB5202B1EB024F06D194F82C1000F08B
:102790007060B0EB016F01D00120D1E70020CFE7DE
:1027A0000438024000004742800E4742007000405B
:1027B0000000FFFF7047704710B5040003D094F885
:1027C0003D0010B107E0012010BD002084F83C005E
:1027D000204600F01EF8022084F83D00211D2068EC
:1027E00000F02EFF012084F8460084F83E0084F8B3
:1027F0003F0084F8400084F8410084F8420084F8E7
:10280000430084F8440084F8450084F83D0000202B
:1028100010BD704790F83D10012901D0012070478C
:10282000022180F83D100168CA6842F00102CA60C6
:1028300000681149884214D0B0F1804F11D00F497F
:1028400088420ED00E4988420BD00E49884208D0EB
:102850000D49884205D00D49884202D00C49884272
:1028600004D1816801F00701062903D0016841F015
:102870000101016000207047000001400004004099
:1028800000080040000C00400004014000400140EE
:102890000018004070472DE9F04104460068C66802
:1028A00005694FF00007A90713D5B10711D5F91E27
:1028B000016101202077206880698007204602D0CE
:1028C000FFF7E8FF04E000F07EF8204600F07CF817
:1028D0002777680716D5700714D521686FF00400B4
:1028E0000861022020772068806910F4407F20462C
:1028F00002D0FFF7CFFF04E000F065F8204600F0BB
:1029000063F82777280715D5300713D521686FF0AE
:1029100008000861042020772068C06980072046ED
:1029200002D0FFF7B7FF04E000F04DF8204600F0BA
:102930004BF82777E80616D5F00614D521686FF016
:1029400010000861082020772068C06910F4407FDB
:10295000204602D0FFF79EFF04E000F034F8204646
:1029600000F032F82777E80708D0F00706D0216892
:102970006FF001000861204600F028F8280608D50D
:10298000300606D521686FF0800008612046FFF709
:1029900011FF680608D5700606D521686FF0400063
:1029A0000861204600F01CF8A8060AD5B00608D534
:1029B00021686FF0200008612046BDE8F041FFF774
:1029C000FABEBDE8F0817047704700000068034917
:1029D000884201D1FFF762BB704700000008004049
:1029E000704770B5040004D094F84100002510B180
:1029F00006E0012070BD84F84050204600F024F825
:102A0000242084F841002068C16821F40051C1608D
:102A1000204600F0A5FE2068016921F49041016183
:102A20002068416921F02A0141612068C16841F4B0
:102A30000051C1606564202084F8410084F84200A0
:102A40006563002070BD000010B586B004461421F7
:102A50006846FDF7F6FD1349206888421FD11248E9
:102A60000021026842F400220260006800F40020A5
:102A700005900D481038026842F0010202600068BB
:102A8000022200F0010005900320CDE90210CDE9FB
:102A900000020820049069460448FEF791FE06B043
:102AA00010BD0000004C00404038024000000240D1
:102AB0002DE9F843044690F84100984616460D4625
:102AC000202802D00220BDE8F88385B17EB1002025
:102AD0006064212084F84100FEF770FFA6848146DF
:102AE000E684A0682027B0F5805F02D003E00120D3
:102AF000E9E7206910B12E4600250EE000260CE023
:102B00008021204600F0B8FEA8B9C6B116F8010B26
:102B100021684860E08C401EE084E08C4B464FF01A
:102B20000002CDF800800028EAD14FF04001204695
:102B300000F0A2FE40B184F841700320C3E735F8ED
:102B4000020BC0F30800E3E784F841700020BAE705
:102B5000FEE701684A69D24352050FD46FF48062E0
:102B60004A61002140F8301F2022427381730269BC
:102B700042F0040202610173012070470020704797
:102B80002DE9F84F0446006889460B9D0168984678
:102B9000174641F4806101602068016841F480714A
:102BA000016000954FF0011B0022594620460A9B08
:102BB00000F0E4F84FF4007A40B120680068C005E6
:102BC00001D5C4F840A00320BDE8F88F216809F0C2
:102BD000FE0008612B46284920460A9A00F016F9A3
:102BE000F0BB20684169806900902A4620460A9916
:102BF00000F0A2F940B1206C04283AD120680168A5
:102C000041F40071016034E0FEB2B8F1010F09D067
:102C10002168380A08612A4620460A9900F08CF992
:102C20000028E8D1206806612A4620460A9900F06B
:102C300083F90028DFD12068016841F480710160C8
:102C400000950022594620460A9B00F097F800287C
:102C5000B3D1216809F0FF0040F00100086100E0F5
:102C600007E02B46044920460A9A00F0CFF80028D6
:102C7000AAD00120A8E70000020001002DE9F843D6
:102C8000044600680D46DDE9089701689846164637
:102C900041F4807101604B4600224FF00111204643
:102CA000009700F06BF848B120680068C00502D5B5
:102CB0004FF4007020640320BDE8F883216805F01C
:102CC000FE0008613B464A461549204600F09EF842
:102CD00088B920684169806900903A464946204693
:102CE00000F02AF948B1206C042804D1206801685A
:102CF00041F4007101600120DEE7F5B2B8F1010F87
:102D000009D02168300A08613A464946204600F059
:102D100013F90028E7D1206805610020CCE7000006
:102D20000200010070B516460D4604461EE020461E
:102D3000FFF70FFF08B1012070BD681C16D0FEF729
:102D40003DFE801BA84200D885B920684069C04379
:102D500040070BD5002044F8300F20216173A07389
:102D6000216941F0200121612073E4E72068406976
:102D7000C0434007DBD4002070BD00002DE9F047C0
:102D8000984617460D460446C1F30746DDF82090E5
:102D90002AE000BFB8F1FF3F26D0FEF70FFEA0EB00
:102DA0000901414502D8B8F1000F1DD12068012E5C
:102DB00016D0806925EA00000004000C12D0002023
:102DC000B84211D1002044F8300F20216173A07364
:102DD000216941F02001216120730120BDE8F087C5
:102DE0004069E7E70120EBE72068012E0AD08069FF
:102DF00025EA00000004000C06D00020B842C9D02B
:102E00000020EBE74069F3E70120F7E72DE9F04701
:102E1000984616460D4604464FF000094FF0200A2A
:102E2000C1F3074723E020684069C043400515D43B
:102E30002068016841F40071016021686FF48060CE
:102E40004861C4F8309084F83DA084F83E90216C2D
:102E500041F00401216484F83C9021E0701C06D00C
:102E6000FEF7ACFDA0EB0800B04203D816B1012F6D
:102E70001FD021E02068012F15D0806925EA0000CD
:102E80000004000C18D000BF44F8309F84F80DA057
:102E900084F80E90216941F02001216184F80C90A2
:102EA0000120BDE8F087406925EA00000004000C1D
:102EB000EAD12068406901E02068806925EA0000C5
:102EC0000004000CAFD1ECE72DE9F041002590465D
:102ED0000E460446202728E04069C043C0060CD4B3
:102EE00054F8301B6FF01000486144F810596777B0
:102EF000A577206A2062257714E0FEF75FFDA0EB3E
:102F00000800B04200D886B920684069C043400636
:102F10000BD544F8305F6773A573206940F020003B
:102F2000206125730120BDE8F08120684169C94313
:102F30004906D1D40020F6E770B516460D46044682
:102F40001EE02046FFF705FE08B1012070BD681C99
:102F500016D0FEF733FD801BA84200D885B9206843
:102F60004069C04300060BD5002044F8300F2021F3
:102F70006173A073216941F0200121612073E4E7AE
:102F800020684069C0430006DBD4002070BD00000B
:102F9000B0B04FF47A7000F045FD3248FEF73AFBCE
:102FA00008B131A100E039A10CA8FDF741FA0CA845
:102FB000FDF7DBFA82B22B484FF6FF730CA9A8305D
:102FC000FFF776FD25A92748FEF758FB98B138A1F1
:102FD0000CA8FDF72DFA0CA8FDF7C7FA82B221481C
:102FE0004FF6FF730CA9A830FFF762FD4FF47A701B
:102FF00000F018FDE6E72F9802F058FD06460F4650
:103000002E9802F053FD04460D462D9802F04EFD19
:10301000CDE902012C9802F049FDCDE900012B9881
:1030200002F044FD82468B462A9802F03FFD80461E
:103030008946299802F03AFD41EC100B08A853ECA0
:10304000102B80E8F000DDE90201CDE90601DDE9A1
:103050000001CDE904018DE8000F1B490CA8FDF724
:10306000E7F9C3E7B80000204D5055363035302021
:10307000496E697469616C697A6174696F6E204622
:1030800061696C6564210D0A000000004D505536E1
:1030900030353020496E697469616C697A61746990
:1030A0006F6E2053756363657373210D0A00000012
:1030B0004D5055363035302052656164204572726E
:1030C0006F72210D0A000000085D000870B586B01F
:1030D00014216846FDF7B5FA16480024016841F04E
:1030E00080010160016801F080010591016841F0F3
:1030F00001010160016801F001010591016841F0E1
:103100000201016000680C4E00F002004FF480558F
:103110000590002229463046FEF74AFC0120009522
:10312000CDE90104694630460394FEF749FB06B039
:1031300070BD000030380240000402400B4810B55A
:10314000094901604FF4E1314160002181600C22A6
:10315000C160C0E904128161C161FFF742FC00282F
:1031600001D072B6FEE710BD004C004060010020A7
:10317000FEE7FEE730B505462DED028B85B0002059
:103180008DF80C000121642203A88DE807000B468E
:10319000B0EE408A002280212846FEF791FEB0EE74
:1031A000480A284600F098F8002400231A462146D1
:1031B000284600F019F9641CE4B2102CF5D34FF442
:1031C000FA70FEF7EBFA05B0BDEC028B30BD0000E3
:1031D0002DE9F0471D462DED028B88460A9E81465B
:1031E0000A2E1ED2DFE806F01D0507090B0E11148A
:1031F000171A642417E0822415E0AA2413E04FF480
:10320000967410E04FF4C8740DE04FF4FA740AE0BD
:103210004FF4167407E04FF42F7404E04FF4487431
:1032200001E04FF46174DFED2A8A9FED2A8A95420E
:103230001BD9174616E000BF00EE107A4FF00002CF
:103240004146F8EEC00AB0EE480A484600EEA80A29
:10325000BCEEC00A10EE103A00F0C6F80A20FEF7E5
:103260009DFA3744AF42E7DD19E01FD2174614E05C
:1032700000EE107A00224146F8EEC00AB0EE480A8D
:10328000484600EEA80ABCEEC00A10EE103A00F064
:10329000ABF80A20FEF782FABF1BAF42E8DABDECBA
:1032A000028B2046BDE8F047FEF778BA00EE102A00
:1032B00048460022B8EE400A00EE288ABCEEC80A52
:1032C000BDEC028BBDE8F04710EE103A00F08CB870
:1032D000AE4711400000DC4270B506462DED028B72
:1032E00088B010EE100A02F0E1FB9FED371B53ECA3
:1032F000112B02F0F3F901F091FF9FED358B02F0F5
:10330000D5FB41EC100B51EC180B53EC102B02F0D9
:103310005FF89FED311B53EC112B02F0DDFA9FEDAE
:10332000301B53EC112B01F0ABFF02F0A9F98DF823
:103330001400012504A8CDE9000564242B460022D1
:10334000802102943046FEF7B9FC9DF810008DF8FC
:103350000C0000F07F0040F010008DF8180006A867
:10336000CDE9000501230022802102943046FEF7BA
:10337000A7FD05A8CDE900050123FE2280210294C6
:103380003046FEF79DFD03A8CDE90005012300228C
:10339000802102943046FEF793FD0220FEF7FEF9ED
:1033A0009DF80C00012340F0A1008DF81C0007A837
:1033B000CDE900050022802102943046FEF780FD11
:1033C00008B0BDEC028B70BD713D0AD7A370ED3F14
:1033D0000000000084D7B740000000000000F03F6C
:1033E000000000000000E03F1FB564248DF80C20B1
:1033F000C2F303228DF80D208DF80E30C3F30322A3
:103400008DF80F20042303AA8DE81C00062202EB8E
:10341000810201238021FEF753FD1FBD4FF47A7610
:103420009AB0304600F0FEFA64230522802131482C
:10343000FEF78EFB04004FF6FF7513D02EA101A8F6
:10344000FCF7F6FF01A8FDF790F882B229482B4659
:1034500001A95430FFF72CFB304600F0E3FA002CB2
:10346000FAD112E09FED2B0A2248FFF783FE2AA132
:1034700001A8FCF7DDFF01A8FDF777F882B21D482F
:103480002B4601A95430FFF713FB02244FF4FA66D0
:103490000022B423114617480094FFF799FE27A194
:1034A00001A8FCF7C5FF01A8FDF75FF882B211483B
:1034B0002B4601A95430FFF7FBFA304600F0B2FA70
:1034C0000023B42219460B480094FFF781FE22A185
:1034D00001A8FCF7ADFF01A8FDF747F882B2054847
:1034E0002B4601A95430FFF7E3FA304600F09AFA70
:1034F000CEE700000C01002050434139363835201A
:10350000446576696365204E6F7420466F756E64FE
:10351000210D0A0000004842504341393638352019
:10352000496E697469616C697A6174696F6E205360
:10353000756363657373210D0A000000536572762D
:103540006F20303A20302D3E31383020646567726C
:103550006565730D0A000000536572766F20303A7E
:10356000203138302D3E3020646567726565730DFB
:103570000A00000010B54FF0E020006901F082FC65
:10358000012803D0BDE8104001F0B0B910BD000023
:1035900030B593B030216846FDF753F814210CA8DC
:1035A000FDF74FF81D480025016841F0805101608A
:1035B000006800F0805011901948016841F4804182
:1035C00001600068022400F4804011900120039003
:1035D00010200490009406940820CDE90750A820FC
:1035E000CDE9090404200B906846FEF72DFF08B1D1
:1035F00072B6FEE70CA90F2081E831004FF4A0500D
:103600000F904FF48050109005210CA8FEF710FE8B
:10361000002801D072B6FEE713B030BD403802403A
:10362000007000400248016841F470010160704779
:1036300088ED00E00148FFF72EB90000A801002046
:10364000F0B50268274B284D284E294F294C4FF0E2
:10365000804C984209D0604507D0A84205D0B042BE
:1036600003D0B84201D0A04204D122F0700E4A68C3
:1036700042EA0E0298421BD0604519D0A84217D0EA
:10368000B04215D0B84213D0A04211D01A4DA84272
:103690000ED01A4DA8420BD0194DA84208D0194D92
:1036A000A84205D0184DA84202D0184DA84203D117
:1036B00022F44075CA682A434D6922F080022A43E9
:1036C0008D68C5620D688562984201D0A04201D123
:1036D00009690163016841F0040101600121416150
:1036E0000260F0BD000001400004004000080040FE
:1036F000000C004000040140004001400044014033
:103700000048014000180040001C0040002000401C
:1037100001680C3151E8002F22F4907241E8002337
:10372000002BF5D10168143151E8002F22F001027D
:1037300041E80023002BF5D1016B012909D1016873
:103740000C3151E8002F22F0100241E80023002B39
:10375000F5D1202180F8421000210163704700005C
:1037600070B5044600680169E26821F440511143D4
:1037700001612169A068E269084361691143084356
:103780002168CA6849F20C639A430243CA60206800
:103790004169A26921F440711143416131492068B6
:1037A000884202D03049884202D1FEF70BFE01E088
:1037B000FEF7F8FDE2690023192164253226B2F5EF
:1037C000004F626828D0A0FB0101930F9200FCF724
:1037D000B7FD0146B0FBF5F06FF01802504301EB66
:1037E000800006EB0010B0FBF5F000F0F002B1FB3A
:1037F000F5F002EB0012B1FBF5F06FF0180358433F
:1038000001EB800006EB0010B0FBF5F000F00F00BC
:1038100021681044886070BDA0FB010192185B41D3
:10382000FCF78EFD0146B0FBF5F00201B1FBF5F0AF
:103830006FF01803584301EB800006EBC000B0FBAB
:10384000F5F000F0F80002EB4002B1FBF5F0584350
:1038500001EB800006EBC000B0FBF5F000F00700C4
:10386000D6E7000000100140001401404FF47A74C4
:10387000204600F0D7F8FBE72DE9F84398461746B5
:103880000D460446089E24E0701C22D0FEF796F8F0
:10389000A0EB0800B0421AD8CEB12068C168490731
:1038A00017D5802D15D0402D13D00168C9430907C5
:1038B0000FD401680025406800902046FFF728FFDC
:1038C0000820606484F840500120BDE8F88303209C
:1038D000FBE72068006835EA000004D00020B84209
:1038E000D2D00020F1E70120F9E7FEE703B4019808
:1038F0004100009850EAC12018BF04204A0D18BFAB
:1039000040F0010040F2FF72B2EB515F08BF40F09F
:103910000200012808BF052002B070470907090E00
:10392000002804DB00F1E02080F80014704700F06C
:103930000F0000F1E02080F8141D704730380A288D
:1039400001D201207047002070470000FEF7AEFB57
:10395000FFF71EFEFFF7BAFBFFF7F0FB28482749E9
:10396000284D00240160C0E901540E14C0E903464B
:1039700044618461C4610462FEF726F808B172B63E
:10398000FEE71F48204954300160C0E90154C0E9F6
:10399000034644618461C4610462FEF715F808B10E
:1039A00072B6FEE7FFF792FBFFF7C8FB00F048F89E
:1039B000164A0021164800F071F8164C134A0021EF
:1039C00020602432144800F069F8104A60604832E0
:1039D0000021124800F062F80C4AA0606C3200210D
:1039E0000F4800F05BF8094AE06090320021084877
:1039F00000F054F8206100F035F8FEE70054004074
:103A0000B8000020A086010000580040A85B000814
:103A100095170008040000206D380008912F000859
:103A20001D34000810B5EFF3058111B16FF00504E6
:103A300003E0002408B100F0F9FD204610BD0000AD
:103A4000EFF3058010B16FF005007047044801687E
:103A500011B14FF0FF307047012101600020704725
:103A60007800002010B5EFF3058010B16FF005006D
:103A700010BD08480168012902D04FF0FF3010BD89
:103A8000054A002182F8141D0221016000F036FE73
:103A9000002010BD780000200BE000E02DE9FF4180
:103AA0004FEA01034FF00005EFF30581039549BB91
:103AB00040B38027182100244AB3166806B1344663
:103AC00096691EB13146761E382E02D21679F60757
:103AD00003D0002004B0BDE8F081566906B1B708F4
:103AE000D2F808C0BCF1000F0DD0D5685C2D18D3FA
:103AF00012693AB136B18DE806103A46214601F016
:103B000096F903900DE0D6685EB912694AB903AA26
:103B1000CDE90012BAB2214601F05CF9012800D0CB
:103B200003950398D6E700002DE9F041134C0F46AA
:103B30000546E6682068001D00F044FC681C07D1BB
:103B400037B12168BDE8F0410D48091D00F08ABC7D
:103B500020683544B5424560216805D2A06BBDE8B8
:103B6000F041091D00F066BC606B091D00F062FCAD
:103B7000A06A854200D2A562BDE8F081280000203D
:103B8000E00600202DE9F041054600F077FC2D4CC1
:103B9000A068401CA06020682B4F10B1606930B352
:103BA0002BE02560A068012827D1002606EB8600BF
:103BB00007EB800000F030FC761C382EF6D323484B
:103BC00000F02AFC2148143000F026FC1F48283061
:103BD00000F022FC1D483C3000F01EFC1B48503019
:103BE00000F01AFC194860631430A06305E02068F7
:103BF000E96AC06A884200D82560606A401C606239
:103C00006864E86A2169884200D9206100EB80007D
:103C100007EB8000291D00F025FC00F04FFC6069D7
:103C200000280CD02068E96AC06A884207D2084997
:103C30004FF080500860BFF34F8FBFF36F8FBDE828
:103C4000F0810000280000203002002090060020B3
:103C500004ED00E038B500F011FC104C2068C8B944
:103C60000F4800F0D9FB0E48143000F0D5FB0C488B
:103C7000E060143020610A4B0020F03B009003F11B
:103C8000500210210A2000F047FE206010B105A16B
:103C900000F096FCBDE8384000F010BC6400002045
:103CA000E4070020546D72510000000030B4026C33
:103CB0000B46002A0BD0C1681144C1608468A14240
:103CC00001D30168C16030BC1846FCF76DBC30BC44
:103CD00070472DE9F041856B174604460026026CBB
:103CE00082B1C7B1E068FCF75FFCE168206C091A9B
:103CF000E1602268914202D2A168081AE060022FB6
:103D000016D017E02068A8B9A06801F033F906467C
:103D10000020A0600EE06068FCF746FC216C606843
:103D200008446060A168884204D32068606001E0B4
:103D300005B16D1E6D1CA5633046BDE8F08110B560
:103D4000044690F8590058B101280CD002280FD031
:103D5000502080F31188BFF34F8FBFF36F8FFEE7C2
:103D6000206B00F0BFFB2046BDE8104000F0BABB5E
:103D700010BD000010484FF47051420706D0C01D1E
:103D80000D4920F00700411AC1F570510B4A00237C
:103D90000144C2E900030839183A21F00701116013
:103DA0004B600B600B1AC0E9001393604FF00040AA
:103DB0005360506170470000C40E00209400002042
:103DC000144E154CA6F29C474FF08058DFF84C90EB
:103DD00012E000BF00F052FBF068C568281D00F03B
:103DE000F1FAA068401EA0606068401E606000F0AC
:103DF00065FB2846FFF7A3FF60680028EAD1386812
:103E00000128F9D9C9F80080BFF34F8FBFF36F8F36
:103E1000F2E70000CC0600202800002004ED00E0BE
:103E200070B51D46049C51B1C4F80020C4E90F01CF
:103E30000121204600F0A4FD84F84C5070BD2460A0
:103E4000F4E700002DE9F05F8846DDE90B941546A4
:103E5000834691009A460A9EA522206BFCF7E9FB57
:103E60006FF00301206B01EB8501084420F0070788
:103E7000780707D0502080F31188BFF34F8FBFF32E
:103E80006F8FFEE70025B8F1000F0FD05FF0000044
:103E9000221818F8001082F8341018F8001011B128
:103EA000401C1028F4D384F8435001E084F83450C7
:103EB000382E00D33726E662C4E91365201D00F0D2
:103EC000B6FA04F1180000F0B2FA2461C6F1380025
:103ED0006462A061656584F8585052465946384678
:103EE00000F05AFA2060B9F1000F01D0C9F8004083
:103EF000BDE8F09F30B5114900E011460A688242E2
:103F0000FBD34B685C18844203D140681844486076
:103F1000084643681C18944209D1084C183C246890
:103F2000A24209D052681A4442600A6812680260CC
:103F3000814200D0086030BD0460F9E794000020A1
:103F400070B5002441600B4D0061914206D8D11A32
:103F50008269914206D2011D286907E09A4203D284
:103F6000994201D3012403E0011DE86800F062FAE0
:103F7000204670BD6400002010B5044600F07EFAB3
:103F8000A06B28B15FF0000400F098FA204610BD45
:103F90000124F9E730B589B03C4D6EE00498002863
:103FA00006DADDE90601059A90470498002864DBEB
:103FB000069C606910B1201D00F004FA03A800F00F
:103FC000D7F8024604980A2857D2DFE800F0050522
:103FD000052D334A05052D3394F8280040F00100E3
:103FE00084F828000599A069059B01442046FFF745
:103FF000A7FF68B3216A2046884794F82800400745
:104000003BD5002000900598A1690023421819466D
:10401000204601F0B9F8D8B9502080F31188BFF3D9
:104020004F8FBFF36F8FFEE714F8280F20F00100C9
:10403000207022E094F8280040F0010084F8280065
:104040000598A06128B1811813462046FFF778FF34
:1040500013E0502080F31188BFF34F8FBFF36F8FB1
:10406000FEE794F82800810703D4204600F03AFACE
:1040700003E020F0010084F82800002204A9286849
:1040800000F0D2FD002889D109B030BD64000020C5
:104090002DE9FC410F46054600F074FB01A800F035
:1040A00067F80446019818B100F0DCFFBDE8FC8118
:1040B000254EAFB130690068D0B30027291B3A46BE
:1040C000306800F091FA00F0CDFF0028EED11F49D2
:1040D0004FF080500860BFF34F8FBFF36F8FE5E75D
:1040E000A542EBD800F0BEFFF0682746C068C46860
:1040F000201D00F067F994F82800410719D5A06940
:104100002B4641193A462046FFF71AFFA8B1002076
:104110000346014600902A46204601F035F860B972
:10412000502080F31188BFF34F8FBFF36F8FFEE7EE
:1041300007E020F0010084F82800216A2046884723
:10414000B4E70127BAE700006400002004ED00E0B6
:104150000648416B096829B1416BC968C96849685B
:10416000816270474FF0FF31FAE70000280000201D
:1041700070B5054600F094FE064E0446B0688442D1
:1041800003D200F009F8012000E00020286020465A
:10419000B46070BD64000020F8B5194D20E0C0681F
:1041A000C4680668201D00F00DF9216A2046884782
:1041B00094F82800400713D5A0693044B04206D9CE
:1041C00024616060211DE86800F034F908E00020F7
:1041D0000346014600903246204600F0D5FF38B134
:1041E000E86801680029DAD12969C5E90310F8BD3A
:1041F000502080F31188BFF34F8FBFF36F8FFEE71E
:104200006400002008484068401C4FF0500080F3D4
:10421000118804D0BFF34F8FBFF36F8FFEE7BFF35A
:104220004F8FBFF36F8FFEE79C000020074CE068C4
:10423000016841B1C0680021D0F80000FFF728FFF5
:10424000FFF7A8FEF3E701210020F7E76400002054
:104250002DE9F041044600F011F994F9455004F1BC
:10426000240609E0606A48B1304600F0C3FE08B198
:1042700000F00AFA6D1E6DB2002DF3DC4FF0FF3630
:1042800084F8456000F01AF900F0F8F894F9445009
:1042900004F1100709E0206948B1384600F0AAFE91
:1042A00008B100F0F1F96D1E6DB2002DF3DC84F859
:1042B0004460BDE8F04100F001B900002DE9F04193
:1042C0000546002700F05EFA324E306808B9FFF765
:1042D00051FD706905424ED1C5B3083568070ED04F
:1042E00005F00700C0F108000544680707D050201A
:1042F00080F31188BFF34F8FBFF36F8FFEE72DB3AD
:104300007068854237D82348183001460C6801E0B0
:1043100020460C466168A94202D221680029F7D1E3
:1043200031688C4227D007682168016060680837CF
:10433000411B10290FD96019420708D0502080F383
:104340001188BFF34F8FBFF36F8FFEE713E041601B
:104350006560FFF7CFFD61687068401A7060B268F1
:10436000904200D2B060706901430020C4E90001AE
:10437000F068401CF06000F075FE780707D0502010
:1043800080F31188BFF34F8FBFF36F8FFEE738467E
:10439000BDE8F0817C00002010B5031F4FF0807451
:1043A0001C601B1F21F001011960191F044B0B60D9
:1043B00014390A60091F6FF0020244380A6010BD08
:1043C00005420008D0E9013201699A60D0E9012371
:1043D0005A604A68824201D182684A6000220261C2
:1043E0000868401E0860086870470000034B0360BF
:1043F00003F15C0008608020106070470C0800200A
:10440000044B036003F15C0008604FF4807010609F
:1044100070470000680A002000F108014FF0FF32E9
:10442000C0E90112C16001610021016070470021F3
:104430000161704730B50B685A1C02D000F10802C8
:1044400002E0026904E02246546825689D42FAD9D8
:1044500053684B6099608A60516008610168491C2B
:10446000016030BD42684A6093688B609368596010
:10447000916008610168491C01607047502080F319
:104480001188BFF34F8FBFF36F8F0A494868401CF4
:10449000486001280CD10848006810F0FF0F07D0D1
:1044A000502080F31188BFF34F8FBFF36F8FFEE76B
:1044B000704700009C00002004ED00E008494868B7
:1044C00028B1401E486001D180F311887047502008
:1044D00080F31188BFF34F8FBFF36F8FFEE70000AB
:1044E0009C00002070B500282AD0164DA0F10804C9
:1044F00060686969084207D1502080F31188BFF3D2
:104500004F8FBFF36F8FFEE722683AB1502080F3E0
:104510001188BFF34F8FBFF36F8FFEE78843606052
:1045200000F030F960686968084468602046FFF769
:10453000E1FC2869401C2861BDE8704000F092BD94
:1045400070BD00007C0000204FF0E02000210161E0
:10455000816105494FF47A720968B1FBF2F1491E95
:1045600041610721016170472400002010B5FBF76D
:10457000C3FE114910280ED300F1E02090F8F0039B
:104580000A78904207D2502080F31188BFF34F8FF2
:10459000BFF36F8FFEE709480068896800F4E060A8
:1045A000884207D9502080F31188BFF34F8FBFF3A3
:1045B0006F8FFEE710BD00009C0000200CED00E0B6
:1045C00010B5084B002200BF53F832401CB1521CFA
:1045D000082AF9D310BD43F8321003EBC20148603A
:1045E00010BD0000F001002070B515460E460446CF
:1045F000FFF744FF94F944100020491C01D184F8CE
:10460000440094F94510491C01D184F84500FFF796
:1046100055FFA06B28B92A46314604F1240000F06A
:1046200051F82046BDE87040FFF712BE10B50200F9
:1046300014D00F48006B38B1502080F31188BFF3BD
:104640004F8FBFF36F8FFEE700F09CF800211046FC
:10465000FFF76AFA00F006FD002807D105494FF080
:1046600080500860BFF34F8FBFF36F8F10BD000005
:104670002800002004ED00E002490A6A0260C968CF
:10468000416070472800002001490120C86170473F
:104690002800002010B50C4650B1094909681831AE
:1046A000FFF7C8FE2046BDE810400121FFF73CBAE5
:1046B000502080F31188BFF34F8FBFF36F8FFEE759
:1046C0002800002070B514460D4668B10A490968F3
:1046D0001831FFF7C7FE0CB14FF0FF3521462846D1
:1046E000BDE87040FFF720BA502080F31188BFF377
:1046F0004F8FBFF36F8FFEE72800002030B587B0E3
:104700000024039405AA04A903A80494FFF76EFEED
:10471000DDE903010094CDE90110002315A117483C
:10472000059A00F084FB164D0028E8621FD000F0C7
:10473000FBFC012809D0401C19D1502080F31188BE
:10474000BFF34F8FBFF36F8FFEE7502080F31188C8
:10475000BFF34F8FBFF36F8F4FF0FF30A862012080
:104760006861EC6007B0BDE8304000F045B807B0C4
:1047700030BD000049444C4500000000C13D000828
:10478000280000200248016B491C016370470000AB
:1047900028000020164810B5016B11B10121C1613C
:1047A00010BD0021C1610169124A01E0B9B1491E81
:1047B00001EB810352F82330002BF7D001EB81038A
:1047C00002EB830202F1080453685B685360A34262
:1047D00001D15B685360DA680260016110BD50204E
:1047E00080F31188BFF34F8FBFF36F8FFEE7000098
:1047F00028000020300200201CB537480168374AE5
:10480000914207D1502080F31188BFF34F8FBFF33F
:104810006F8FFEE700683149491E884207D150205A
:1048200080F31188BFF34F8FBFF36F8FFEE72C49E2
:1048300008780190FF20087008788DF800009DF836
:1048400000009DF8002000F0F000904207D05020BA
:1048500080F31188BFF34F8FBFF36F8FFEE79DF892
:104860000000204C00F0500020700720A06005E000
:104870009DF8002052008DF80020401E9DF8002079
:104880001206F5D4A060032807D0502080F31188C9
:10489000BFF34F8FBFF36F8FFEE74FF44070A06000
:1048A000019808700C482030016841F470010160E3
:1048B000016841F070410160FFF746FE0020606032
:1048C000FBF7E2FC0848016841F040410160FBF75A
:1048D000C7FC00201CBD000000ED00E071C20F41CC
:1048E00000E400E09C00002034EF00E010B5502010
:1048F00080F31188BFF34F8FBFF36F8F00F0D6FAAC
:1049000018B104494FF080500860002080F31188EE
:1049100010BD000004ED00E038B5049D18B153B19E
:10492000CAB181B120E0502080F31188BFF34F8FCE
:10493000BFF36F8FFEE7502080F31188BFF34F8FD6
:10494000BFF36F8FFEE7502080F31188BFF34F8FC6
:10495000BFF36F8FFEE739B1502080F31188BFF3AA
:104960004F8FBFF36F8FFEE750241C46012384F85E
:1049700046302B460094FFF753FA204638BD00001E
:1049800070B50D46040025D0FFF778FDD4E90F205F
:10499000216802FB0011A1600021A1632168616010
:1049A0000A46D4E90F01401E00FB0121E1602146C7
:1049B0004FF0FF3001F8440F487004F110008DB142
:1049C000FFF72AFD04F12400FFF726FDFFF776FD2F
:1049D000012070BD502080F31188BFF34F8FBFF3CB
:1049E0006F8FFEE721690029F0D000F003FB00285B
:1049F000ECD004494FF080500860BFF34F8FBFF3F5
:104A00006F8FE3E704ED00E02DE9FF4782B01D461C
:104A10008A464FF00008040003D0BAF1000F08D016
:104A200011E0502080F31188BFF34F8FBFF36F8FD9
:104A3000FEE7206C38B1502080F31188BFF34F8F10
:104A4000BFF36F8FFEE7022D0AD1E06B012807D07C
:104A5000502080F31188BFF34F8FBFF36F8FFEE7B5
:104A600000F010FA3F4F4FF000094FF0805648B960
:104A7000049838B1502080F31188BFF34F8FBFF3F3
:104A80006F8FFEE7FFF7FAFCA06BE16B884207D35C
:104A9000022D05D00498D0B1B8F1000F1AD01EE055
:104AA0002A4651462046FFF714F9616A19B104F10C
:104AB000240000F09FFA20B13E60BFF34F8FBFF398
:104AC0006F8FFFF7FBFC012006B0BDE8F087FFF712
:104AD000F5FC22E06846FFF7CFFD4FF00108FFF735
:104AE000EDFCFFF74FFEFFF7C9FC94F94400401CB2
:104AF00001D184F8449094F94500401C01D184F818
:104B00004590FFF7DBFC04A9684600F029F930B1B5
:104B10002046FFF79DFB00F0A5FA0020D4E7FFF741
:104B2000ADFCA06BE16B884213D1FFF7C7FC04F129
:104B300010000499FFF7AEFD2046FFF789FB00F057
:104B400091FA00289ED13E60BFF34F8FBFF36F8F65
:104B500098E7FFF7B3FC2046FFF77AFB00F082FAF4
:104B600090E7000004ED00E02DE9F0471F46904675
:104B70008946040003D0B9F1000F08D011E050209D
:104B800080F31188BFF34F8FBFF36F8FFEE7206C68
:104B900038B1502080F31188BFF34F8FBFF36F8F70
:104BA000FEE7022F0AD1E06B012807D0502080F3E6
:104BB0001188BFF34F8FBFF36F8FFEE7FFF7D6FC6F
:104BC0005020EFF3118680F31188BFF34F8FBFF3AE
:104BD0006F8FA06BE16B884206D3022F04D00020B8
:104BE00086F31188BDE8F08794F94550A06B3A46EA
:104BF00049462046FFF76DF8681C04D06D1C84F808
:104C000045500120ECE7606A0028FAD004F1240046
:104C100000F0F0F90028F4D0B8F1000FF1D0012134
:104C2000C8F80010EDE700002DE9F747002683B033
:104C30008A46040003D0BAF1000F08D011E05020DA
:104C400080F31188BFF34F8FBFF36F8FFEE7206CA7
:104C500038B1502080F31188BFF34F8FBFF36F8FAF
:104C6000FEE700F00FF9DFF8F4804FF000094FF095
:104C7000805748B9059838B1502080F31188BFF3A8
:104C80004F8FBFF36F8FFEE7FFF7F8FBA56BC5B142
:104C900051462046FFF70AF86D1EA563206950B102
:104CA00004F1100000F0A6F928B1C8F80070BFF3B5
:104CB0004F8FBFF36F8FFFF701FC012006B0BDE8F7
:104CC000F087059808B11EB106E0FFF7F7FB27E073
:104CD0006846FFF7D1FC0126FFF7F0FBFFF752FD16
:104CE000FFF7CCFB94F94400401C01D184F84490B8
:104CF00094F94500401C01D184F84590FFF7DEFB94
:104D000005A9684600F02CF8002820460AD0FFF7D5
:104D10009FFA00F0A7F92046FFF72EF90028B3D03C
:104D20000020CBE7FFF728F990B104F124000599A2
:104D3000FFF7B0FC2046FFF78BFA00F093F900284C
:104D4000A2D1C8F80070BFF34F8FBFF36F8F9BE7FE
:104D50002046FFF77DFA00F085F995E704ED00E0C5
:104D60002DE9F0410C46050011D0C4B1FFF786FBD8
:104D7000174BDA686E682068911B471C17D02F68A4
:104D80001B6A9F4219D0964217D8012410E0502088
:104D900080F31188BFF34F8FBFF36F8FFEE7502072
:104DA00080F31188BFF34F8FBFF36F8FFEE70024AE
:104DB000FFF784FB2046BDE8F081884205D9401A00
:104DC00020602846FFF758FCF1E700202060DCE770
:104DD000280000202DE9FF5F8346DDE90E87994614
:104DE00016468A469000FFF769FA05001CD05C2041
:104DF000FFF764FA040014D00020256384F85900FA
:104E0000CDE90240CDE900874B463246514658462F
:104E1000FFF718F82046FEF7B5FE012004B0BDE804
:104E2000F09F2846FFF75EFB4FF0FF30F6E7F0B546
:104E300085B0DDE90B640A9DA6B1DCB15C27009763
:104E40002663022684F85960002604AFCDE90246A5
:104E5000CDE90057FEF7F6FF2046FEF793FE0498D3
:104E600005B0F0BD502080F31188BFF34F8FBFF322
:104E70006F8FFEE7502080F31188BFF34F8FBFF391
:104E80006F8FFEE70548416919B1006B18B100202A
:104E90007047012070470220704700002800002062
:104EA0000148C06870470000280000202DE9F0414B
:104EB0002E4C0027206B28B1A069401CA061384609
:104EC000BDE8F081E668761CE66013D1606B00688F
:104ED00038B1502080F31188BFF34F8FBFF36F8F2D
:104EE000FEE7606BA16B6163A063206A401C2062D7
:104EF000FFF72EF9A06ADFF87880864209D3606B4D
:104F00000068A0B1606BC068C5686868864211D24D
:104F1000A0622068C06A00EB800158F821000128D7
:104F200000D90127E0690028C9D00127C7E74FF061
:104F3000FF30EDE7281DFFF745FAA86A18B105F123
:104F40001800FFF73FFAE86A2169884200D920611A
:104F500000EB800108EB8100291DFFF783FAE86A66
:104F60002168C96A8842CAD30127C8E728000020FF
:104F70003002002070B504004FF0000133D01B4D0B
:104F80002868844207D0502080F31188BFF34F8FE8
:104F9000BFF36F8FFEE7206D38B1401E2065E36CD4
:104FA000E26A9A421FD040B11DE0502080F3118880
:104FB000BFF34F8FBFF36F8FFEE7201DFFF702FA9D
:104FC000E06CE062C0F13800A061E06A29698842C3
:104FD00000D92861064900EB800001EB8000211D0B
:104FE000FFF740FA0121084670BD000028000020AC
:104FF0003002002070B5C068C46854B104F11800D4
:105000000646FFF7DFF9144D286B50B131461348BF
:1050100015E0502080F31188BFF34F8FBFF36F8FDF
:10502000FEE7201DFFF7CEF9E06A2969884200D922
:1050300028610B4900EB800001EB8000211DFFF788
:1050400011FAE06A2968C96A884202D90120E86138
:1050500070BD002070BD000028000020B8060020B0
:10506000300200202DE9F0472C4D00242746286B04
:1050700038B1FFF703FA286B401E2863286B40B154
:1050800046E0502080F31188BFF34F8FBFF36F8F3E
:10509000FEE7A968224E0120D1B3A6F591698046AA
:1050A0003068E0B1F068C46804F11800FFF78AF9CD
:1050B000201DFFF787F9E06A2969884200D9286135
:1050C00000EB800109EB8100211DFFF7CBF9E06ABD
:1050D0002968C96A8842E3D3C5F81C80E0E70CB1AF
:1050E000FFF736F8AC694CB14FEA0806FFF7DEFE71
:1050F00000B1EE61641EF9D10020A861E86938B101
:105100000849012738070860BFF34F8FBFF36F8F3F
:10511000FFF7D4F93846BDE8F087000028000020EA
:10512000B806002004ED00E010B586B0FEF792FD51
:10513000114C2068B8B100200390049005AA04A97E
:1051400003A8FFF75DF9DDE9032102208DE80700E0
:1051500000230AA10B48059AFFF769FE606010B1B1
:1051600006B0012010BD502080F31188BFF34F8F8F
:10517000BFF36F8FFEE7000064000020546D7220C3
:10518000537663002D4200082DE9FF411E46134669
:1051900002000A9D4FF0000016D0144C2768002F23
:1051A0000FD0CDE900130292062917DAFFF76AFE45
:1051B00002284FF000030FD0002269462068FFF755
:1051C00023FC04B0BDE8F081502080F31188BFF3C8
:1051D0004F8FBFF36F8FFEE72A46EEE7002332467C
:1051E00069463846FFF7C0FCEBE70000640000208A
:1051F00010B500290AD00878002807D0054878445F
:10520000FBF7F8FD002801D0002010BD02487844CB
:1052100010BD0000BE0B0000B60B000021F00042E4
:10522000A2F16052B2F5801F01F0004328BFD2F115
:105230007F6C0BD95FEA001C43EAC20242EB50705C
:1052400018BF704728BF20F001007047B2F5801FDB
:10525000BCBF184670474FEA410C1CF5001F02D234
:10526000084600F099BC70B500F0E2FA0000008931
:10527000FFF7F6BF4FF00040A0F580007047000038
:1052800010B591EA030F48BF83F0004300F12C836F
:10529000841A71EB030C05D2121943EB0C03001BAB
:1052A00061EB0C01DFF824E14FEA1154A4EB135C2D
:1052B0001EEA430F18BF9EEA445F73D023EA0E0331
:1052C000DCF1200E21EA045143F4801332D322FA98
:1052D0000CFE10EB0E0023FA0CFE41EB0E01CCF19C
:1052E000200E03FA0EFE10EB0E0051F10001B1F595
:1052F000801FCCF1200E32D201EB045112FA0EF2D3
:10530000BDE8104058BF7047401C38BF5FEA4202FA
:1053100018BF7047002814BF20F0010041F10001C0
:105320004FEA410313F5001F38BF7047A1F1C04198
:1053300000F0CCBA012A43EB0302ACF1200CDCF103
:105340001F0E32BF4FF0000E23FA0CF310EB0300D8
:1053500041EB0451B4EB115FD0D0A1EB045101F546
:10536000801149085FEA300001EB04510ED350F17F
:10537000000038BF12FA0EFE08D1BDE81040C9E7A0
:10538000401C38BF5FEA4202CAD1C3E7BDE8104003
:105390004FEA410313F5001F38BF7047A1F1C04128
:1053A00000F094BA9EEA445F08D011EA5E0FBDE8AF
:1053B000104004BF01F0004100207047BDE81040DC
:1053C00070B500F035FA00BF64FBBE3E0000E0FFA0
:1053D0002DE9C04130B4DFF8A0C23CEA111418BF77
:1053E0003CEA131400F0EC8081EA03051CEA111476
:1053F00044EAD57418BF1CEA131500F0C780A4EB6B
:1054000005044FF0004545EAC12145EAC32341EABE
:10541000505143EA525304F17F74994204F5003429
:105420004FEAC0204FEAC22208BF904200F09C80A1
:105430004FEA13650FF24016765D4FEA134506FBFF
:1054400005F7C7F1807706FB07F74FEAD737A7FBC9
:1054500003687642C8F58038A7FB06CE38BFA8F1AE
:10546000010807FB08E64FF0000EA6FB028CE6FBE6
:1054700003CEDCF1000CCEF1004E38BFAEF1010ED0
:10548000A6FB0C584FF000074FF00005E6FB0E8717
:10549000A1FB08C6A0FB07CE16EB0E0645F10005E2
:1054A000E1FB076515F1E04E7EBFA4F580345FEAAD
:1054B00046066D4116F1800745F100054FEA1727B2
:1054C0004FEA066647EA0567A6F1DE46B6F1805F59
:1054D0004FEA15251FD9384624F0010C05EBC4719D
:1054E000BCF1FE6F01EB0C1102D8F0BCBDE80081ED
:1054F00024425CBF01F5801E9EEAC47F02D4F0BC4A
:10550000BDE80081244238D4F0BCA1F1C041BDE81F
:10551000004100F0DBB94FEAD22242EA43524FEA9F
:10552000D323A7FB02864FEAD02040EA415007FB75
:1055300003661EEA0E0F4FEAD12105FB026658BF33
:10554000A6EB0056B6EB00564FEA520E4EEAC37E6B
:1055500018EB0E0E56EB530EBDD518EB02085E414C
:105560007F1C55F10005B6E74FF480154FF000079A
:105570004FF000064FF00008ADE7F0BC4FF0000020
:1055800001F1C04101F00041BDE8008111EA0C1FAA
:105590000CEA131500D00CE013EA0C1F00F0258074
:1055A0004FF00000F0BC81EA030101F00041BDE8CA
:1055B0000081F0BCBDE8004181EA030100F086B93A
:1055C000F0BCBDE8004170B500F032F9097EFC3E48
:1055D00000F007B881EA03014FF0000001F000413C
:1055E000704781EA030100F071B9F0BCBDE80041E9
:1055F0004FF0000021497047FFFDFBF9F7F5F4F289
:10560000F0EEEDEBE9E8E6E4E3E1E0DEDDDBDAD85D
:10561000D7D5D4D3D1D0CFCDCCCBCAC8C7C6C5C4BB
:10562000C2C1C0BFBEBDBCBBBAB9B8B7B6B5B4B3D2
:10563000B2B1B0AFAEADACABAAA9A8A8A7A6A5A4BD
:10564000A3A3A2A1A09F9F9E9D9C9C9B9A99999881
:105650009797969595949393929191908F8F8E8E24
:105660008D8C8C8B8B8A89898888878786858584B1
:1056700084838382828181800000FF070000F87F9D
:105680004FEA1153A3F58063D3F11E03A8BFD3F1F2
:10569000200C08DB4FF0004242EAC12252EA50528D
:1056A00032FA03F0704709420BD4102BC4BF00201C
:1056B000704703F5787CBCF1FF3F05D04FF0FF3019
:1056C00070474FF00000704770B500F0B1F800BFB0
:1056D0004992248000207047F0E70000DFF848C1BD
:1056E00070B51CEA111E1EBF1CEA13159EEA0C0FB2
:1056F00095EA0C0F00F06F8081EA030423EA4C1353
:105700004EEAD47E21EA4C1141F4801143F4801317
:10571000AE44A1FB024CA0FB0365AEF17F7E3619BF
:1057200055EB0C05A1FB034C4CF10003A0FB021C44
:1057300016EB0C06654153F10003094218BF46F011
:10574000010613F4007F0BD14FEA03314FEA053015
:10575000340341EA155140EA16506FF003020AE0A3
:105760004FEAC3214FEAC520F40241EA555140EA0D
:1057700056506FF0020202EB2E4201EB025585EA11
:10578000CE710AD05FEA440C18BF24F0004450F1F7
:10579000000041F1000120EAD47040F2FE7C624535
:1057A00000D270BDA84214BF4FF080444FF0404477
:1057B000002E08BF0024BEF1806FA8BFA1F1C04138
:1057C000BDE8704080F282804FF0000001F1C041DE
:1057D00001F0004170479EEA0C0F0CEA131518BF48
:1057E00095EA0C0F06D04FF0000081EA030E0EF090
:1057F000004170BD00F01CF88900013E00F007B8C0
:1058000000F009B84FEA430C5FEA5C5C08D081EA1B
:10581000030100F05BB84FEA410C5FEA5C5CF6D133
:105820004FF00000014970470000FF070000F87FBB
:105830000EF1020E2EF0030E5EF8046B364205D414
:10584000012A43EB030515F5001F12D8012841EB8F
:10585000010C1CF5001F0CD80ED14FEAD17C15F5B8
:10586000001F0CEB4C0C0CF1020C08BF4CEBD37C72
:1058700004E04FF0080C01E04FEAD37C0CEB4C0540
:1058800026FA05F606F00706B6F1040C06D20EEB72
:10589000860CBDE870404CF0010C6047DFE80CF06E
:1058A000090B02024FF000414FF00000A1F500216A
:1058B00070BD19461046012851EB010418BFD4F5FC
:1058C000001484BF002001F0004170BD0808A0F55D
:1058D00000114FEA3101704710B591EA030F48BF3C
:1058E00083F000433FF5D4AC841A71EB030C07D26C
:1058F00012198CF0004C43EB0C03001B61EB0C0104
:10590000DFF8A4E14FEA1154A4EB135C1EEA430F45
:1059100018BF9EEA445F00F0B08023EA6E03524253
:1059200021EA0451C3EB6E0338BF5B1EDCF1200E8D
:1059300025D322FA0CFE10EB0E0043FA0CFE41EBCD
:105940000E01CCF1200E03FA0EFE10EB0E0051F109
:105950000001CCF1200E29D412FA0EF201EB045111
:10596000BDE8104058BF7047401C1CBFB2F1004F4B
:10597000704700280CBF491C20F00100704712EB53
:10598000020E43EB030218BF4FF0010E4EEA420233
:10599000ACF1200CDCF11E0E54D943FA0CFE10EBD6
:1059A0000E0051F1FF31CCF11E0ED5D50EF1010ED6
:1059B00012FA0EFE404141EB010101EB445C5FEA4B
:1059C0005C5C10D910EBDE7001EB045138BFBEF106
:1059D000004FBDE8104018BF704700280CBF491C9D
:1059E00020F00100704730D24FEAD42C11F500119D
:1059F00024F400641BD0B1FA81F20B3AA41AA41E5D
:105A0000D2F12003914030FA03F31943904001EBA7
:105A1000CC71002C01EB0451BDE81040A8BF7047C9
:105A200001F1C0414FF0000001F000417047B0FAB1
:105A300080F310FA03F100D110BDE41A173C4805B9
:105A4000C90AE4E701EB045110BD491001EB045110
:105A5000BDE810404FEA300002E04FF0000170470F
:105A60004A0008BF0042F8D0B2F5001F28BF7047B7
:105A700001F000414FF0000070479EEA445F07D0FC
:105A800011EA5E0FBDE8104004BF002100207047FE
:105A9000BDE8104070B5FFF7CBFE00BF40DFF63E1B
:105AA00083F00041104670470000E0FF43004FEADA
:105AB000D30C4FEA3C0C43401FBF40070CF1605130
:105AC00013F0FE4F70471CF0006F03D100200CF064
:105AD000004170470CF0004343EA507010B540EAB3
