:020000040800F2
:10000000D0500020090300085B310008392B00089C
:1000100059310008151900081F35000800000000BC
:10002000000000000000000000000000490200087D
:100030001719000800000000A50200085D31000843
:1000400023030008230300082303000823030008F8
:1000500023030008230300082303000823030008E8
:1000600023030008230300082303000823030008D8
:1000700023030008230300082303000823030008C8
:1000800023030008230300082303000823030008B8
:1000900023030008230300082303000823030008A8
:1000A0002303000823030008230300082303000898
:1000B00023030008230300081D320008230300085F
:1000C0002303000823030008230300082303000878
:1000D0002303000823030008230300082303000868
:1000E0002303000823030008230300082303000858
:1000F0002303000823030008230300082303000848
:100100002303000823030008230300082303000837
:100110002303000823030008230300082303000827
:100120002303000823030008230300082303000817
:100130002303000823030008230300082303000807
:1001400023030008230300082303000823030008F7
:1001500023030008230300082303000823030008E7
:1001600023030008230300082303000823030008D7
:1001700023030008230300082303000800000000F5
:10018000230300082303000800F002F800F04CF8F5
:100190000AA090E8000C82448344AAF10107DA45E2
:1001A00001D100F041F8AFF2090EBAE80F0013F0E8
:1001B000010F18BFFB1A43F001031847204F00003E
:1001C000404F0000103A24BF78C878C1FAD85207CF
:1001D00024BF30C830C144BF04680C6070470000C1
:1001E0000023002400250026103A28BF78C1FBD840
:1001F000520728BF30C148BF0B607047662904F022
:100200008986752900F02E81002070471FB504F003
:100210007CFE00F083FD04000020002104F0E8FDD6
:10022000E0601FBD10B510BD00F078FE1146FFF76D
:10023000EDFF03F0A5F900F096FE03B4FFF7F2FF1F
:1002400003BC00F0D9FE00002C4B19680868B0E828
:10025000F04F80F30988BFF36F8F4FF0000080F3F9
:10026000118870470000000008480068006880F3AB
:1002700008884FF0000080F3148862B661B6BFF3BF
:100280004F8FBFF36F8F00DF00BF00BF08ED00E0AE
:10029000DFF80C00016841F470010160704700BF95
:1002A00088ED00E0EFF30980BFF36F8F134B1A68FE
:1002B0001EF0100F08BF20ED108A20E9F04F1060EB
:1002C00009B44FF0500080F31188BFF34F8FBFF394
:1002D0006F8F04F05FF84FF0000080F3118809BCC5
:1002E00019680868B0E8F04F1EF0100F08BFB0ECB6
:1002F000108A80F30988BFF36F8F704724000020B5
:10030000EFF305807047000009488047094800471F
:10031000FEE7FEE7FEE7FEE7FEE7FEE7FEE7FEE7B5
:10032000FEE7FEE704480549054A064B7047000012
:100330000D32000889010008D04A0020D05000206A
:10034000D04C0020D04C002053EA020C00F0698011
:100350002DE9F04B4FF00006002B1FBFB3FA83F5D9
:1003600003FA05F424FA05F65E4012BF1643B2FA0A
:1003700082F502FA05F4C5F120051EBF22FA05FC3C
:1003800044EA0C04203556EA044C4FEA144418BFE2
:10039000641C4FF000084FF00009904271EB030C11
:1003A00039D3002919BFB1FA81F701FA07F6B0FA7B
:1003B00080F700FA07F6C7F120071EBF20FA07FCF6
:1003C00046EA0C062037B6FBF4FCA7EB0507103F06
:1003D00007F01F0BCBF120060CFA0BFB2CFA06F6EC
:1003E00044BFB3460026202FA4BF5E464FF0000B4B
:1003F0005BEA060C08BF4FF0010B19EB0B09ABFBD6
:10040000027C48EB0608C01B06FB02CC0BFB03CCAE
:1004100071EB0C01C1E70B46024641464846BDE878
:10042000F08B13B54FF000004FF00001AFF30080E8
:10043000BDE81C40704700000FB41CB5084B06AA6D
:100440007B4469460090059800F0FBFB04460020C1
:10045000694600F009FC20461CBC5DF814FB000056
:10046000250800002DE9F041064600241068752992
:10047000314616A510D0AFF30080002802DA4042C2
:1004800013A507E031688A0701D512A502E04907E4
:1004900004D511A5012401E0AFF3008000210A2258
:1004A00006F1240709E0B0FBF2FCB0FBF2F302FB1B
:1004B0001C00303078541846491C0028F3D12346DC
:1004C0002A463046BDE8F04100F04EB90000000079
:1004D0002D0000002B000000200000002DE9F04757
:1004E0004FF0000A89460446C0F820A02046E16883
:1004F0008847002876D0252806D0D4E901219047E6
:10050000206A401C2062F1E7E16820460026884707
:10051000C4F81CA005460027C4F818A02A2D09D04D
:10052000284603F025F838B304EB8708303DC8F8B7
:10053000185019E059F8041B204604EB870291611A
:10054000E1688847012F054618D1E069002820DAC4
:1005500026F020061DE0D8F8180000EB800005EB1F
:1005600040003038C8F818002046E1688847054642
:1005700002F0FEFF0028EED1012F0AD02E2D08D167
:100580002046E16888477F1C0546022F46F020067A
:10059000C4DBA069002803DA404246F00106A061EE
:1005A000F00701D026F010066C2D0AD0682D08D077
:1005B0004C2D39D06A2D35D0742D35D07A2D33D0CD
:1005C00016E0E1682F4620468847B84205460AD122
:1005D0006C2F27D04FF48060E1680643204688479F
:1005E000054605E027E06C2F1AD04FF480700643D3
:1005F0000DB3A5F14100192802D8203546F4006654
:100600004A462946204626604E46FFF7F7FD80B150
:1006100001280BD0F61D26F0070000F1080965E758
:100620004020E4E78020D7E70020D5E706F1040961
:100630005CE7284661E7206ABDE8F08710B5431CF7
:1006400002E010F8011B71B18107FAD14FF00132BD
:1006500002C88C1A8C4314EAC211F9D0C01A0A06D7
:1006600003D0C01E10BDC01A10BD0A0401D0801EE8
:1006700010BD0902FCD0401E10BD032A40F230809C
:1006800010F0030C00F0158011F8013BBCF1020FD3
:10069000624498BF11F801CB00F8013B38BF11F854
:1006A000013BA2F1040298BF00F801CB38BF00F86B
:1006B000013B11F0030300F0DC82083AC0F008802F
:1006C00051F8043B083A51F804CBA0E80810F5E7CC
:1006D000121D5CBF51F8043B40F8043BAFF30080AF
:1006E000D20724BF11F8013B11F801CB48BF11F824
:1006F000012B24BF00F8013B00F801CB48BF00F8F4
:10070000012B704702F0FF0343EA032242EA024250
:1007100000F0E3BA4FF0000200B513469446964647
:10072000203922BFA0E80C50A0E80C50B1F1200104
:10073000BFF4F7AF090728BFA0E80C5048BF0CC0B2
:100740005DF804EB890028BF40F8042B08BF704710
:1007500048BF20F8022B11F0804F18BF00F8012B82
:1007600070477047704770472DE9F0470D4699462E
:100770009246044600F124080168880604D5E06921
:1007800021F01001216000E00120A84201DD471B9B
:1007900000E00027A1697A1902EB0900081AA0619C
:1007A0002078C00602D42046AFF30080002608E07F
:1007B000D4E901211AF806009047206A401C761CF3
:1007C00020624E45F4DB2078C0060AD52046AFF300
:1007D000008006E0D4E9012130209047206A401CC7
:1007E0002062381EA7F10107F4DC07E0D4E90121FB
:1007F00018F805009047206A401C2062281EA5F1C9
:100800000105F3DC2046AFF300802078000602D516
:100810000220BDE8F0870120FBE770472DE9FF4F7C
:100820000C461E464FF0FF378BB0D2E90001DDF8D1
:1008300060800A908A46C1F30A5505B93D460021F9
:1008400008464FF00000BAF1000F00F4400005DA4E
:1008500000EB80004FF4400101EA50004FEA90594C
:10086000B9F1010F00DDB9460A9850EA4A000ED0EE
:1008700044F61050A5F2FF3545432F14B8F1000F90
:100880001ED07542291E1EDDC9F100021CE0B8F120
:10089000010F4FF0000001D0302103E0F24305E0EA
:1008A0002154401CB042FBDB304600220021215481
:1008B0000B99C1F80880C1E900200FB0BDE8F08FA6
:1008C000BD1B6D1CDEE74A4600DA694206A800F04F
:1008D000AFFA06AB93E8070003AB83E80700504686
:1008E0000A9900F090FB8DE80700A0F500501F3832
:1008F00000900398002D0ADD42F21F014A46084489
:10090000002303A90390684600F0F9FD09E0A0F573
:1009100000504A461F38002303A90390684600F0A0
:1009200003FE8DE807000004000C03D04FF0FF30F9
:10093000410800E01046B8F1000F03D000220092F9
:1009400015461EE0751E05D400F0ECF930326255F4
:100950006D1EF9D5B3460122084302D000227F1C48
:1009600004E02078302801D100227F1E002A099758
:1009700084D01DE0112D07DA00F0D4F93032625531
:100980006D1C50EA0102F5D1084302D00098C8B1AD
:100990000EE00021681E05E0235C625C6354225473
:1009A000401E491C8142F7DBAB46A81B401E099044
:1009B000002004F80B000B98099AC0F80880C0E9E1
:1009C000002B7AE711264FF0000857E72DE9F04F8A
:1009D00088460446D21D22F0070191B0D1E90001FA
:1009E000CDE90A0102F09CFD02460B98C00F01D030
:1009F0002D2007E02068810701D52B2002E020216F
:100A000001EAC000032A099001D0072A05DB03464A
:100A10004146204600F0CCF90BE12078800601D554
:100A2000E06900E00620B8F1650F814606D0B8F114
:100A3000660F18D0B8F1670F70D131E00020B9F11E
:100A4000110F009001DB112301E009F101030AAA53
:100A500001A90CA8FFF7E2FEDDE90C70002609F100
:100A60000105834647E001204B4600904FF00047C8
:100A70000AAA01A90CA8FFF7D1FEDDE90DB00C9977
:100A80005D46002610B909F101000D18B9EB05000B
:100A900003D4C0F1FF3609F10105A5EB09002BE0F5
:100AA000B9F1010F01DA4FF001090020B9F1110F7E
:100AB0000090484601DD112300E003460AAA01A97F
:100AC0000CA8FFF7ABFEDDE90C704D46002683460F
:100AD000207800070AD4AB4500DA5D4601A8012D55
:100AE00004DD411911F8011C302907D04F4502DA05
:100AF00017F1040F04DA012082460FE06D1EEEE7C5
:100B0000002F02DCED1B3E4403E0781CA84200DD10
:100B10007D1CB81B00F1010A4FF000472078000748
:100B200003D4AA4501DB4FF0FF3A0021B7F1004F93
:100B30000DF143088DF8431024D002202B23002F01
:100B400001DA7F422D230A21021EA0F1010000DC00
:100B50005FB197FBF1FC97FBF1F201FB1C7C1746A0
:100B60000CF1300C08F801CDEEE7A8F1010003709C
:100B70002188090501D5452100E06521A0F1010882
:100B800000F8011C09980FA9A1EB0807FF1D00B18F
:100B90000120411901EBEA70A1693844081A401E8E
:100BA000A0612078C00602D42046AFF300800998E7
:100BB00028B1D4E901219047206A401C20622078A6
:100BC000C00622D52046AFF300801EE0002E04DBD5
:100BD000B34502DD01A8805D00E03020D4E90121A9
:100BE0009047206A401C2062761CAAF101005FEA4F
:100BF000000A0AD100F092F8C0680168405CD4E9AC
:100C000001219047206A401C2062281EA5F10105A1
:100C1000DCDC07E0D4E9012118F8010B9047206AD9
:100C2000401C2062381EA7F10107F3DC2046AFF319
:100C30000080032011B041E601694A1C0261087876
:100C4000704700B58FB0CDE901310021059105490C
:100C50007944CDE9031011466846FFF73FFC0FB019
:100C600000BD0000E5FFFFFF0A6802F8010B0A6003
:100C7000704710B5203AC0F00B80B1E81850203A08
:100C8000A0E81850B1E81850A0E81850BFF4F5AF2C
:100C90005FEA027C24BFB1E81850A0E8185044BFB6
:100CA00018C918C0BDE810405FEA827C24BF51F823
:100CB000043B40F8043B08BF7047D20728BF31F817
:100CC000023B48BF11F8012B28BF20F8023B48BF68
:100CD00000F8012B70474FF000020429C0F0128089
:100CE00010F0030C3FF418ADCCF1040CBCF1020F72
:100CF00018BF00F8012BA8BF20F8022BA1EB0C01B4
:100D0000FFF70ABD5FEAC17C24BF00F8012B00F8A1
:100D1000012B48BF00F8012B7047000000487047C6
:100D20008C4A002030B5B0F10A024FEA900E71F102
:100D300000034EEA817EB0EB0E0061EB91014FEAB9
:100D4000101E4EEA017E10EB0E0041EB11114FEA2E
:100D5000102E4EEA016E10EB0E0041EB11214FEA0E
:100D6000104E4EEA014E10EB0E0041EB11414018BF
:100D700041F100014FEAD00040EA41704FEAD10151
:100D800010EB80054FEA810444EA907444EB0104BF
:100D90006D1944EB0404521BA3414FF0000348BFFC
:100DA0000A3200D530BD401C41F1000130BD0000C9
:100DB0002DE9F0411F46044603260168072A01F485
:100DC000006004DB08B116A505E016A503E008B134
:100DD00015A500E015A521F010002060A069C01E37
:100DE000A0610FB1401EA0612046AFF300804FB15B
:100DF000D4E9012138469047206A401C2062C01C7B
:100E0000206206E0206AFAE7D4E9012115F8010B17
:100E10009047761EF8D22046AFF30080BDE8F081FF
:100E20004E414E006E616E00494E4600696E66008E
:100E30002DE9F047814616468AB0354878440DC8FA
:100E40008DE80D0032487844801C03AC0DC884E85E
:100E50000D0041F69B300844372190FBF1F290FBE6
:100E6000F1F5A5F1800501FB12041B3C02D564429B
:100E7000012000E00020DFF898A080460027FA4417
:100E8000AAF1BE0A0EE0E0070AD03246684607EB38
:100E9000470101230AEB810100F046FB8DE80700C2
:100EA00064107F1C002CEED1194F7F44AE3F19E037
:100EB000E80715D007EB04100DF1180A90E80E00B2
:100EC0008AE80E00C068F04201D1981908903246B5
:100ED000012306A903A800F027FB03AB83E8070062
:100EE0006D10641C002DE3D14FF0010332466946BA
:100EF000B8F1000F03A802D000F001FB01E000F000
:100F000013FBC9E90001C9F808200AB0BDE8F08761
:100F1000FC410000004870476C4A00207546FFF70E
:100F2000F9FFAE4605006946534620F007008546A6
:100F300018B020B5FFF7F6F9BDE820404FF00006E5
:100F40004FF000074FF000084FF0000B21F00701B1
:100F5000AC46ACE8C009ACE8C009ACE8C009ACE8F4
:100F6000C0098D46704710B50446AFF30080204697
:100F7000BDE81040FFF761B94FF0013C50F8042B79
:100F800051F8043B9A4221D1A2EB0C03934313EA9C
:100F9000CC1317D150F8042B51F8043B9A4215D1C9
:100FA000A2EB0C03934313EACC130BD150F8042BA0
:100FB00051F8043B9A4209D1A2EB0C03934313EA84
:100FC000CC13DBD04FF00000704700BFD01A01BA3D
:100FD000B1FA81F101F0180122FA01F0CB40C1F120
:100FE0002001DBB2C0B2C01A2CFA01F3D11A91432E
:100FF00011EAC311E6D1704701491820ABBEFEE7E4
:101000002600020070475FEA400C08BF91F0000F15
:101010004FEA8C234FEAC12243EA51514FEA1C5058
:1010200018BF00F5F0404FEA300018BF41F0004112
:101030005FEA6C5C00F02980BCF1FF3F08BF40F024
:1010400080407047130C06BF12044FF0100C4FF095
:10105000000C130E04BF12020CF1080C130F04BF96
:1010600012010CF1040C930F04BF92000CF1020C5E
:10107000D30F04BF52000CF1010C11464FF00002D7
:10108000A0F11F00A0EB0C00704711F0004F08BF4B
:10109000704731F000413FF4D5AF0B0C06BF090497
:1010A0004FF0100C4FF0000C0B0E04BF09020CF1B6
:1010B000080C0B0F04BF09010CF1040C8B0F04BFCB
:1010C00089000CF1020CCB0F04BF49000CF1010C9C
:1010D000CCF12003A0EB0C0022FA03F302FA0CF28D
:1010E00041EA030100F10100704720F07F4C80EAE3
:1010F000030023F07F47ACEB070303F57C5300F0BC
:10110000004003F1FF032DE980494FEA154B09B474
:101110004FEA144325EA0B4E24EA03480FF2042653
:1011200006EB132749083E785FEA320203FB0667A5
:10113000C7F5000707FB06F64FEA54374FEAD646D5
:1011400006F1020607FB066CCCF1005C4FEA1C4777
:101150002CEA074C07FB06F40CFB06F504EB1546DE
:101160004FEA961634BF00204FF000404FEAD137C7
:1011700006FB07FC4FEA1C4C0CFB0BF7D21B03FBD6
:101180000CF761EB07010CFB0EF7B0EB074072EBBD
:1011900017420CFB08F734BFA2EB0742B2EB074241
:1011A00061EB17414FEA0C444FEA910706FB07FC3D
:1011B0004FEA1C4C0CFB0BF7B0EBC74072EB5732FD
:1011C00003FB0CF734BFA2EBC742B2EBC74261EBA3
:1011D00057310CFB0EF7B0EBC70072EB57720CFBEC
:1011E00008F734BFA2EBC702B2EBC70261EB57713D
:1011F000039F4FEA816141EA921104EBCC044FEA6C
:10120000D1374FEA826206FB07FC42EA90124FEAAE
:1012100080604FEA1C4C0CFB0BF7D21B03FB0CF756
:1012200061EB07010CFB0EF7B0EB074072EB1742C6
:101230000CFB08F734BFA2EB0742B2EB074261EBAD
:1012400017414FEA8C554FEA910704EB9C2406FBAB
:1012500007FC4FEA1C4C0CFB0BF7B0EBC74072EBE2
:10126000573203FB0CF734BFA2EBC742B2EBC742C5
:1012700061EB57310CFB0EF7B0EBC70072EB577206
:101280000CFB08F734BFA2EBC702B2EBC70261EB5D
:10129000577115EB4C254FEA816141EA92114FEAF3
:1012A00082624FEAD13742EA901206FB07FC44F112
:1012B00000044FEA80604FEA1C4C0CFB0BF7D21B7A
:1012C00003FB0CF761EB07010CFB0EF7B0EB0740DB
:1012D00072EB17420CFB08F734BFA2EB0742B2EBEC
:1012E000074261EB174115EB1C154FEA813141EACA
:1012F00092414FEA823242EA90424FEA80304FEA0E
:101300000C7644F1000448EA03434EEA0B484FF0E0
:10131000000EB2EB080C71EB030724BF624639469E
:101320004EEB0E0E4FF0000B0018524149414BEBB3
:101330000B0BB2EB080C71EB03077BF1000B24BF26
:10134000624639464EEB0E0E4FF0000B001852412C
:1013500049414BEB0B0BB2EB080C71EB03077BF134
:10136000000B24BF624639464EEB0E0E51EA0207CF
:1013700018BF46F0010616EB0E7655F1000254F147
:10138000000103D5BDE88901BDE80088BDE88901F9
:10139000BDE80048B619524141EB0101A3F1010338
:1013A000704780807F7E7D7C7B7A797877767675D2
:1013B0007473727171706F6E6E6D6C6C6B6A6A694A
:1013C0006868676666656464636362616160605FE4
:1013D0005F5E5E5D5D5C5C5B5B5A5A59595858575D
:1013E00057565655555554545353525252515150C5
:1013F00050504F4F4F4E4E4D4D4D4C4C4C4B4B4B18
:101400004A4A4A494949484848474747474646465D
:101410004545454444444443434343424242424198
:101420004141002B9C4630D477002BD01CB54FEAAD
:10143000370703B44FF010004FF01001BAF1000F5E
:1014400006D0BCF1000FDCBF40F0080040F00801FE
:101450004FF000000FBCBDE810400BF1010BBBF1D9
:10146000010F08BF5FEA170722BF12F1010211F155
:1014700001014FF0004143F1000300F0004043EA56
:1014800000007047F9D35708D0E746EA064613F143
:10149000400F4FEA16461FDD13F1200FDFBF164342
:1014A0000A46002120335B42BED0C3F1200746EA42
:1014B000064602FA07F74FEA164646EA0706C3F160
:1014C000200722FA03F201FA07F721FA03F14FF09D
:1014D000000342EA0702A7E746EA020646EA064692
:1014E0004FEA164646EA0106BCBF46EA0646360CF7
:1014F0004FF000034FF000024FF0000194E72DE998
:10150000804C9A46934670B491E8380007C831EA97
:10151000400C48BF34EA430C03D5FFF7E6FDFFF764
:1015200080FFF0BCBDE8008C2DE9804C9A469346C4
:1015300070B491E8380007C810F0804F08BF13F06E
:10154000804F03D100F005F8FFF76BFFF0BCBDE85A
:10155000008C20F07F4780EA030023F07F4C07EBEC
:101560000C03A3F57C5300F00040A3F1FE0392F0BE
:10157000000F00F0B38095F0000F00F077802DE9A8
:1015800001494FEA11404FEA144621EA004800FBA6
:1015900006FC24EA064708FB06F607FB08F800FBF2
:1015A00007F718EB06484CEB164C4FEA124B18EBBA
:1015B00007484FEA15464CEB174022EA0B4E0BFB4F
:1015C00006FC25EA06470EFB06F607FB0EFE0BFBA4
:1015D00007F71EEB064E4CEB164C4FF000061EEBC9
:1015E000074E4CEB174B18EB0B0840F1000018EBC3
:1015F0000E0B58EB000840F100008F1A4FF000016D
:101600003CBFC943661B14BFB5EB040C00213CBFB3
:10161000C943F61B4FEA17444EEA8E0E27EA0445EB
:101620004FEA1C4704FB07622CEA074C05FB07F74F
:101630000CFB05F604FB0CFC16EB074642EB1742CD
:1016400016EB0C4642EB1C421BEB060658EB020263
:10165000414146EA9E0601D5BDE80189B6195241CD
:1016600041EB0101A3F10103BDE801894FEA1445F3
:101670004FEA114724EA054621EA074C05FB07F427
:1016800006FB07F70CFB06F105FB0CFC11EB074111
:1016900044EB17444FEA124711EB0C4144EB1C4456
:1016A00022EA074C05FB07F206FB07F70CFB06F6E0
:1016B00005FB0CFC16EB074642EB174216EB0C46FB
:1016C00042EB1C456A1854F1000148BF7047B61937
:1016D000524141EB0101A3F10103704795F0000F66
:1016E00037D04FEA11424FEA144721EA024624EA72
:1016F000074C02FB07F106FB07F70CFB06F402FBA5
:101700000CFC14EB074441EB17414FEA154714EB6F
:101710000C4441EB1C4125EA074C02FB07F506FB94
:1017200007F70CFB06F602FB0CFC16EB074645EB35
:10173000174516EB0C4645EB1C42121951F10001FE
:1017400048BF7047B619524141EB0101A3F10103B3
:1017500070474FEA14454FEA114724EA054621EA4B
:10176000074C05FB07F106FB07F70CFB06F24FF0F1
:10177000000605FB0CFC12EB074241EB174112EB94
:101780000C4251EB1C4148BF7047921841EB0101DC
:10179000A3F1010370470000F0B585B007460125AD
:1017A0001648CDE9000564242B466B22D021029413
:1017B000384600F09BFBF0B9642000F0BBF803A8AA
:1017C000CDE9000500268DF80C6001231C22D021F4
:1017D0000294384600F08AFB68B904A8CDE90005F8
:1017E0008DF8106001231B22D0210294384600F0AE
:1017F0007DFB002800D0012005B0F0BD10000020C6
:1018000010B50C4600F05CF8002850D1B4F9000087
:1018100000EE100AF8EEC00A9FED250A60EE800A7D
:10182000C4ED040AB4F9020000EE900AF8EEE00AF2
:1018300060EE800AC4ED050AB4F9040000EE900AD7
:10184000F8EEE00A20EE800A84ED060AB4F90600FC
:1018500000EE100AF8EEC00A9FED160A80EE801A1C
:1018600084ED071AB4F9080000EE900AF8EEE00AD9
:1018700080EE801A84ED081AB4F90A0000EE900A8E
:10188000F8EEE00A80EE801A84ED091AB4F90C0033
:101890009FED091A00EE100A0020B8EEC00AC0EE53
:1018A000010A9FED060A30EE800A84ED0A0A10BD97
:1018B00000008038000003430000AA43B81E124213
:1018C0003EB50D46124C64210E220094CDE9012153
:1018D00001233B22D12100F007FA08B101203EBDCF
:1018E000208840BA2880608840BA6880A08840BAC2
:1018F000A880E08840BAA881208940BAE880608941
:1019000040BA2881A08940BA688100203EBD00000D
:1019100088010020FEE77047054D4FF480540122F6
:101920002146284600F010F9022001F07BFEF6E780
:101930000004024070B5044600F00CF90546601C36
:1019400002D004480078044400F004F9401BA0428F
:10195000FAD370BD140000202DE9F84FDFF8BCA1C8
:101960000022012503264FF00F090AF1040BAAF10A
:10197000040E00BF0B6805FA02F42340A34270D1A5
:101980000F7907F00307012F01D0022F16D18768C6
:101990004FEA420806FA08FC27EA0C07D1F80CC007
:1019A0000CFA08FC4CEA070CC0F808C04768A743CB
:1019B0000C79C4F3001494403C4344600C79E44334
:1019C000A4070AD0C4684FEA420C06FA0CF7BC43DD
:1019D0008F6807FA0CF72743C7600C7904F00304FB
:1019E000022C12D1D40800EB840CDCF820405707FD
:1019F000FF0E09FA07F824EA0804D1F8108008FA63
:101A000007F848EA0408CCF8208004684FEA420C42
:101A100006FA0CF7BC430F7907F0030707FA0CF737
:101A2000274307604C6814F4403F70D03C4C276853
:101A300047F480472760246822F0030704F48044B9
:101A40000094384C07EB040CDCF8084897074FEA81
:101A5000177809FA08F7BC43334FB84202D1002780
:101A600024E054E0314FB84201D101271EE0304F4D
:101A7000B84201D1022719E02E4FB84201D1032705
:101A800014E02D4FB84201D104270FE02B4FB8428C
:101A900001D105270AE02A4FB84201D1062705E007
:101AA000284FB84201D1072700E0082707FA08F7B6
:101AB0002743CCF80878DAF800405746D1F804C03C
:101AC0009C435FEACC2C00D51C433C60DBF8004013
:101AD0005F46D1F804C09C435FEA8C2C00D51C43C0
:101AE0003C60DEF800407746D1F804C09C435FEAD2
:101AF0008C3C00D51C433C60084F083F3C68D1F843
:101B000004C09C435FEACC3C00D51C433C60521CA3
:101B1000102AFFF42FAFBDE8F88F0000083C014009
:101B200044380240003001400000024000040240FE
:101B300000080240000C0240001002400014024065
:101B400000180240001C02400AB18161704709047C
:101B5000FBE7000001488068704700001400002087
:101B600070B5040025D094F83D00002520B984F814
:101B70003C50204600F052FA242084F83D002068B2
:101B8000016821F0010101602068016841F4004111
:101B900001602068016821F40041016000F0F6FB5B
:101BA0004D4A6168914201D84C4900E04C49884255
:101BB00001D2012070BD4B492368B0FBF1F15E6892
:101BC00026F03F060E435E606368934206D94FF4E9
:101BD000967359434FF47A73B1FBF3F12368491CB0
:101BE0001E6A26F03F06314319626168914210D89F
:101BF0004900401EB0FBF1F2521CC2F30B02042A52
:101C000001D2042022E0B0FBF1F0401CC0F30B0035
:101C10001CE0A268F2B301EBC10303EB0116431E03
:101C2000B3FBF6F35B1C43F480431B0549D092B32E
:101C300001EBC10202EB0111401EB0FBF1F0401CB0
:101C4000C0F30B0040F4804040F400402168CA69B2
:101C50004CF6FF739A431043C861D4E9071001435F
:101C60002068026822F0C00211430160D4E9030138
:101C700001432068826848F2FF339A431143816030
:101C8000D4E9050108432168CA6822F0FF02104325
:101C9000C86001E00EE016E02068016841F0010133
:101CA00001602564202084F83D00256384F83E50BF
:101CB000002070BD01EB4106431EB3FBF6F35B1C35
:101CC000B3E70120C2E701EB4101401EB0FBF1F098
:101CD000401CC0F30B00B7E7A086010080841E0003
:101CE00000093D0040420F002DE9FF4F83B09A46A6
:101CF000DDE9118793460446DDF84090FFF72AFF9F
:101D0000054694F83D00202870D11923012274491A
:101D10002046009501F026F80028F5D194F83C0003
:101D2000012863D0012084F83C0020680168C907BD
:101D300003D1016841F0010101602068016821F4CC
:101D400000610160222084F83D00402084F83E00BC
:101D500000262664C4F82490A4F82A80608D20858B
:101D60006048E062CDE9007553465A462046049922
:101D700000F0FAFE002879D1208DD0B1012821D0C1
:101D80000228206824D0416980690090208D0328B2
:101D900066D801282BD0544902283B464FF0000258
:101DA000009557D08846204600F0DCFF00285DD122
:101DB0003AE02068416981690091016841F400714D
:101DC00001607DE02068016821F480610160F0E736
:101DD000016821F4806101602068016841F40061BC
:101DE0000160206841698069009069E075E02A46D9
:101DF0003946204601F05CF888BB54E02068016851
:101E000041F40071016020680069616A0870606ACD
:101E1000401C6062218D491E2185618D491E6185AE
:101E200021680969017042E02068016821F480613D
:101E3000016020680069616A0870606A401C606225
:101E4000208D401E2085608D401E60853B4600220F
:101E500041460095204600F085FF00B9CEE705E039
:101E60002A463946204601F023F818B1012007B070
:101E7000BDE8F08F20680069616A0870606A401CE4
:101E80006062208D401E81B22185608D401E60857C
:101E900020684269D243520712D4032903D1016852
:101EA00021F48061016020680069616A0870606ADD
:101EB000401C6062208D401E2085608D401E608524
:101EC000208D00287FF462AF202084F83D0084F844
:101ED0003E6084F83C600020C9E70220C7E70000AC
:101EE000020010000000FFFF040001002DE9FF4F79
:101EF00083B09A46DDE9119793460446DDF84080A9
:101F0000FFF728FE054694F83D0020287FD11923CD
:101F1000012240492046009500F024FF002876D198
:101F200094F83C00012872D0012084F83C0020681D
:101F30000168C90703D1016841F00101016020680F
:101F4000016821F400610160212084F83D004020F7
:101F500084F83E0000262664C4F82480A4F82A9061
:101F6000608D20852C48E062CDE9007553465A46C5
:101F70002046049900F076FE70B930E02A463946D2
:101F8000204600F0CDFF58B1206C042804D1206811
:101F9000016841F400710160012007B0BDE8F08FD5
:101FA000606A216800780861606A401C6062218D67
:101FB000491E89B22185628D521E6285226853694D
:101FC000DB435B070BD469B100781061606A401C89
:101FD0006062208D401E2085608D401E6085208DB2
:101FE0000028CBD12A463946204600F08FFE002833
:101FF000CAD154F83D0B016841F400710160202002
:1020000004F81E09E67766770020C6E7FFE702209E
:10201000C3E70000020010000000FFFF10B586B00B
:10202000044614216846FEF775FB13492068884270
:1020300020D112480021026842F0020202600068CA
:1020400000F002000590C02000901220CDE90101AF
:10205000032003900420049069460948FFF77CFCA4
:1020600006481030016841F400110160006800F476
:102070000010059006B010BD0054004030380240FA
:102080000004024002488168027811448160704770
:10209000140000200B4810B5016841F40071016084
:1020A000016841F480610160016841F48071016060
:1020B000032000F09FF80F2000F006F800F050F821
:1020C000002010BD003C024030B505461F4887B0D7
:1020D0000024016841F004010160006806A900F0D5
:1020E0000400009001A800F031F90498A8B100F0B4
:1020F0004DF940001649174AB0FBF1F11648491E48
:10210000026040F2E732C0E90324C0E901148461AF
:1021100000F046FB040003D015E000F037F9E9E7D2
:102120000D4800F06BFB04000DD11E2000F034F8C8
:10213000102D07D2002229461E2000F03BF8074848
:10214000056000E0012407B0204630BD4038024061
:1021500040420F000008004040010020180000200D
:102160000C4882B0016841F480410160006800F4CD
:10217000804000900748001F016841F080510160D5
:102180000068002200F0805000900F21901E02B0E5
:1021900000F010B844380240002809DB00F01F02AC
:1021A000012191404009800000F1E020C0F80011B9
:1021B00070470000F0B40E4B1B680C46C3F30223BB
:1021C000C3F10705042D00D90425191D072901D2E3
:1021D000002300E0DB1E012606FA05F1491E21401E
:1021E00099409E40761E16403143F0BC01F0B0B9D4
:1021F0000CED00E0064900F0070208684FF6FF0307
:10220000184040EA0220034A10430860704700006B
:102210000CED00E00000FA052DE9F0470E46050040
:1022200065D0DFF81481D8F80000F7B200F007009D
:10223000B04207D288F80070D8F8000000F007001C
:10224000B04254D128683D4C810712D5400703D5D0
:10225000206840F4E05020602878000703D520680B
:1022600040F4604020602068A96820F0F000084336
:1022700020602878C0072DD03049686808390128C7
:1022800012D0022813D0032811D009688907002929
:102290002DDA216821F0030101432160FFF75AFC88
:1022A000814641F2883A0EE009688903EFE7096840
:1022B0008901ECE7FFF74EFCA0EB0901514502D97B
:1022C0000320BDE8F0872068696800F00C00B0EBDF
:1022D000810FEFD1D8F80010404601F00701B1425C
:1022E00007D90770006800F00700B04201D0012054
:1022F000E7E72878400705D52068E96820F4E05032
:10230000084320602878000706D52068296920F452
:10231000604040EAC100206000F058F82168084A97
:10232000C1F30311515CC8400649086006480068C3
:10233000FFF7CAFE0020C4E7003C02400838024014
:10234000A84F000820000020180000200F22026083
:102350000C4A136803F003034360136803F0F003AF
:102360008360136803F4E053C36012684FF4E053D2
:1023700003EAD20202610448006800F00700086026
:102380007047000008380240003C024004480549FC
:1023900000680968044AC1F38221515CC840704753
:1023A0002000002008380240B84F000804480549C2
:1023B00000680968044AC1F34231515CC840704763
:1023C0002000002008380240B84F0008154810B51A
:1023D000006810F00C02144813D01449042A0FD0DE
:1023E000082A0ED10F4C241F2268236802F03F02F6
:1023F0005B0207D52068C0F38810A0FB010106E04E
:10240000084610BD2168C1F38811A1FB000100231B
:10241000FDF79AFF2168C1F30141491C4900B0FB57
:10242000F1F010BD083802400024F40040787D012E
:102430002DE9F84F04006ED02078DFF84C93C007E8
:10244000A9F104054AD009F104000168C1F3810132
:10245000012908D00068C0F3810002280AD1D9F808
:102460000000400206D52868800337D56068002840
:10247000E1D033E06068B0F5803F10D0B0F5A02F18
:10248000286810D020F480302860286820F480204C
:1024900028606068A8B1FFF75DFB06460DE028687C
:1024A00040F48030F4E740F480202860F7E700BF74
:1024B000FFF750FB801B642873D828688003F7D58A
:1024C0000CE0FFF747FB064605E000BFFFF742FBC5
:1024D000801B6428F0D828688003F7D42078DFF8C0
:1024E000AC8280074FF0000A3ED5A748001D016866
:1024F00011F00C0F08D00068C0F3810002280BD146
:10250000D9F80000400207D42868800716D5E06893
:10251000012800D112E033E1E068B8B10120C8F829
:102520000000FFF717FB064605E000BFFFF712FBB0
:10253000801B0228C0D828688007F7D52868216941
:1025400020F0F80040EAC10028600DE0C8F800A0C3
:10255000FFF700FB064604E0FFF7FCFA801B0228A9
:102560001FD828688007F7D42078000722D5864F27
:1025700087486169703771B101210160FFF7EAFA9C
:10258000064604E0FFF7E6FA801B022809D83868FF
:102590008007F7D50EE0C0F800A0FFF7DBFA06468B
:1025A00005E082E0FFF7D6FA801B02287DD8386864
:1025B0008007F7D42078400768D5DFF8CCB1002732
:1025C0000BF13C0BDBF80000C0000BD4DBF8001073
:1025D00041F08051CBF80010DBF80000012700F03B
:1025E000805000906B4E3068C00510D4306840F4C5
:1025F00080703060FFF7AEFA009005E0FFF7AAFAAE
:102600000099401A022850D83068C005F6D55E4EB1
:10261000A0686C3601280FD00528306810D020F053
:1026200001003060306820F004003060A068B8B16C
:10263000FFF790FA00900FE0306840F00100F4E7F7
:1026400040F004003060F7E7FFF784FA0099411A80
:1026500041F28830814266D830688007F4D50EE0B8
:10266000FFF778FA009007E0FFF774FA0099411A33
:1026700041F28830814256D830688007F4D42FB1B7
:10268000DBF8001021F08051CBF80010A069C8B32E
:102690003D49091D0968C1F3810102294AD0022878
:1026A000504607D0C8F8600000E03CE0FFF752FA5F
:1026B00004463BE04746C8F86000FFF74BFA064681
:1026C00005E000BFFFF746FA801B02282BD82868D8
:1026D0008001F7D4D4E907010843A16A2E4A4908CA
:1026E00002EB0141626A41EA8211084394F82C101E
:1026F00040EA0161C9F8001001203866FFF72AFAA4
:10270000044606E03EE000BFFFF724FA001B022863
:1027100009D828688001F7D534E000BFFFF71AFA1E
:10272000001B022802D90320BDE8F88F2868800129
:10273000F4D427E00128F7D0D9F80000E26900F4CA
:10274000800191421CD1226A00F03F01914217D1D1
:1027500047F6C071626A0140B1EB821F10D1A26AD4
:102760004FF0FF3300F4403103EB5202B1EB024F64
:1027700006D194F82C1000F07060B0EB016F01D01E
:102780000120D1E70020CFE7043802400000474293
:10279000800E4742007000400000FFFF7047704706
:1027A00010B5040003D094F83D0010B107E00120FB
:1027B00010BD002084F83C00204600F01EF80220E6
:1027C00084F83D00211D206800F02EFD012084F8D2
:1027D000460084F83E0084F83F0084F8400084F806
:1027E000410084F8420084F8430084F8440084F8EF
:1027F000450084F83D00002010BD704790F83D1062
:10280000012901D001207047022180F83D100168A4
:10281000CA6842F00102CA6000681149884214D0B7
:10282000B0F1804F11D00F4988420ED00E49884236
:102830000BD00E49884208D00D49884205D00D4979
:10284000884202D00C49884204D1816801F0070116
:10285000062903D0016841F00101016000207047A2
:10286000000001400004004000080040000C00404F
:1028700000040140004001400018004070472DE96D
:10288000F04104460068C66805694FF00007A907D3
:1028900013D5B10711D5F91E0161012020772068F9
:1028A00080698007204602D0FFF7E8FF04E000F0CF
:1028B0007EF8204600F07CF82777680716D5700769
:1028C00014D521686FF00400086102202077206889
:1028D000806910F4407F204602D0FFF7CFFF04E06C
:1028E00000F065F8204600F063F82777280715D533
:1028F000300713D521686FF00800086104202077A5
:102900002068C0698007204602D0FFF7B7FF04E0C7
:1029100000F04DF8204600F04BF82777E80616D572
:10292000F00614D521686FF01000086108202077A8
:102930002068C06910F4407F204602D0FFF79EFF58
:1029400004E000F034F8204600F032F82777E8077A
:1029500008D0F00706D021686FF00100086120461A
:1029600000F028F8280608D5300606D521686FF053
:10297000800008612046FFF711FF680608D5700641
:1029800006D521686FF040000861204600F01CF871
:10299000A8060AD5B00608D521686FF020000861A6
:1029A0002046BDE8F041FFF7FABEBDE8F081704770
:1029B0007047000000680349884201D1FFF762BBFD
:1029C0007047000000080040704770B5040004D054
:1029D00094F84100002510B106E0012070BD84F894
:1029E0004050204600F024F8242084F8410020685C
:1029F000C16821F40051C160204600F0A5FC2068A8
:102A0000016921F4904101612068416921F02A01A6
:102A100041612068C16841F40051C16065642020B3
:102A200084F8410084F842006563002070BD000016
:102A300010B586B0044614216846FDF76BFE1349B5
:102A4000206888421FD112480021026842F4002207
:102A50000260006800F4002005900D4810380268FC
:102A600042F0010202600068022200F001000590BD
:102A70000320CDE90210CDE9000208200490694648
:102A80000448FEF769FF06B010BD0000004C00408E
:102A900040380240000002402DE9F843044690F817
:102AA0004100984616460D46202802D00220BDE877
:102AB000F88385B17EB100206064212084F8410054
:102AC000FFF748F8A6848146E684A0682027B0F581
:102AD000805F02D003E00120E9E7206910B12E46B3
:102AE00000250EE000260CE08021204600F0DEFCF0
:102AF000A8B9C6B116F8010B21684860E08C401EE9
:102B0000E084E08C4B464FF00002CDF800800028B6
:102B1000EAD14FF04001204600F0C8FC40B184F8F3
:102B200041700320C3E735F8020BC0F30800E3E768
:102B300084F841700020BAE7FEE701684A69D24391
:102B400052050FD46FF480624A61002140F8301FB3
:102B5000202242738173026942F004020261017310
:102B600001207047002070472DE9F84F04460068A7
:102B700089460B9D01689846174641F480610160C3
:102B80002068016841F48071016000954FF0011BDD
:102B90000022594620460A9B00F0E4F84FF4007AE0
:102BA00040B120680068C00501D5C4F840A00320EA
:102BB000BDE8F88F216809F0FE0008612B4628491E
:102BC00020460A9A00F016F9F0BB20684169806936
:102BD00000902A4620460A9900F0A2F940B1206CE4
:102BE00004283AD12068016841F40071016034E0A2
:102BF000FEB2B8F1010F09D02168380A08612A46EF
:102C000020460A9900F08CF90028E8D12068066176
:102C10002A4620460A9900F083F90028DFD120686F
:102C2000016841F4807101600095002259462046F8
:102C30000A9B00F097F80028B3D1216809F0FF0043
:102C400040F00100086100E007E02B4604492046FF
:102C50000A9A00F0CFF80028AAD00120A8E70000C7
:102C6000020001002DE9F843044600680D46DDE945
:102C7000089701689846164641F4807101604B46FA
:102C800000224FF001112046009700F06BF848B188
:102C900020680068C00502D54FF40070206403204E
:102CA000BDE8F883216805F0FE0008613B464A460E
:102CB0001549204600F09EF888B92068416980696E
:102CC00000903A464946204600F02AF948B1206C67
:102CD000042804D12068016841F4007101600120DA
:102CE000DEE7F5B2B8F1010F09D02168300A0861BA
:102CF0003A464946204600F013F90028E7D12068FB
:102D000005610020CCE700000200010070B5164606
:102D10000D4604461EE02046FFF70FFF08B10120D4
:102D200070BD681C16D0FEF715FF801BA84200D8A6
:102D300085B920684069C04340070BD5002044F89E
:102D4000300F20216173A073216941F020012161BE
:102D50002073E4E720684069C0434007DBD40020CB
:102D600070BD00002DE9F047984617460D46044611
:102D7000C1F30746DDF820902AE000BFB8F1FF3F1D
:102D800026D0FEF7E7FEA0EB0901414502D8B8F1D5
:102D9000000F1DD12068012E16D0806925EA0000A1
:102DA0000004000C12D00020B84211D1002044F8D9
:102DB000300F20216173A073216941F0200121614E
:102DC00020730120BDE8F0874069E7E70120EBE7C9
:102DD0002068012E0AD0806925EA00000004000C5A
:102DE00006D00020B842C9D00020EBE74069F3E7E5
:102DF0000120F7E72DE9F047984616460D460446B0
:102E00004FF000094FF0200AC1F3074723E0206884
:102E10004069C043400515D42068016841F4007141
:102E2000016021686FF480604861C4F8309084F8D4
:102E30003DA084F83E90216C41F00401216484F8A7
:102E40003C9021E0701C06D0FEF784FEA0EB080049
:102E5000B04203D816B1012F1FD021E02068012F06
:102E600015D0806925EA00000004000C18D000BFCE
:102E700044F8309F84F80DA084F80E90216941F049
:102E80002001216184F80C900120BDE8F0874069A1
:102E900025EA00000004000CEAD12068406901E046
:102EA0002068806925EA00000004000CAFD1ECE73F
:102EB0002DE9F041002590460E460446202728E0E3
:102EC0004069C043C0060CD454F8301B6FF01000AA
:102ED000486144F810596777A577206A2062257702
:102EE00014E0FEF737FEA0EB0800B04200D886B928
:102EF00020684069C04340060BD544F8305F6773D3
:102F0000A573206940F02000206125730120BDE8F1
:102F1000F08120684169C9434906D1D40020F6E711
:102F200070B516460D4604461EE02046FFF705FE26
:102F300008B1012070BD681C16D0FEF70BFE801B87
:102F4000A84200D885B920684069C04300060BD567
:102F5000002044F8300F20216173A073216941F0F3
:102F6000200121612073E4E720684069C043000626
:102F7000DBD4002070BD0000B0B04FF47A7000F0D8
:102F800051FB3248FEF708FC4FF6FF7408B130A140
:102F900000E038A10CA8FDF74FFA0CA8FDF74EFB96
:102FA00082B22A4823460CA95430FFF775FD25A9A3
:102FB0002648FEF725FC90B137A10CA8FDF73CFA96
:102FC0000CA8FDF73BFB82B220484FF6FF730CA91B
:102FD0005430FFF761FD642000F024FBE7E72F98F1
:102FE00001F022FF06460F462E9801F01DFF044611
:102FF0000D462D9801F018FFCDE902012C9801F043
:1030000013FFCDE900012B9801F00EFF82468B469D
:103010002A9801F009FF80468946299801F004FFAB
:1030200041EC100B08A853EC102B80E8F000DDE910
:103030000201CDE90601DDE90001CDE904018DE8D9
:10304000000F1B490CA8FDF7F7F9B9E7A400002011
:103050004D50553630353020496E697469616C6960
:103060007A6174696F6E204661696C6564210D0A2E
:10307000000000004D50553630353020496E6974DF
:1030800069616C697A6174696F6E205375636365F9
:103090007373210D0A0000004D5055363035302035
:1030A00052656164204572726F72210D0A00000042
:1030B0005450000870B586B014216846FDF72AFB0D
:1030C00016480024016841F080010160016801F0A8
:1030D00080010591016841F001010160016801F082
:1030E00001010591016841F00201016000680C4E88
:1030F00000F002004FF4805505900022294630462A
:10310000FEF722FD01200095CDE901046946304615
:103110000394FEF721FC06B070BD00003038024079
:10312000000402400B4810B5094901604FF4E13139
:103130004160002181600C22C160C0E904128161FC
:10314000C161FFF742FC002801D072B6FEE710BD56
:10315000004C0040F8000020FEE7FEE710B54FF0FD
:10316000E020006901F08EFC012803D0BDE810408A
:1031700001F0BCB910BD000030B593B030216846F5
:10318000FDF7C8FA14210CA8FDF7C4FA1D48002564
:10319000016841F080510160006800F0805011909A
:1031A0001948016841F4804101600068022400F47C
:1031B0008040119001200390102004900094069408
:1031C0000820CDE90750A820CDE9090404200B9080
:1031D0006846FFF72DF908B172B6FEE70CA90F207B
:1031E00081E831004FF4A0500F904FF480501090C0
:1031F00005210CA8FFF710F8002801D072B6FEE7F1
:1032000013B030BD403802400070004002480168F1
:1032100041F470010160704788ED00E00148FFF75C
:103220002EBB000040010020F0B50268274B284D5E
:10323000284E294F294C4FF0804C984209D06045C8
:1032400007D0A84205D0B04203D0B84201D0A04276
:1032500004D122F0700E4A6842EA0E0298421BD056
:10326000604519D0A84217D0B04215D0B84213D04B
:10327000A04211D01A4DA8420ED01A4DA8420BD030
:10328000194DA84208D0194DA84205D0184DA842A2
:1032900002D0184DA84203D122F44075CA682A43CF
:1032A0004D6922F080022A438D68C5620D688562EF
:1032B000984201D0A04201D109690163016841F03F
:1032C00004010160012141610260F0BD0000014084
:1032D0000004004000080040000C004000040140D1
:1032E00000400140004401400048014000180040F7
:1032F000001C00400020004001680C3151E8002F04
:1033000022F4907241E80023002BF5D101681431BA
:1033100051E8002F22F0010241E80023002BF5D1F3
:10332000016B012909D101680C3151E8002F22F00D
:10333000100241E80023002BF5D1202180F8421033
:10334000002101637047000070B504460068016900
:10335000E26821F44051114301612169A068E269EA
:1033600008436169114308432168CA6849F20C6344
:103370009A430243CA6020684169A26921F44071FE
:103380001143416131492068884202D03049884266
:1033900002D1FFF70BF801E0FEF7F8FFE269002326
:1033A000192164253226B2F5004F626828D0A0FBAF
:1033B0000101930F9200FCF7C7FF0146B0FBF5F047
:1033C0006FF01802504301EB800006EB0010B0FBD9
:1033D000F5F000F0F002B1FBF5F002EB0012B1FBEA
:1033E000F5F06FF01803584301EB800006EB001076
:1033F000B0FBF5F000F00F0021681044886070BD4C
:10340000A0FB010192185B41FCF79EFF0146B0FB57
:10341000F5F00201B1FBF5F06FF01803584301EB32
:10342000800006EBC000B0FBF5F000F0F80002EB06
:103430004002B1FBF5F0584301EB800006EBC00001
:10344000B0FBF5F000F00700D6E7000000100140E7
:10345000001401408EB04FF47A750024284600F025
:10346000E1F84FF6FF76641C224608A16846FCF797
:10347000E3FF6846FDF7E2F882B2334669460A4840
:10348000FFF70AFB284600F0CDF8ECE7554152540F
:10349000204D65737361676520436F756E743A20C4
:1034A000256C750D0A000000F80000202DE9F84396
:1034B000984617460D460446089E24E0701C22D00C
:1034C000FEF748FBA0EB0800B0421AD8CEB1206846
:1034D000C168490717D5802D15D0402D13D001683C
:1034E000C94309070FD401680025406800902046B1
:1034F000FFF702FF0820606484F840500120BDE817
:10350000F8830320FBE72068006835EA000004D058
:103510000020B842D2D00020F1E70120F9E7FEE711
:1035200003B401984100009850EAC12018BF04205C
:103530004A0D18BF40F0010040F2FF72B2EB515F3C
:1035400008BF40F00200012808BF052002B0704704
:103550000907090E002804DB00F1E02080F80014C0
:10356000704700F00F0000F1E02080F8141D704754
:1035700030380A2801D2012070470020704700002F
:10358000FEF788FDFFF7F8FDFFF794FDFFF7CAFD92
:103590001D481C494FF4804201601C4941600021D4
:1035A0008160C0E9031241618161C1610162FEF77E
:1035B000D7FA08B172B6FEE7FFF77CFDFFF7B2FD60
:1035C00000F03EF8124A0021124800F067F8124C51
:1035D0000F4A002120602432104800F05FF80C4AA6
:1035E0006060483200210E4800F058F8084AA06098
:1035F0006C320021074800F051F8E06000F032F82A
:10360000FEE7000000540040A4000020A086010056
:10361000184F000819190008000000205534000850
:10362000792F000810B5EFF3058111B16FF0050493
:1036300003E0002408B100F0F9FD204610BD0000B1
:10364000EFF3058010B16FF0050070470448016882
:1036500011B14FF0FF307047012101600020704729
:103660007400002010B5EFF3058010B16FF0050075
:1036700010BD08480168012902D04FF0FF3010BD8D
:10368000054A002182F8141D0221016000F036FE77
:10369000002010BD740000200BE000E02DE9FF4188
:1036A0004FEA01034FF00005EFF30581039549BB95
:1036B00040B38027182100244AB3166806B1344667
:1036C00096691EB13146761E382E02D21679F6075B
:1036D00003D0002004B0BDE8F081566906B1B708F8
:1036E000D2F808C0BCF1000F0DD0D5685C2D18D3FE
:1036F00012693AB136B18DE806103A46214601F01A
:1037000096F903900DE0D6685EB912694AB903AA2A
:10371000CDE90012BAB2214601F05CF9012800D0CF
:1037200003950398D6E700002DE9F041134C0F46AE
:103730000546E6682068001D00F044FC681C07D1BF
:1037400037B12168BDE8F0410D48091D00F08ABC81
:1037500020683544B5424560216805D2A06BBDE8BC
:10376000F041091D00F066BC606B091D00F062FCB1
:10377000A06A854200D2A562BDE8F0812400002045
:10378000880600202DE9F041054600F077FC2D4C1D
:10379000A068401CA06020682B4F10B1606930B356
:1037A0002BE02560A068012827D1002606EB8600C3
:1037B00007EB800000F030FC761C382EF6D323484F
:1037C00000F02AFC2148143000F026FC1F48283065
:1037D00000F022FC1D483C3000F01EFC1B4850301D
:1037E00000F01AFC194860631430A06305E02068FB
:1037F000E96AC06A884200D82560606A401C60623D
:103800006864E86A2169884200D9206100EB800081
:1038100007EB8000291D00F025FC00F04FFC6069DB
:1038200000280CD02068E96AC06A884207D208499B
:103830004FF080500860BFF34F8FBFF36F8FBDE82C
:10384000F081000024000020D8010020380600206C
:1038500004ED00E038B500F011FC104C2068C8B948
:103860000F4800F0D9FB0E48143000F0D5FB0C488F
:10387000E060143020610A4B0020F03B009003F11F
:10388000500210210A2000F047FE206010B105A16F
:1038900000F096FCBDE8384000F010BC600000204D
:1038A0008C070020546D72510000000030B4026C8F
:1038B0000B46002A0BD0C1681144C1608468A14244
:1038C00001D30168C16030BC1846FCF7D6BE30BCDD
:1038D00070472DE9F041856B174604460026026CBF
:1038E00082B1C7B1E068FCF7C8FEE168206C091A34
:1038F000E1602268914202D2A168081AE060022FBA
:1039000016D017E02068A8B9A06801F033F9064680
:103910000020A0600EE06068FCF7AFFE216C6068DC
:1039200008446060A168884204D32068606001E0B8
:1039300005B16D1E6D1CA5633046BDE8F08110B564
:10394000044690F8590058B101280CD002280FD035
:10395000502080F31188BFF34F8FBFF36F8FFEE7C6
:10396000206B00F0BFFB2046BDE8104000F0BABB62
:1039700010BD000010484FF47051420706D0C01D22
:103980000D4920F00700411AC1F570510B4A002380
:103990000144C2E900030839183A21F00701116017
:1039A0004B600B600B1AC0E9001393604FF00040AE
:1039B00053605061704700006C0E002090000020A2
:1039C000144E154CA6F29C474FF08058DFF84C90EF
:1039D00012E000BF00F052FBF068C568281D00F03F
:1039E000F1FAA068401EA0606068401E606000F0B0
:1039F00065FB2846FFF7A3FF60680028EAD1386816
:103A00000128F9D9C9F80080BFF34F8FBFF36F8F3A
:103A1000F2E70000740600202400002004ED00E01E
:103A200070B51D46049C51B1C4F80020C4E90F01D3
:103A30000121204600F0A4FD84F84C5070BD2460A4
:103A4000F4E700002DE9F05F8846DDE90B941546A8
:103A5000834691009A460A9EA522206BFCF752FEEF
:103A60006FF00301206B01EB8501084420F007078C
:103A7000780707D0502080F31188BFF34F8FBFF332
:103A80006F8FFEE70025B8F1000F0FD05FF0000048
:103A9000221818F8001082F8341018F8001011B12C
:103AA000401C1028F4D384F8435001E084F83450CB
:103AB000382E00D33726E662C4E91365201D00F0D6
:103AC000B6FA04F1180000F0B2FA2461C6F1380029
:103AD0006462A061656584F858505246594638467C
:103AE00000F05AFA2060B9F1000F01D0C9F8004087
:103AF000BDE8F09F30B5114900E011460A688242E6
:103B0000FBD34B685C18844203D14068184448607A
:103B1000084643681C18944209D1084C183C246894
:103B2000A24209D052681A4442600A6812680260D0
:103B3000814200D0086030BD0460F9E790000020A9
:103B400070B5002441600B4D0061914206D8D11A36
:103B50008269914206D2011D286907E09A4203D288
:103B6000994201D3012403E0011DE86800F062FAE4
:103B7000204670BD6000002010B5044600F07EFABB
:103B8000A06B28B15FF0000400F098FA204610BD49
:103B90000124F9E730B589B03C4D6EE00498002867
:103BA00006DADDE90601059A90470498002864DBEF
:103BB000069C606910B1201D00F004FA03A800F013
:103BC000D7F8024604980A2857D2DFE800F0050526
:103BD000052D334A05052D3394F8280040F00100E7
:103BE00084F828000599A069059B01442046FFF749
:103BF000A7FF68B3216A2046884794F82800400749
:103C00003BD5002000900598A16900234218194671
:103C1000204601F0B9F8D8B9502080F31188BFF3DD
:103C20004F8FBFF36F8FFEE714F8280F20F00100CD
:103C3000207022E094F8280040F0010084F8280069
:103C40000598A06128B1811813462046FFF778FF38
:103C500013E0502080F31188BFF34F8FBFF36F8FB5
:103C6000FEE794F82800810703D4204600F03AFAD2
:103C700003E020F0010084F82800002204A928684D
:103C800000F0D2FD002889D109B030BD60000020CD
:103C90002DE9FC410F46054600F074FB01A800F039
:103CA00067F80446019818B100F0DCFFBDE8FC811C
:103CB000254EAFB130690068D0B30027291B3A46C2
:103CC000306800F091FA00F0CDFF0028EED11F49D6
:103CD0004FF080500860BFF34F8FBFF36F8FE5E761
:103CE000A542EBD800F0BEFFF0682746C068C46864
:103CF000201D00F067F994F82800410719D5A06944
:103D00002B4641193A462046FFF71AFFA8B100207A
:103D10000346014600902A46204601F035F860B976
:103D2000502080F31188BFF34F8FBFF36F8FFEE7F2
:103D300007E020F0010084F82800216A2046884727
:103D4000B4E70127BAE700006000002004ED00E0BE
:103D50000648416B096829B1416BC968C96849685F
:103D6000816270474FF0FF31FAE700002400002025
:103D700070B5054600F094FE064E0446B0688442D5
:103D800003D200F009F8012000E00020286020465E
:103D9000B46070BD60000020F8B5194D20E0C06827
:103DA000C4680668201D00F00DF9216A2046884786
:103DB00094F82800400713D5A0693044B04206D9D2
:103DC00024616060211DE86800F034F908E00020FB
:103DD0000346014600903246204600F0D5FF38B138
:103DE000E86801680029DAD12969C5E90310F8BD3E
:103DF000502080F31188BFF34F8FBFF36F8FFEE722
:103E00006000002008484068401C4FF0500080F3DC
:103E1000118804D0BFF34F8FBFF36F8FFEE7BFF35E
:103E20004F8FBFF36F8FFEE798000020074CE068CC
:103E3000016841B1C0680021D0F80000FFF728FFF9
:103E4000FFF7A8FEF3E701210020F7E7600000205C
:103E50002DE9F041044600F011F994F9455004F1C0
:103E6000240609E0606A48B1304600F0C3FE08B19C
:103E700000F00AFA6D1E6DB2002DF3DC4FF0FF3634
:103E800084F8456000F01AF900F0F8F894F944500D
:103E900004F1100709E0206948B1384600F0AAFE95
:103EA00008B100F0F1F96D1E6DB2002DF3DC84F85D
:103EB0004460BDE8F04100F001B900002DE9F04197
:103EC0000546002700F05EFA324E306808B9FFF769
:103ED00051FD706905424ED1C5B3083568070ED053
:103EE00005F00700C0F108000544680707D050201E
:103EF00080F31188BFF34F8FBFF36F8FFEE72DB3B1
:103F00007068854237D82348183001460C6801E0B4
:103F100020460C466168A94202D221680029F7D1E7
:103F200031688C4227D007682168016060680837D3
:103F3000411B10290FD96019420708D0502080F387
:103F40001188BFF34F8FBFF36F8FFEE713E041601F
:103F50006560FFF7CFFD61687068401A7060B268F5
:103F6000904200D2B060706901430020C4E90001B2
:103F7000F068401CF06000F075FE780707D0502014
:103F800080F31188BFF34F8FBFF36F8FFEE7384682
:103F9000BDE8F0817800002010B5031F4FF0807459
:103FA0001C601B1F21F001011960191F044B0B60DD
:103FB00014390A60091F6FF0020244380A6010BD0C
:103FC000053E0008D0E9013201699A60D0E9012379
:103FD0005A604A68824201D182684A6000220261C6
:103FE0000868401E0860086870470000034B0360C3
:103FF00003F15C000860802010607047B407002067
:10400000044B036003F15C0008604FF480701060A3
:1040100070470000100A002000F108014FF0FF3245
:10402000C0E90112C16001610021016070470021F7
:104030000161704730B50B685A1C02D000F10802CC
:1040400002E0026904E02246546825689D42FAD9DC
:1040500053684B6099608A60516008610168491C2F
:10406000016030BD42684A6093688B609368596014
:10407000916008610168491C01607047502080F31D
:104080001188BFF34F8FBFF36F8F0A494868401CF8
:10409000486001280CD10848006810F0FF0F07D0D5
:1040A000502080F31188BFF34F8FBFF36F8FFEE76F
:1040B000704700009800002004ED00E008494868BF
:1040C00028B1401E486001D180F31188704750200C
:1040D00080F31188BFF34F8FBFF36F8FFEE70000AF
:1040E0009800002070B500282AD0164DA0F10804D1
:1040F00060686969084207D1502080F31188BFF3D6
:104100004F8FBFF36F8FFEE722683AB1502080F3E4
:104110001188BFF34F8FBFF36F8FFEE78843606056
:1041200000F030F960686968084468602046FFF76D
:10413000E1FC2869401C2861BDE8704000F092BD98
:1041400070BD0000780000204FF0E02000210161E8
:10415000816105494FF47A720968B1FBF2F1491E99
:1041600041610721016170472000002010B5FCF774
:10417000C7F8114910280ED300F1E02090F8F003A1
:104180000A78904207D2502080F31188BFF34F8FF6
:10419000BFF36F8FFEE709480068896800F4E060AC
:1041A000884207D9502080F31188BFF34F8FBFF3A7
:1041B0006F8FFEE710BD0000980000200CED00E0BE
:1041C00010B5084B002200BF53F832401CB1521CFE
:1041D000082AF9D310BD43F8321003EBC20148603E
:1041E00010BD00009801002070B515460E4604462B
:1041F000FFF744FF94F944100020491C01D184F8D2
:10420000440094F94510491C01D184F84500FFF79A
:1042100055FFA06B28B92A46314604F1240000F06E
:1042200051F82046BDE87040FFF712BE10B50200FD
:1042300014D00F48006B38B1502080F31188BFF3C1
:104240004F8FBFF36F8FFEE700F09CF80021104600
:10425000FFF76AFA00F006FD002807D105494FF084
:1042600080500860BFF34F8FBFF36F8F10BD000009
:104270002400002004ED00E002490A6A0260C968D7
:10428000416070472400002001490120C861704747
:104290002400002010B50C4650B1094909681831B6
:1042A000FFF7C8FE2046BDE810400121FFF73CBAE9
:1042B000502080F31188BFF34F8FBFF36F8FFEE75D
:1042C0002400002070B514460D4668B10A490968FB
:1042D0001831FFF7C7FE0CB14FF0FF3521462846D5
:1042E000BDE87040FFF720BA502080F31188BFF37B
:1042F0004F8FBFF36F8FFEE72400002030B587B0EB
:104300000024039405AA04A903A80494FFF76EFEF1
:10431000DDE903010094CDE90110002315A1174840
:10432000059A00F084FB164D0028E8621FD000F0CB
:10433000FBFC012809D0401C19D1502080F31188C2
:10434000BFF34F8FBFF36F8FFEE7502080F31188CC
:10435000BFF34F8FBFF36F8F4FF0FF30A862012084
:104360006861EC6007B0BDE8304000F045B807B0C8
:1043700030BD000049444C4500000000C139000830
:10438000240000200248016B491C016370470000B3
:1043900024000020164810B5016B11B10121C16144
:1043A00010BD0021C1610169124A01E0B9B1491E85
:1043B00001EB810352F82330002BF7D001EB81038E
:1043C00002EB830202F1080453685B685360A34266
:1043D00001D15B685360DA680260016110BD502052
:1043E00080F31188BFF34F8FBFF36F8FFEE700009C
:1043F00024000020D80100201CB537480168374A46
:10440000914207D1502080F31188BFF34F8FBFF343
:104410006F8FFEE700683149491E884207D150205E
:1044200080F31188BFF34F8FBFF36F8FFEE72C49E6
:1044300008780190FF20087008788DF800009DF83A
:1044400000009DF8002000F0F000904207D05020BE
:1044500080F31188BFF34F8FBFF36F8FFEE79DF896
:104460000000204C00F0500020700720A06005E004
:104470009DF8002052008DF80020401E9DF800207D
:104480001206F5D4A060032807D0502080F31188CD
:10449000BFF34F8FBFF36F8FFEE74FF44070A06004
:1044A000019808700C482030016841F470010160E7
:1044B000016841F070410160FFF746FE0020606036
:1044C000FBF7E6FE0848016841F040410160FBF758
:1044D000CBFE00201CBD000000ED00E071C20F41CA
:1044E00000E400E09800002034EF00E010B5502018
:1044F00080F31188BFF34F8FBFF36F8F00F0D6FAB0
:1045000018B104494FF080500860002080F31188F2
:1045100010BD000004ED00E038B5049D18B153B1A2
:10452000CAB181B120E0502080F31188BFF34F8FD2
:10453000BFF36F8FFEE7502080F31188BFF34F8FDA
:10454000BFF36F8FFEE7502080F31188BFF34F8FCA
:10455000BFF36F8FFEE739B1502080F31188BFF3AE
:104560004F8FBFF36F8FFEE750241C46012384F862
:1045700046302B460094FFF753FA204638BD000022
:1045800070B50D46040025D0FFF778FDD4E90F2063
:10459000216802FB0011A1600021A1632168616014
:1045A0000A46D4E90F01401E00FB0121E1602146CB
:1045B0004FF0FF3001F8440F487004F110008DB146
:1045C000FFF72AFD04F12400FFF726FDFFF776FD33
:1045D000012070BD502080F31188BFF34F8FBFF3CF
:1045E0006F8FFEE721690029F0D000F003FB00285F
:1045F000ECD004494FF080500860BFF34F8FBFF3F9
:104600006F8FE3E704ED00E02DE9FF4782B01D4620
:104610008A464FF00008040003D0BAF1000F08D01A
:1046200011E0502080F31188BFF34F8FBFF36F8FDD
:10463000FEE7206C38B1502080F31188BFF34F8F14
:10464000BFF36F8FFEE7022D0AD1E06B012807D080
:10465000502080F31188BFF34F8FBFF36F8FFEE7B9
:1046600000F010FA3F4F4FF000094FF0805648B964
:10467000049838B1502080F31188BFF34F8FBFF3F7
:104680006F8FFEE7FFF7FAFCA06BE16B884207D360
:10469000022D05D00498D0B1B8F1000F1AD01EE059
:1046A0002A4651462046FFF714F9616A19B104F110
:1046B000240000F09FFA20B13E60BFF34F8FBFF39C
:1046C0006F8FFFF7FBFC012006B0BDE8F087FFF716
:1046D000F5FC22E06846FFF7CFFD4FF00108FFF739
:1046E000EDFCFFF74FFEFFF7C9FC94F94400401CB6
:1046F00001D184F8449094F94500401C01D184F81C
:104700004590FFF7DBFC04A9684600F029F930B1B9
:104710002046FFF79DFB00F0A5FA0020D4E7FFF745
:10472000ADFCA06BE16B884213D1FFF7C7FC04F12D
:1047300010000499FFF7AEFD2046FFF789FB00F05B
:1047400091FA00289ED13E60BFF34F8FBFF36F8F69
:1047500098E7FFF7B3FC2046FFF77AFB00F082FAF8
:1047600090E7000004ED00E02DE9F0471F46904679
:104770008946040003D0B9F1000F08D011E05020A1
:1047800080F31188BFF34F8FBFF36F8FFEE7206C6C
:1047900038B1502080F31188BFF34F8FBFF36F8F74
:1047A000FEE7022F0AD1E06B012807D0502080F3EA
:1047B0001188BFF34F8FBFF36F8FFEE7FFF7D6FC73
:1047C0005020EFF3118680F31188BFF34F8FBFF3B2
:1047D0006F8FA06BE16B884206D3022F04D00020BC
:1047E00086F31188BDE8F08794F94550A06B3A46EE
:1047F00049462046FFF76DF8681C04D06D1C84F80C
:1048000045500120ECE7606A0028FAD004F124004A
:1048100000F0F0F90028F4D0B8F1000FF1D0012138
:10482000C8F80010EDE700002DE9F747002683B037
:104830008A46040003D0BAF1000F08D011E05020DE
:1048400080F31188BFF34F8FBFF36F8FFEE7206CAB
:1048500038B1502080F31188BFF34F8FBFF36F8FB3
:10486000FEE700F00FF9DFF8F4804FF000094FF099
:10487000805748B9059838B1502080F31188BFF3AC
:104880004F8FBFF36F8FFEE7FFF7F8FBA56BC5B146
:1048900051462046FFF70AF86D1EA563206950B106
:1048A00004F1100000F0A6F928B1C8F80070BFF3B9
:1048B0004F8FBFF36F8FFFF701FC012006B0BDE8FB
:1048C000F087059808B11EB106E0FFF7F7FB27E077
:1048D0006846FFF7D1FC0126FFF7F0FBFFF752FD1A
:1048E000FFF7CCFB94F94400401C01D184F84490BC
:1048F00094F94500401C01D184F84590FFF7DEFB98
:1049000005A9684600F02CF8002820460AD0FFF7D9
:104910009FFA00F0A7F92046FFF72EF90028B3D040
:104920000020CBE7FFF728F990B104F124000599A6
:10493000FFF7B0FC2046FFF78BFA00F093F9002850
:10494000A2D1C8F80070BFF34F8FBFF36F8F9BE702
:104950002046FFF77DFA00F085F995E704ED00E0C9
:104960002DE9F0410C46050011D0C4B1FFF786FBDC
:10497000174BDA686E682068911B471C17D02F68A8
:104980001B6A9F4219D0964217D8012410E050208C
:1049900080F31188BFF34F8FBFF36F8FFEE7502076
:1049A00080F31188BFF34F8FBFF36F8FFEE70024B2
:1049B000FFF784FB2046BDE8F081884205D9401A04
:1049C00020602846FFF758FCF1E700202060DCE774
:1049D000240000202DE9FF5F8346DDE90E8799461C
:1049E00016468A469000FFF769FA05001CD05C2045
:1049F000FFF764FA040014D00020256384F85900FE
:104A0000CDE90240CDE900874B4632465146584633
:104A1000FFF718F82046FEF7B5FE012004B0BDE808
:104A2000F09F2846FFF75EFB4FF0FF30F6E7F0B54A
:104A300085B0DDE90B640A9DA6B1DCB15C27009767
:104A40002663022684F85960002604AFCDE90246A9
:104A5000CDE90057FEF7F6FF2046FEF793FE0498D7
:104A600005B0F0BD502080F31188BFF34F8FBFF326
:104A70006F8FFEE7502080F31188BFF34F8FBFF395
:104A80006F8FFEE70548416919B1006B18B100202E
:104A9000704701207047022070470000240000206A
:104AA0000148C06870470000240000202DE9F04153
:104AB0002E4C0027206B28B1A069401CA06138460D
:104AC000BDE8F081E668761CE66013D1606B006893
:104AD00038B1502080F31188BFF34F8FBFF36F8F31
:104AE000FEE7606BA16B6163A063206A401C2062DB
:104AF000FFF72EF9A06ADFF87880864209D3606B51
:104B00000068A0B1606BC068C5686868864211D251
:104B1000A0622068C06A00EB800158F821000128DB
:104B200000D90127E0690028C9D00127C7E74FF065
:104B3000FF30EDE7281DFFF745FAA86A18B105F127
:104B40001800FFF73FFAE86A2169884200D920611E
:104B500000EB800108EB8100291DFFF783FAE86A6A
:104B60002168C96A8842CAD30127C8E72400002007
:104B7000D801002070B504004FF0000133D01B4D68
:104B80002868844207D0502080F31188BFF34F8FEC
:104B9000BFF36F8FFEE7206D38B1401E2065E36CD8
:104BA000E26A9A421FD040B11DE0502080F3118884
:104BB000BFF34F8FBFF36F8FFEE7201DFFF702FAA1
:104BC000E06CE062C0F13800A061E06A29698842C7
:104BD00000D92861064900EB800001EB8000211D0F
:104BE000FFF740FA0121084670BD000024000020B4
:104BF000D801002070B5C068C46854B104F1180031
:104C00000646FFF7DFF9144D286B50B131461348C3
:104C100015E0502080F31188BFF34F8FBFF36F8FE3
:104C2000FEE7201DFFF7CEF9E06A2969884200D926
:104C300028610B4900EB800001EB8000211DFFF78C
:104C400011FAE06A2968C96A884202D90120E8613C
:104C500070BD002070BD0000240000206006002010
:104C6000D80100202DE9F0472C4D00242746286B61
:104C700038B1FFF703FA286B401E2863286B40B158
:104C800046E0502080F31188BFF34F8FBFF36F8F42
:104C9000FEE7A968224E0120D1B3A6F591698046AE
:104CA0003068E0B1F068C46804F11800FFF78AF9D1
:104CB000201DFFF787F9E06A2969884200D9286139
:104CC00000EB800109EB8100211DFFF7CBF9E06AC1
:104CD0002968C96A8842E3D3C5F81C80E0E70CB1B3
:104CE000FFF736F8AC694CB14FEA0806FFF7DEFE75
:104CF00000B1EE61641EF9D10020A861E86938B105
:104D00000849012738070860BFF34F8FBFF36F8F43
:104D1000FFF7D4F93846BDE8F087000024000020F2
:104D20006006002004ED00E010B586B0FEF792FDAD
:104D3000114C2068B8B100200390049005AA04A982
:104D400003A8FFF75DF9DDE9032102208DE80700E4
:104D500000230AA10B48059AFFF769FE606010B1B5
:104D600006B0012010BD502080F31188BFF34F8F93
:104D7000BFF36F8FFEE7000060000020546D7220CB
:104D8000537663002D3E00082DE9FF411E46134671
:104D900002000A9D4FF0000016D0144C2768002F27
:104DA0000FD0CDE900130292062917DAFFF76AFE49
:104DB00002284FF000030FD0002269462068FFF759
:104DC00023FC04B0BDE8F081502080F31188BFF3CC
:104DD0004F8FBFF36F8FFEE72A46EEE70023324680
:104DE00069463846FFF7C0FCEBE700006000002092
:104DF00010B500290AD00878002807D00548784463
:104E0000FCF7BAF8002801D0002010BD0248784411
:104E100010BD0000FE020000F60200000808A0F528
:104E200000114FEA3101704743004FEAD30C4FEABB
:104E30003C0C43401FBF40070CF1605113F0FE4F84
:104E400070471CF0006F03D100200CF00041704748
:104E50000CF0004343EA507010B540EACC0000F07B
:104E60000EF800BF000000924FEA0001FFF7D6BF26
:104E70004FF000414FF00000A1F5002170470EF106
:104E8000020E2EF0030E5EF8044B244204D44FEAC7
:104E90004102B2F17F4F11D84FEA4003B3F17F4F87
:104EA0000CD80ED14FEAD07CB2F17F4F0CEB4C0CFA
:104EB0000CF1020C08BF4CEBD17C04E04FF0080C65
:104EC00001E04FEAD17C0CEB4C0324FA03F404F02C
:104ED0000704B4F1040C06D20EEB840CBDE81040BC
:104EE0004CF0010C6047DFE80CF0070802024FF0BD
:104EF0000040A0F5800010BD0846420018BFD2F166
:104F0000807288BF00F0004010BD4FF04070E1EEAD
:104F1000100A7047FBF75ABDD0500008000000008F
:104F2000000000000000000000000000000200007F
:104F3000180000000000000000000000B850000849
:104F40000000000000000000000000000000000061
:104F50000002000008000000000000000000000047
:104F6000C450000800000000000000000000000025
:104F70000000000000080000080000000000000021
:104F800000000000AC50000800000000000000001D
:104F90000000000000000000000200000800000007
:104FA0000000000000000000000000000000000001
:104FB00001020304060708090000000001020304BF
:104FC00002400000000000A00000000005400000BA
:104FD000000000C8000000000C4000000000409CE1
:104FE00000000000194000000020BCBE00000000CE
:104FF00034400000BFC91B8E00000004B540000013
:10500000504BCFD06607E2CF010000006C4100009A
:105010003E8251AADFEEA73401000000D942000011
:10502000DCB5A0E23A301F97FFFFFFFFB445000058
:10503000FD25A0C8E9A3C14FFFFFFFFFFF3F000010
:105040000000008000000000FF3F00000000008022
:1050500000000000494D553A20416363656C5B5880
:105060003A252E3266672C593A252E3266672C5A1D
:105070003A252E3266675D204779726F5B583A2574
:105080002E32666470732C593A252E326664707322
:105090002C5A3A252E32666470735D2054656D700B
:1050A0003A252E3266630D0A000000006770696FB2
:1050B0005461736B00000000756172745F746173FA
:1050C0006B000000696D755F7461736B0000000018
:1050D0006770696F7461736B0000000018510008FD
:1050E00000000020A4000000C4010008BC5100081A
:1050F000A40000202C500000E00100081C0000006B
:1051000043000000F8FFFFFF0C0000000E0000004D
:105110000F0000002E000000000000000000000052
:10512000000000000000000000000000010000007E
:1051300010000000000000000024F4000000000047
:10514000000000000000000000000000000000005F
:10515000000000000000000000000000000000004F
:10516000000000000000000000000000000000003F
:10517000000000000000000000000000000000002F
:10518000000000000000000000000000000000001F
:10519000000000000000000000000000000000000F
:1051A00000000000000000000000000000000000FF
:0C51B00000000000AAAAAAAA000000004B
:040000050800018965
:00000001FF
