:020000040800F2
:100000002856002021030008FF3D0008FB340008AB
:10001000FD3D0008311C00084147000800000000B9
:100020000000000000000000000000006102000865
:10003000711C000800000000BD020008A542000875
:100040003B0300083B0300083B0300083B03000898
:100050003B0300083B0300083B0300083B03000888
:100060003B0300083B0300083B0300083B03000878
:100070003B0300083B0300083B0300083B03000868
:100080003B0300083B0300083B0300083B03000858
:100090003B0300083B0300083B0300083B03000848
:1000A0003B0300083B0300083B0300083B03000838
:1000B0003B0300083B030008614300083B030008C2
:1000C0003B0300083B0300083B0300083B03000818
:1000D0003B0300083B0300083B0300083B03000808
:1000E0003B0300083B0300083B0300083B030008F8
:1000F0003B0300083B0300083B0300083B030008E8
:100100003B0300083B0300083B0300083B030008D7
:100110003B0300083D4400083B0300083B03000884
:100120003B0300083B0300083B0300083B030008B7
:100130003B0300083B0300083B0300083B030008A7
:100140003B0300083B0300083B0300083B03000897
:100150003B0300083B0300083B0300083B03000887
:100160003B0300083B0300083B0300083B03000877
:100170003B0300083B0300083B03000800000000AD
:100180003B0300083B03000800F002F800F058F8B9
:100190000AA090E8000C82448344AAF10107DA45E2
:1001A00001D100F04DF8AFF2090EBAE80F0013F0DC
:1001B000010F18BFFB1A43F001031847AC6A000097
:1001C000CC6A0000103A24BF78C878C1FAD8520728
:1001D00024BF30C830C144BF04680C6070470000C1
:1001E0000023002400250026103A28BF78C1FBD840
:1001F000520728BF30C148BF0B607047662906F020
:100200000E84642900F06481752900F061817329EE
:1002100000F04D86002070471FB506F0F6FB00F099
:10022000D3FE04000020002105F020FF401C606088
:100230000020002105F004FFE0601FBD10B510BDD7
:1002400001F02CF81146FFF7E7FF04F0A9FA01F0DE
:1002500058F803B4FFF7F2FF03BC01F05BF80000AD
:100260002C4B19680868B0E8F04F80F30988BFF399
:100270006F8F4FF0000080F311887047000000007E
:1002800008480068006880F308884FF0000080F399
:10029000148862B661B6BFF34F8FBFF36F8F00DF74
:1002A00000BF00BF08ED00E0DFF80C00016841F47A
:1002B00070010160704700BF88ED00E0EFF3098036
:1002C000BFF36F8F134B1A681EF0100F08BF20ED9D
:1002D000108A20E9F04F106009B44FF0500080F30D
:1002E0001188BFF34F8FBFF36F8F05F07BF94FF08D
:1002F000000080F3118809BC19680868B0E8F04F65
:100300001EF0100F08BFB0EC108A80F30988BFF30D
:100310006F8F704734000020EFF3058070470000B6
:100320000948804709480047FEE7FEE7FEE7FEE789
:10033000FEE7FEE7FEE7FEE7FEE7FEE704480549C5
:10034000054A064B70470000514300088901000828
:100350002850002028560020285200202852002033
:1003600053EA020C00F069802DE9F04B4FF00006D3
:10037000002B1FBFB3FA83F503FA05F424FA05F640
:100380005E4012BF1643B2FA82F502FA05F4C5F1D7
:1003900020051EBF22FA05FC44EA0C04203556EA6B
:1003A000044C4FEA144418BF641C4FF000084FF08F
:1003B0000009904271EB030C39D3002919BFB1FA3F
:1003C00081F701FA07F6B0FA80F700FA07F6C7F1ED
:1003D00020071EBF20FA07FC46EA0C062037B6FBB2
:1003E000F4FCA7EB0507103F07F01F0BCBF120062D
:1003F0000CFA0BFB2CFA06F644BFB3460026202F5E
:10040000A4BF5E464FF0000B5BEA060C08BF4FF03E
:10041000010B19EB0B09ABFB027C48EB0608C01B78
:1004200006FB02CC0BFB03CC71EB0C01C1E70B46C6
:10043000024641464846BDE8F08B13B54FF0000038
:100440004FF00001AFF30080BDE81C407047000092
:100450000FB41CB5084B06AA7B446946009005986A
:1004600000F0FBFC04460020694600F009FD204630
:100470001CBC5DF814FB0000250A000070B50C469A
:100480000546012A05D02878800600D5EA690023B0
:1004900002E0012305E05B1C934202D2E05C0028ED
:1004A000F9D1A869E618C01AA861286A1844286218
:1004B0002846AFF3008004E0D5E9012114F8010BD0
:1004C0009047B442F8D32846AFF3008070BD0000D7
:1004D0002DE9F0410646002410687529314616A51D
:1004E00010D0AFF30080002802DA404213A507E0E5
:1004F00031688A0701D512A502E0490704D511A584
:10050000012401E0AFF3008000210A2206F1240754
:1005100009E0B0FBF2FCB0FBF2F302FB1C00303050
:1005200078541846491C0028F3D123462A46304601
:10053000BDE8F04100F024BA000000002D000000EA
:100540002B000000200000002DE9F0474FF0000ACA
:1005500089460446C0F820A02046E1688847002864
:1005600076D0252806D0D4E901219047206A401C86
:100570002062F1E7E168204600268847C4F81CA005
:1005800005460027C4F818A02A2D09D0284604F0F3
:1005900000F938B304EB8708303DC8F8185019E06B
:1005A00059F8041B204604EB87029161E1688847F3
:1005B000012F054618D1E069002820DA26F0200630
:1005C0001DE0D8F8180000EB800005EB4000303843
:1005D000C8F818002046E1688847054604F0D9F8B5
:1005E0000028EED1012F0AD02E2D08D12046E16837
:1005F00088477F1C0546022F46F02006C4DBA06911
:10060000002803DA404246F00106A061F00701D05D
:1006100026F010066C2D0AD0682D08D04C2D39D04C
:100620006A2D35D0742D35D07A2D33D016E0E1689F
:100630002F4620468847B84205460AD16C2F27D05E
:100640004FF48060E168064320468847054605E090
:1006500027E06C2F1AD04FF4807006430DB3A5F13C
:100660004100192802D8203546F400664A4629463A
:10067000204626604E46FFF7C1FD80B101280BD011
:10068000F61D26F0070000F1080965E74020E4E7C1
:100690008020D7E70020D5E706F104095CE728466B
:1006A00061E7206ABDE8F08770B5064600F064F99E
:1006B0000468054630460A22002100F0FCFB2C604D
:1006C00070BD0000014A00F02FBC0000B400002003
:1006D00010B5431C02E010F8011B71B18107FAD17B
:1006E0004FF0013202C88C1A8C4314EAC211F9D0BF
:1006F000C01A0A0603D0C01E10BDC01A10BD0A04DD
:1007000001D0801E10BD0902FCD0401E10BD40EA81
:10071000010370B59B072ED14FF00136042A2AD36E
:1007200008C810C99D1B9D43121F15EAC61517D096
:10073000D8B2E1B2401A50EA056110D198B2A1B224
:10074000401A50EA05410AD123F07F4024F07F414E
:10075000401A50EA052102D1180EA0EB146070BDBA
:10076000A342DBD018BA21BA884201D9012070BD5A
:100770004FF0FF3070BD0AB9002070BD10F8013B8A
:1007800011F8014B63B1A3420AD1521E08D010F8F0
:10079000013B11F8014B1BB1A34201D1521EEDD117
:1007A000181B70BD032A40F2308010F0030C00F0DB
:1007B000158011F8013BBCF1020F624498BF11F89B
:1007C00001CB00F8013B38BF11F8013BA2F1040254
:1007D00098BF00F801CB38BF00F8013B11F00303CC
:1007E00000F02580083AC0F0088051F8043B083A30
:1007F00051F804CBA0E80810F5E7121D5CBF51F8D2
:10080000043B40F8043BAFF30080D20724BF11F84B
:10081000013B11F801CB48BF11F8012B24BF00F8B0
:10082000013B00F801CB48BF00F8012B704710B521
:10083000203AC0F00B80B1E81850203AA0E81850D8
:10084000B1E81850A0E81850BFF4F5AF5FEA027C99
:1008500024BFB1E81850A0E8185044BF18C918C008
:10086000BDE810405FEA827C24BF51F8043B40F8A9
:10087000043B08BF7047D20728BF31F8023B48BF8E
:1008800011F8012B28BF20F8023B48BF00F8012BCC
:10089000704702F0FF0343EA032242EA024200F0FB
:1008A00067BB4FF0000200B51346944696462039C8
:1008B00022BFA0E80C50A0E80C50B1F12001BFF419
:1008C000F7AF090728BFA0E80C5048BF0CC05DF87F
:1008D00004EB890028BF40F8042B08BF704748BFCD
:1008E00020F8022B11F0804F18BF00F8012B704741
:1008F0004FF0013C50F8042B51F8043B9A4221D1AF
:10090000A2EB0C03934313EACC1317D150F8042B3A
:1009100051F8043B9A4215D1A2EB0C03934313EA1E
:10092000CC130BD150F8042B51F8043B9A4209D157
:10093000A2EB0C03934313EACC13DBD04FF000007F
:10094000704700BFD01A01BAB1FA81F101F0180165
:1009500022FA01F0CB40C1F12001DBB2C0B2C01AD3
:100960002CFA01F3D11A914311EAC311E6D1704771
:10097000704770477047000000487047C84F00201C
:100980002DE9F0470D4699469246044600F12408A9
:100990000168880604D5E06921F01001216000E0BB
:1009A0000120A84201DD471B00E00027A1697A1958
:1009B00002EB0900081AA0612078C00602D4204684
:1009C000AFF30080002608E0D4E901211AF8060000
:1009D0009047206A401C761C20624E45F4DB20784C
:1009E000C0060AD52046AFF3008006E0D4E9012115
:1009F00030209047206A401C2062381EA7F1010772
:100A0000F4DC07E0D4E9012118F805009047206ADA
:100A1000401C2062281EA5F10105F3DC2046AFF33F
:100A200000802078000602D50220BDE8F087012072
:100A3000FBE770472DE9FF4F0C461E464FF0FF378E
:100A40008BB0D2E90001DDF860800A908A46C1F3DC
:100A50000A5505B93D46002108464FF00000BAF19D
:100A6000000F00F4400005DA00EB80004FF4400175
:100A700001EA50004FEA9059B9F1010F00DDB94683
:100A80000A9850EA4A000ED044F61050A5F2FF35FD
:100A900045432F14B8F1000F1ED07542291E1EDDEC
:100AA000C9F100021CE0B8F1010F4FF0000001D0C5
:100AB000302103E0F24305E02154401CB042FBDB4F
:100AC00030460022002121540B99C1F80880C1E969
:100AD00000200FB0BDE8F08FBD1B6D1CDEE74A465D
:100AE00000DA694206A800F049FB06AB93E807006C
:100AF00003AB83E8070050460A9900F012FC8DE82A
:100B00000700A0F500501F3800900398002D0ADD63
:100B100042F21F014A460844002303A90390684695
:100B200000F07BFE09E0A0F500504A461F38002384
:100B300003A90390684600F085FE8DE807000004D5
:100B4000000C03D04FF0FF30410800E01046B8F130
:100B5000000F03D00022009215461EE0751E05D43A
:100B600000F036FA303262556D1EF9D5B3460122D7
:100B7000084302D000227F1C04E02078302801D1F5
:100B800000227F1E002A099784D01DE0112D07DA6C
:100B900000F01EFA303262556D1C50EA0102F5D1A8
:100BA000084302D00098C8B10EE00021681E05E09D
:100BB000235C625C63542254401E491C8142F7DB73
:100BC000AB46A81B401E0990002004F80B000B98B0
:100BD000099AC0F80880C0E9002B7AE711264FF087
:100BE000000857E72DE9F04F88460446D21D22F051
:100BF000070191B0D1E90001CDE90A0103F0A1FD9F
:100C000002460B98C00F01D02D2007E02068810715
:100C100001D52B2002E0202101EAC000032A09901F
:100C200001D0072A05DB03464146204600F016FAAC
:100C30000BE12078800601D5E06900E00620B8F1DC
:100C4000650F814606D0B8F1660F18D0B8F1670F6E
:100C500070D131E00020B9F1110F009001DB1123B8
:100C600001E009F101030AAA01A90CA8FFF7E2FEBD
:100C7000DDE90C70002609F10105834647E00120FB
:100C80004B4600904FF000470AAA01A90CA8FFF7B5
:100C9000D1FEDDE90DB00C995D46002610B909F1D1
:100CA00001000D18B9EB050003D4C0F1FF3609F1BE
:100CB0000105A5EB09002BE0B9F1010F01DA4FF0B6
:100CC00001090020B9F1110F0090484601DD112300
:100CD00000E003460AAA01A90CA8FFF7ABFEDDE974
:100CE0000C704D4600268346207800070AD4AB4599
:100CF00000DA5D4601A8012D04DD411911F8011C3F
:100D0000302907D04F4502DA17F1040F04DA012029
:100D100082460FE06D1EEEE7002F02DCED1B3E4425
:100D200003E0781CA84200DD7D1CB81B00F1010A1D
:100D30004FF000472078000703D4AA4501DB4FF0AD
:100D4000FF3A0021B7F1004F0DF143088DF8431031
:100D500024D002202B23002F01DA7F422D230A21E9
:100D6000021EA0F1010000DC5FB197FBF1FC97FBD4
:100D7000F1F201FB1C7C17460CF1300C08F801CD98
:100D8000EEE7A8F1010003702188090501D545218E
:100D900000E06521A0F1010800F8011C09980FA9E5
:100DA000A1EB0807FF1D00B10120411901EBEA701A
:100DB000A1693844081A401EA0612078C00602D4F8
:100DC0002046AFF30080099828B1D4E9012190476B
:100DD000206A401C20622078C00622D52046AFF34E
:100DE00000801EE0002E04DBB34502DD01A8805D1B
:100DF00000E03020D4E901219047206A401C2062A5
:100E0000761CAAF101005FEA000A0AD100F0DCF8C2
:100E1000C0680168405CD4E901219047206A401C09
:100E20002062281EA5F10105DCDC07E0D4E90121E0
:100E300018F8010B9047206A401C2062381EA7F169
:100E40000107F3DC2046AFF30080032011B041E638
:100E500001694A1C02610878704700B58FB0CDE97E
:100E600001310021059105497944CDE9031011466E
:100E70006846FFF769FB0FB000BD0000E5FFFFFF0C
:100E80000A6802F8010B0A60704710B5436913B194
:100E9000AFF3008001E0FFF7F1FA012010BD1278F6
:100EA00000F124010A7000224A700122EDE7116866
:100EB0004FF0FF32E9E72DE9F04791460F468046B3
:100EC0000446002614F8015B2DB100F075F80068A7
:100ED000405DC007F6D12B2D02D02D2D18D0641EF9
:100EE0004A463946204600F0F9F827B13968A14250
:100EF00001D1C7F800804FF0020471050BD54042C4
:100F0000002803DDFFF738FD0460A007BDE8F08787
:100F100046F48066E4E70028F8DAFFF72DFD046068
:100F20006FF00040F2E700002DE9F04115460E4653
:100F3000040002D12C6804B90BA4204600F0A0F9EB
:100F40000444207870B127463146384600F088F9CD
:100F50000444207810B1002004F8010B38462C60BE
:100F6000BDE8F0810027F9E7000000004FF0000223
:100F70000429C0F0128010F0030C3FF494ACCCF1C3
:100F8000040CBCF1020F18BF00F8012BA8BF20F819
:100F9000022BA1EB0C01FFF786BC5FEAC17C24BFEA
:100FA00000F8012B00F8012B48BF00F8012B704717
:100FB00000487047C84F002010B500F005F8001D2C
:100FC00010BD00BFA950000000487047E84F002046
:100FD00030B5B0F10A024FEA900E71F100034EEA0B
:100FE000817EB0EB0E0061EB91014FEA101E4EEADC
:100FF000017E10EB0E0041EB11114FEA102E4EEA6C
:10100000016E10EB0E0041EB11214FEA104E4EEA3B
:10101000014E10EB0E0041EB1141401841F100016F
:101020004FEAD00040EA41704FEAD10110EB800551
:101030004FEA810444EA907444EB01046D1944EBD7
:101040000404521BA3414FF0000348BF0A3200D5ED
:1010500030BD401C41F1000130BD00002DE9F041E0
:101060001F46044603260168072A01F4006004DBDA
:1010700008B116A505E016A503E008B115A500E026
:1010800015A521F010002060A069C01EA0610FB15D
:10109000401EA0612046AFF300804FB1D4E901218A
:1010A00038469047206A401C2062C01C206206E03F
:1010B000206AFAE7D4E9012115F8010B9047761E62
:1010C000F8D22046AFF30080BDE8F0814E414E00DB
:1010D0006E616E00494E4600696E66002DE9F05F54
:1010E000824615468B4600270AF10104B94600786E
:1010F000302801D09DB113E014F8010B01277828A6
:1011000003D0582801D045B10AE00DB1102D07D108
:10111000002714F8010B102502E0082500E00A253D
:101120000026B0460EE005FB080005FB06F101278E
:101130001FFA80F801EB1046B6F5803F00D3B946A0
:1011400014F8010B294600F0CEF80028EBDABBF1C9
:10115000000F05D00FB1641E00E05446CBF80040EC
:10116000B9F1000F06D0FFF707FC02210160C81E8D
:10117000BDE8F09F48EA0640FAE700002DE9F04795
:10118000814616468AB0354878440DC88DE80D0072
:1011900032487844801C03AC0DC884E80D0041F649
:1011A0009B300844372190FBF1F290FBF1F5A5F15B
:1011B000800501FB12041B3C02D56442012000E0C3
:1011C0000020DFF898A080460027FA44AAF1BE0A62
:1011D0000EE0E0070AD03246684607EB47010123DC
:1011E0000AEB810100F02EFB8DE8070064107F1CE4
:1011F000002CEED1194F7F44AE3F19E0E80715D01F
:1012000007EB04100DF1180A90E80E008AE80E00B2
:10121000C068F04201D1981908903246012306A90E
:1012200003A800F00FFB03AB83E807006D10641CFC
:10123000002DE3D14FF0010332466946B8F1000FAB
:1012400003A802D000F0E9FA01E000F0FBFAC9E9D6
:101250000001C9F808200AB0BDE8F087E059000095
:1012600030B503461D781DB10A4603E0AC4201D1FA
:10127000181A30BD12F8014B002CF7D15B1CF1E7B6
:1012800030B503461D783DB10A4612F8014B1CB13A
:10129000AC42FAD15B1CF5E7181A30BD7546FFF772
:1012A00087FEAE4605006946534620F00700854696
:1012B00018B020B5FFF742F8BDE820404FF0000617
:1012C0004FF000074FF000084FF0000B21F007012E
:1012D000AC46ACE8C009ACE8C009ACE8C009ACE871
:1012E000C0098D4670473A2800D2303820F02002DD
:1012F000412A01D3A2F13700884201D34FF0FF30D9
:10130000704710B50446AFF300802046BDE810409A
:10131000FEF79FBF01491820ABBEFEE72600020082
:1013200070475FEA400C08BF91F0000F4FEA8C2332
:101330004FEAC12243EA51514FEA1C5018BF00F551
:10134000F0404FEA300018BF41F000415FEA6C5CAA
:1013500000F02980BCF1FF3F08BF40F0804070479B
:10136000130C06BF12044FF0100C4FF0000C130EBC
:1013700004BF12020CF1080C130F04BF12010CF190
:10138000040C930F04BF92000CF1020CD30F04BFA6
:1013900052000CF1010C11464FF00002A0F11F00A9
:1013A000A0EB0C00704711F0004F08BF704731F000
:1013B00000413FF4D5AF0B0C06BF09044FF0100CF1
:1013C0004FF0000C0B0E04BF09020CF1080C0B0FC0
:1013D00004BF09010CF1040C8B0F04BF89000CF150
:1013E000020CCB0F04BF49000CF1010CCCF120031F
:1013F000A0EB0C0022FA03F302FA0CF241EA03011B
:1014000000F10100704720F07F4C80EA030023F0D8
:101410007F47ACEB070303F57C5300F0004003F17A
:10142000FF032DE980494FEA154B09B44FEA1443F5
:1014300025EA0B4E24EA03480FF2042606EB132795
:1014400049083E785FEA320203FB0667C7F50007EA
:1014500007FB06F64FEA54374FEAD64606F1020676
:1014600007FB066CCCF1005C4FEA1C472CEA074CEA
:1014700007FB06F40CFB06F504EB15464FEA96163F
:1014800034BF00204FF000404FEAD13706FB07FC85
:101490004FEA1C4C0CFB0BF7D21B03FB0CF761EB68
:1014A00007010CFB0EF7B0EB074072EB17420CFB89
:1014B00008F734BFA2EB0742B2EB074261EB1741DA
:1014C0004FEA0C444FEA910706FB07FC4FEA1C4C1D
:1014D0000CFB0BF7B0EBC74072EB573203FB0CF77A
:1014E00034BFA2EBC742B2EBC74261EB57310CFBF2
:1014F0000EF7B0EBC70072EB57720CFB08F734BF66
:10150000A2EBC702B2EBC70261EB5771039F4FEA30
:10151000816141EA921104EBCC044FEAD1374FEAE2
:10152000826206FB07FC42EA90124FEA80604FEAB3
:101530001C4C0CFB0BF7D21B03FB0CF761EB0701F8
:101540000CFB0EF7B0EB074072EB17420CFB08F7F1
:1015500034BFA2EB0742B2EB074261EB17414FEAFF
:101560008C554FEA910704EB9C2406FB07FC4FEADD
:101570001C4C0CFB0BF7B0EBC74072EB573203FB74
:101580000CF734BFA2EBC742B2EBC74261EB573155
:101590000CFB0EF7B0EBC70072EB57720CFB08F7B1
:1015A00034BFA2EBC702B2EBC70261EB577115EB78
:1015B0004C254FEA816141EA92114FEA82624FEA7B
:1015C000D13742EA901206FB07FC44F100044FEACF
:1015D00080604FEA1C4C0CFB0BF7D21B03FB0CF793
:1015E00061EB07010CFB0EF7B0EB074072EB174203
:1015F0000CFB08F734BFA2EB0742B2EB074261EBEA
:10160000174115EB1C154FEA813141EA92414FEA2F
:10161000823242EA90424FEA80304FEA0C7644F13F
:10162000000448EA03434EEA0B484FF0000EB2EBC9
:10163000080C71EB030724BF624639464EEB0E0ED1
:101640004FF0000B0018524149414BEB0B0BB2EB32
:10165000080C71EB03077BF1000B24BF624639468F
:101660004EEB0E0E4FF0000B0018524149414BEB70
:101670000B0BB2EB080C71EB03077BF1000B24BFE3
:10168000624639464EEB0E0E51EA020718BF46F08D
:10169000010616EB0E7655F1000254F1000103D558
:1016A000BDE88901BDE80088BDE88901BDE80048C2
:1016B000B619524141EB0101A3F10103704780804B
:1016C0007F7E7D7C7B7A797877767675747372719C
:1016D00071706F6E6E6D6C6C6B6A6A696868676654
:1016E00066656464636362616160605F5F5E5E5DE6
:1016F0005D5C5C5B5B5A5A5959585857575656555A
:1017000055555454535352525251515050504F4FBB
:101710004F4E4E4D4D4D4C4C4C4B4B4B4A4A4A490B
:10172000494948484847474747464646454545444E
:101730004444444343434342424242414141002BDB
:101740009C4630D477002BD01CB54FEA370703B442
:101750004FF010004FF01001BAF1000F06D0BCF1AD
:10176000000FDCBF40F0080040F008014FF000001F
:101770000FBCBDE810400BF1010BBBF1010F08BF1E
:101780005FEA170722BF12F1010211F101014FF0C8
:10179000004143F1000300F0004043EA00007047BD
:1017A000F9D35708D0E746EA064613F1400F4FEA4F
:1017B00016461FDD13F1200FDFBF16430A46002136
:1017C00020335B42BED0C3F1200746EA064602FA48
:1017D00007F74FEA164646EA0706C3F1200722FA42
:1017E00003F201FA07F721FA03F14FF0000342EA8E
:1017F0000702A7E746EA020646EA06464FEA164609
:1018000046EA0106BCBF46EA0646360C4FF0000326
:101810004FF000024FF0000194E72DE9804C9A460A
:10182000934670B491E8380007C831EA400C48BFCD
:1018300034EA430C03D5FFF7E6FDFFF780FFF0BC69
:10184000BDE8008C2DE9804C9A46934670B491E82F
:10185000380007C810F0804F08BF13F0804F03D145
:1018600000F005F8FFF76BFFF0BCBDE8008C20F03E
:101870007F4780EA030023F07F4C07EB0C03A3F5BE
:101880007C5300F00040A3F1FE0392F0000F00F043
:10189000B38095F0000F00F077802DE901494FEA01
:1018A00011404FEA144621EA004800FB06FC24EAF6
:1018B000064708FB06F607FB08F800FB07F718EBDE
:1018C00006484CEB164C4FEA124B18EB07484FEA10
:1018D00015464CEB174022EA0B4E0BFB06FC25EAA3
:1018E00006470EFB06F607FB0EFE0BFB07F71EEB8B
:1018F000064E4CEB164C4FF000061EEB074E4CEB21
:10190000174B18EB0B0840F1000018EB0E0B58EBCF
:10191000000840F100008F1A4FF000013CBFC9439E
:10192000661B14BFB5EB040C00213CBFC943F61B7A
:101930004FEA17444EEA8E0E27EA04454FEA1C4749
:1019400004FB07622CEA074C05FB07F70CFB05F6C6
:1019500004FB0CFC16EB074642EB174216EB0C4659
:1019600042EB1C421BEB060658EB0202414146EAE1
:101970009E0601D5BDE80189B619524141EB01012E
:10198000A3F10103BDE801894FEA14454FEA11476D
:1019900024EA054621EA074C05FB07F406FB07F796
:1019A0000CFB06F105FB0CFC11EB074144EB174463
:1019B0004FEA124711EB0C4144EB1C4422EA074C5E
:1019C00005FB07F206FB07F70CFB06F605FB0CFC14
:1019D00016EB074642EB174216EB0C4642EB1C4552
:1019E0006A1854F1000148BF7047B619524141EBE3
:1019F0000101A3F10103704795F0000F37D04FEAC2
:101A000011424FEA144721EA024624EA074C02FB3E
:101A100007F106FB07F70CFB06F402FB0CFC14EBCA
:101A2000074441EB17414FEA154714EB0C4441EBD7
:101A30001C4125EA074C02FB07F506FB07F70CFBE8
:101A400006F602FB0CFC16EB074645EB174516EBBA
:101A50000C4645EB1C42121951F1000148BF70477A
:101A6000B619524141EB0101A3F1010370474FEA5E
:101A700014454FEA114724EA054621EA074C05FBC5
:101A800007F106FB07F70CFB06F24FF0000605FB1B
:101A90000CFC12EB074241EB174112EB0C4251EBED
:101AA0001C4148BF7047921841EB0101A3F10103AB
:101AB00070470000F0B585B0074601251648CDE90E
:101AC000000564242B466B22D0210294384600F096
:101AD000EBFCF0B9642000F055F903A8CDE900054E
:101AE00000268DF80C6001231C22D0210294384678
:101AF00000F0DAFC68B904A8CDE900058DF81060A3
:101B000001231B22D0210294384600F0CDFC00288E
:101B100000D0012005B0F0BD0000002010B50C463B
:101B200000F05CF8002850D1B4F9000000EE100A73
:101B3000F8EEC00A9FED250A60EE800AC4ED040AA3
:101B4000B4F9020000EE900AF8EEE00A60EE800AB6
:101B5000C4ED050AB4F9040000EE900AF8EEE00ABC
:101B600020EE800A84ED060AB4F9060000EE100AA1
:101B7000F8EEC00A9FED160A80EE801A84ED071A6F
:101B8000B4F9080000EE900AF8EEE00A80EE801A40
:101B900084ED081AB4F90A0000EE900AF8EEE00AA3
:101BA00080EE801A84ED091AB4F90C009FED091A31
:101BB00000EE100A0020B8EEC00AC0EE010A9FED48
:101BC000060A30EE800A84ED0A0A10BD0000803853
:101BD000000003430000AA43B81E12423EB50D4662
:101BE000124C64210E220094CDE9012101233B22F5
:101BF000D12100F057FB08B101203EBD208840BA3A
:101C00002880608840BA6880A08840BAA880E088B0
:101C100040BAA881208940BAE880608940BA28810A
:101C2000A08940BA688100203EBD0000B8000020B5
:101C3000FEE7000030B50D4B0020014603F14402E1
:101C400033F8114032F81150AC420BD00120002182
:101C500033F8114022F81140491C1029F8DB196AA9
:101C6000116230BD491C1029EADB30BDEC000020B8
:101C7000704700008AB0282207A16846FEF7D7FD0A
:101C80006846FEF725FD82B24FF6FF7369460C48A1
:101C900001F0E2FB72B6FEE74572726F725F486157
:101CA0006E646C65723A2053797374656D20457269
:101CB000726F72204F63637572726564210D0A0042
:101CC0001C060020012002F0D5FDFBE72DE9F041C4
:101CD0000446876D00F066F9064694F83500002545
:101CE000022806D08020606584F834500120BDE8C9
:101CF000F0812068016821F01601016020684169C7
:101D000021F080014161206C08B9A06C20B12068ED
:101D1000016821F0080101602068016821F00101DB
:101D200001600CE000F03EF9801B052807D9202057
:101D30006065032084F8350084F83450D7E72068C4
:101D40000068C007EED194F85C103F208840B8606E
:101D5000012084F8350084F834500020C7E790F85B
:101D60003510022903D080214165012070470521EB
:101D700080F835100068016821F001010160002041
:101D80007047000070B5044600F00CF90546601C71
:101D900002D004480078044400F004F9401BA0423B
:101DA000FAD370BD240000202DE9F84FDFF8BCA164
:101DB0000022012503264FF00F090AF1040BAAF1B6
:101DC000040E00BF0B6805FA02F42340A34270D151
:101DD0000F7907F00307012F01D0022F16D1876872
:101DE0004FEA420806FA08FC27EA0C07D1F80CC0B3
:101DF0000CFA08FC4CEA070CC0F808C04768A74377
:101E00000C79C4F3001494403C4344600C79E443DF
:101E1000A4070AD0C4684FEA420C06FA0CF7BC4388
:101E20008F6807FA0CF72743C7600C7904F00304A6
:101E3000022C12D1D40800EB840CDCF820405707A8
:101E4000FF0E09FA07F824EA0804D1F8108008FA0E
:101E500007F848EA0408CCF8208004684FEA420CEE
:101E600006FA0CF7BC430F7907F0030707FA0CF7E3
:101E7000274307604C6814F4403F70D03C4C2768FF
:101E800047F480472760246822F0030704F4804465
:101E90000094384C07EB040CDCF8084897074FEA2D
:101EA000177809FA08F7BC43334FB84202D100272C
:101EB00024E054E0314FB84201D101271EE0304FF9
:101EC000B84201D1022719E02E4FB84201D10327B1
:101ED00014E02D4FB84201D104270FE02B4FB84238
:101EE00001D105270AE02A4FB84201D1062705E0B3
:101EF000284FB84201D1072700E0082707FA08F762
:101F00002743CCF80878DAF800405746D1F804C0E7
:101F10009C435FEACC2C00D51C433C60DBF80040BE
:101F20005F46D1F804C09C435FEA8C2C00D51C436B
:101F30003C60DEF800407746D1F804C09C435FEA7D
:101F40008C3C00D51C433C60084F083F3C68D1F8EE
:101F500004C09C435FEACC3C00D51C433C60521C4F
:101F6000102AFFF42FAFBDE8F88F0000083C0140B5
:101F700044380240003001400000024000040240AA
:101F800000080240000C0240001002400014024011
:101F900000180240001C02400AB181617047090428
:101FA000FBE7000001488068704700002400002023
:101FB00070B5040025D094F83D00002520B984F8C0
:101FC0003C50204600F008FB242084F83D002068A7
:101FD000016821F0010101602068016841F40041BD
:101FE00001602068016821F40041016000F0CEFC2E
:101FF0004D4A6168914201D84C4900E04C49884201
:1020000001D2012070BD4B492368B0FBF1F15E683D
:1020100026F03F060E435E606368934206D94FF494
:10202000967359434FF47A73B1FBF3F12368491C5B
:102030001E6A26F03F06314319626168914210D84A
:102040004900401EB0FBF1F2521CC2F30B02042AFD
:1020500001D2042022E0B0FBF1F0401CC0F30B00E1
:102060001CE0A268F2B301EBC10303EB0116431EAF
:10207000B3FBF6F35B1C43F480431B0549D092B3DA
:1020800001EBC10202EB0111401EB0FBF1F0401C5C
:10209000C0F30B0040F4804040F400402168CA695E
:1020A0004CF6FF739A431043C861D4E9071001430B
:1020B0002068026822F0C00211430160D4E90301E4
:1020C00001432068826848F2FF339A4311438160DC
:1020D000D4E9050108432168CA6822F0FF021043D1
:1020E000C86001E00EE016E02068016841F00101DF
:1020F00001602564202084F83D00256384F83E506B
:10210000002070BD01EB4106431EB3FBF6F35B1CE0
:10211000B3E70120C2E701EB4101401EB0FBF1F043
:10212000401CC0F30B00B7E7A086010080841E00AE
:1021300000093D0040420F002DE9FF4F81B0894664
:102140000446FFF72FFF054694F83D004FF00008C6
:1021500020287DD11923012250492046009501F005
:10216000E3FA002874D194F83C00012870D00120D3
:1021700084F83C0020680168C90703D1016841F078
:10218000010101602068016821F4006101602420E0
:1021900084F83D00002626644148E0624FF0011BB0
:1021A00020272068016841F48071016000950022B9
:1021B00059462046049B01F0B7FA50B120680068E8
:1021C000C00502D54FF400702064032005B0BDE8BF
:1021D000F08F216809F0FE000861FFF7E3FE216837
:1021E000054648694969C0F34000C1F380214FF0BA
:1021F000A00A0FE0FFF7D6FE411B0498814200D8E9
:1022000008B984F83DA0216848694969C0F34000D5
:10221000C1F3802194F83D20A02A02D008B90029FA
:10222000E8D084F83D7020684169C943890716D415
:10223000016841F4007101602068416980691923D7
:10224000012216492046009501F06EFAB8B900E067
:1022500021E084F83D7084F83C600020B6E7016816
:1022600041F40071016021686FF4806048611923B6
:1022700001220A492046009501F056FA08B10120D2
:10228000A4E7039808F1010880458AD384F83D70DB
:1022900084F83C60F3E7022098E700000200100099
:1022A0000000FFFF2DE9FF4F83B09A46DDE911875B
:1022B00093460446DDF84090FFF774FE054694F817
:1022C0003D00202870D11923012274492046009531
:1022D00001F02AFA0028F5D194F83C00012863D0D7
:1022E000012084F83C0020680168C90703D1016817
:1022F00041F0010101602068016821F40061016082
:10230000222084F83D00402084F83E000026266408
:10231000C4F82490A4F82A80608D20856048E0628B
:10232000CDE9007553465A462046049901F0FEF85F
:10233000002879D1208DD0B1012821D00228206831
:1023400024D0416980690090208D032866D8012837
:102350002BD0544902283B464FF00002009557D03D
:102360008846204601F0E0F900285DD13AE0206877
:10237000416981690091016841F4007101607DE06B
:102380002068016821F480610160F0E7016821F4B0
:10239000806101602068016841F40061016020688B
:1023A00041698069009069E075E02A463946204617
:1023B00001F060FA88BB54E02068016841F40071C4
:1023C000016020680069616A0870606A401C606290
:1023D000218D491E2185618D491E6185216809690C
:1023E000017042E02068016821F48061016020688A
:1023F0000069616A0870606A401C6062208D401E3E
:102400002085608D401E60853B4600224146009538
:10241000204601F089F900B9CEE705E02A463946A1
:10242000204601F027FA18B1012007B0BDE8F08F6F
:1024300020680069616A0870606A401C6062208DD3
:10244000401E81B22185608D401E608520684269F2
:10245000D243520712D4032903D1016821F48061C9
:10246000016020680069616A0870606A401C6062EF
:10247000208D401E2085608D401E6085208D0028A7
:102480007FF462AF202084F83D0084F83E6084F839
:102490003C600020C9E70220C7E7000002001000EE
:1024A0000000FFFF040001002DE9FF4F83B09A46B2
:1024B000DDE9119793460446DDF84080FFF772FD91
:1024C000054694F83D0020287FD119230122404978
:1024D0002046009501F028F9002876D194F83C00B8
:1024E000012872D0012084F83C0020680168C907E7
:1024F00003D1016841F0010101602068016821F405
:1025000000610160212084F83D00402084F83E00F5
:1025100000262664C4F82480A4F82A90608D2085C3
:102520002C48E062CDE9007553465A46204604998E
:1025300001F07AF870B930E02A463946204601F0B9
:10254000D1F958B1206C042804D12068016841F405
:1025500000710160012007B0BDE8F08F606A21685A
:1025600000780861606A401C6062218D491E89B252
:102570002185628D521E628522685369DB435B07A9
:102580000BD469B100781061606A401C6062208DD4
:10259000401E2085608D401E6085208D0028CBD197
:1025A0002A463946204601F093F80028CAD154F84B
:1025B0003D0B016841F400710160202004F81E0900
:1025C000E67766770020C6E7FFE70220C3E7000052
:1025D000020010000000FFFFF0B587B00446142190
:1025E0006846FEF75EF92768234CDFF888C00022B2
:1025F000214912230325042620481034674518D1A9
:102600000F6847F002070F60096802AF01F002018E
:102610000591C021CDE9001387E864006946FFF702
:10262000C3FB206840F400102060206800F4001014
:102630001CE0DFF84CC0674519D10F6847F002076E
:102640000F60096802AF01F0020105914FF440618B
:10265000CDE9001387E864006946FFF7A5FB206811
:1026600040F480002060206800F48000059007B0EE
:10267000F0BD000000540040303802400004024029
:102680000058004002488168027811448160704718
:10269000240000200B4810B5016841F4007101606E
:1026A000016841F480610160016841F4807101605A
:1026B000032000F09FF80F2000F006F800F050F81B
:1026C000002010BD003C024030B505461F4887B0D1
:1026D0000024016841F004010160006806A900F0CF
:1026E0000400009001A800F031F90498A8B100F0AE
:1026F0004DF940001649174AB0FBF1F11648491E42
:10270000026040F2E732C0E90324C0E901148461A9
:1027100000F046FB040003D015E000F037F9E9E7CC
:102720000D4800F06BFB04000DD11E2000F034F8C2
:10273000102D07D2002229461E2000F03BF8074842
:10274000056000E0012407B0204630BD403802405B
:1027500040420F0000080040AC0600202800002086
:102760000C4882B0016841F480410160006800F4C7
:10277000804000900748001F016841F080510160CF
:102780000068002200F0805000900F21901E02B0DF
:1027900000F010B844380240002809DB00F01F02A6
:1027A000012191404009800000F1E020C0F80011B3
:1027B00070470000F0B40E4B1B680C46C3F30223B5
:1027C000C3F10705042D00D90425191D072901D2DD
:1027D000002300E0DB1E012606FA05F1491E214018
:1027E00099409E40761E16403143F0BC01F0C1BFB7
:1027F0000CED00E0064900F0070208684FF6FF0301
:10280000184040EA0220034A104308607047000065
:102810000CED00E00000FA052DE9F0470E4605003A
:1028200065D0DFF81481D8F80000F7B200F0070097
:10283000B04207D288F80070D8F8000000F0070016
:10284000B04254D128683D4C810712D5400703D5CA
:10285000206840F4E05020602878000703D5206805
:1028600040F4604020602068A96820F0F000084330
:1028700020602878C0072DD03049686808390128C1
:1028800012D0022813D0032811D009688907002923
:102890002DDA216821F0030101432160FFF782FB5B
:1028A000814641F2883A0EE009688903EFE709683A
:1028B0008901ECE7FFF776FBA0EB0901514502D94E
:1028C0000320BDE8F0872068696800F00C00B0EBD9
:1028D000810FEFD1D8F80010404601F00701B14256
:1028E00007D90770006800F00700B04201D001204E
:1028F000E7E72878400705D52068E96820F4E0502C
:10290000084320602878000706D52068296920F44C
:10291000604040EAC100206000F058F82168084A91
:10292000C1F30311515CC8400649086006480068BD
:10293000FFF7CAFE0020C4E7003C0240083802400E
:10294000D86A000830000020280000200F22026012
:102950000C4A136803F003034360136803F0F003A9
:102960008360136803F4E053C36012684FF4E053CC
:1029700003EAD20202610448006800F00700086020
:102980007047000008380240003C024004480549F6
:1029900000680968044AC1F38221515CC84070474D
:1029A0003000002008380240E86A00080448054961
:1029B00000680968044AC1F34231515CC84070475D
:1029C0003000002008380240E86A0008154810B5B9
:1029D000006810F00C02144813D01449042A0FD0D8
:1029E000082A0ED10F4C241F2268236802F03F02F0
:1029F0005B0207D52068C0F38810A0FB010106E048
:102A0000084610BD2168C1F38811A1FB0001002315
:102A1000FDF7A6FC2168C1F30141491C4900B0FB48
:102A2000F1F010BD083802400024F40040787D0128
:102A30002DE9F84F04006ED02078DFF84C93C007E2
:102A4000A9F104054AD009F104000168C1F381012C
:102A5000012908D00068C0F3810002280AD1D9F802
:102A60000000400206D52868800337D5606800283A
:102A7000E1D033E06068B0F5803F10D0B0F5A02F12
:102A8000286810D020F480302860286820F4802046
:102A900028606068A8B1FFF785FA06460DE028684F
:102AA00040F48030F4E740F480202860F7E700BF6E
:102AB000FFF778FA801B642873D828688003F7D55D
:102AC0000CE0FFF76FFA064605E000BFFFF76AFA71
:102AD000801B6428F0D828688003F7D42078DFF8BA
:102AE000AC8280074FF0000A3ED5A748001D016860
:102AF00011F00C0F08D00068C0F3810002280BD140
:102B0000D9F80000400207D42868800716D5E0688D
:102B1000012800D112E033E1E068B8B10120C8F823
:102B20000000FFF73FFA064605E000BFFFF73AFA5C
:102B3000801B0228C0D828688007F7D5286821693B
:102B400020F0F80040EAC10028600DE0C8F800A0BD
:102B5000FFF728FA064604E0FFF724FA801B022854
:102B60001FD828688007F7D42078000722D5864F21
:102B700087486169703771B101210160FFF712FA6E
:102B8000064604E0FFF70EFA801B022809D83868D1
:102B90008007F7D50EE0C0F800A0FFF703FA06465D
:102BA00005E082E0FFF7FEF9801B02287DD8386837
:102BB0008007F7D42078400768D5DFF8CCB100272C
:102BC0000BF13C0BDBF80000C0000BD4DBF800106D
:102BD00041F08051CBF80010DBF80000012700F035
:102BE000805000906B4E3068C00510D4306840F4BF
:102BF00080703060FFF7D6F9009005E0FFF7D2F95A
:102C00000099401A022850D83068C005F6D55E4EAB
:102C1000A0686C3601280FD00528306810D020F04D
:102C200001003060306820F004003060A068B8B166
:102C3000FFF7B8F900900FE0306840F00100F4E7CA
:102C400040F004003060F7E7FFF7ACF90099411A53
:102C500041F28830814266D830688007F4D50EE0B2
:102C6000FFF7A0F9009007E0FFF79CF90099411ADF
:102C700041F28830814256D830688007F4D42FB1B1
:102C8000DBF8001021F08051CBF80010A069C8B328
:102C90003D49091D0968C1F3810102294AD0022872
:102CA000504607D0C8F8600000E03CE0FFF77AF932
:102CB00004463BE04746C8F86000FFF773F9064654
:102CC00005E000BFFFF76EF9801B02282BD82868AB
:102CD0008001F7D4D4E907010843A16A2E4A4908C4
:102CE00002EB0141626A41EA8211084394F82C1018
:102CF00040EA0161C9F8001001203866FFF752F977
:102D0000044606E03EE000BFFFF74CF9001B022836
:102D100009D828688001F7D534E000BFFFF742F9F1
:102D2000001B022802D90320BDE8F88F2868800123
:102D3000F4D427E00128F7D0D9F80000E26900F4C4
:102D4000800191421CD1226A00F03F01914217D1CB
:102D500047F6C071626A0140B1EB821F10D1A26ACE
:102D60004FF0FF3300F4403103EB5202B1EB024F5E
:102D700006D194F82C1000F07060B0EB016F01D018
:102D80000120D1E70020CFE704380240000047428D
:102D9000800E4742007000400000FFFF7047704700
:102DA00010B5040003D094F83D0010B107E00120F5
:102DB00010BD002084F83C00204600F01EF80220E0
:102DC00084F83D00211D206801F0D0FA012084F82C
:102DD000460084F83E0084F83F0084F8400084F800
:102DE000410084F8420084F8430084F8440084F8E9
:102DF000450084F83D00002010BD704790F83D105C
:102E0000012901D001207047022180F83D1001689E
:102E1000CA6842F00102CA6000681149884214D0B1
:102E2000B0F1804F11D00F4988420ED00E49884230
:102E30000BD00E49884208D00D49884205D00D4973
:102E4000884202D00C49884204D1816801F0070110
:102E5000062903D0016841F001010160002070479C
:102E6000000001400004004000080040000C004049
:102E700000040140004001400018004070472DE967
:102E8000F04104460068C66805694FF00007A907CD
:102E900013D5B10711D5F91E0161012020772068F3
:102EA00080698007204602D0FFF7E8FF04E000F0C9
:102EB0007EF8204600F07CF82777680716D5700763
:102EC00014D521686FF00400086102202077206883
:102ED000806910F4407F204602D0FFF7CFFF04E066
:102EE00000F065F8204600F063F82777280715D52D
:102EF000300713D521686FF008000861042020779F
:102F00002068C0698007204602D0FFF7B7FF04E0C1
:102F100000F04DF8204600F04BF82777E80616D56C
:102F2000F00614D521686FF01000086108202077A2
:102F30002068C06910F4407F204602D0FFF79EFF52
:102F400004E000F034F8204600F032F82777E80774
:102F500008D0F00706D021686FF001000861204614
:102F600000F028F8280608D5300606D521686FF04D
:102F7000800008612046FFF711FF680608D570063B
:102F800006D521686FF040000861204600F01CF86B
:102F9000A8060AD5B00608D521686FF020000861A0
:102FA0002046BDE8F041FFF7FABEBDE8F08170476A
:102FB0007047000000680349884201D1FFF762BBF7
:102FC000704700000008004070477047064A0168DB
:102FD000914208D1416C09B10021416401220349A9
:102FE000034800F0EBB97047005000400600002095
:102FF00064060020F8B5016804460868CA684B6991
:1030000010F00F0F4FF0000559D003F0010602F445
:103010009077374365D0C10705D0D10503D5616CE2
:1030200041F001016164410705D5D90703D0616C06
:1030300041F002016164810705D5D90703D0616CB5
:1030400041F004016164010707D502F0200131431A
:1030500003D0616C41F008016164616C00293AD0D1
:10306000800604D5900602D5204601F01BFA2068A0
:103070004069616CC0F38010090700D460B320463A
:1030800001F0E9F920684069400621D52068143034
:1030900050E8001F21F0400140E80012002AF5D15D
:1030A000E06BA8B172490165E06BFEF758FE00289D
:1030B00011D0E06B016D01B0BDE8F0400847830618
:1030C0000FD593060DD52046BDE8F84001F0EAB9CA
:1030D0002046FFF77BFFF8BD2046FFF777FF6564CA
:1030E000F8BD266B2023012E7ED1C6067CD5D606E0
:1030F0007AD508684868009048694FF00206400693
:103100004DD5E26B106840684FF480770004000CE6
:103110003AD0A18D814237D9E085D069B8422DD00F
:1031200020680C3050E8001F21F4807140E8001244
:10313000002AF5D12068143050E8001F21F0010169
:1031400040E80012002AF5D12068143050E8001F32
:1031500021F0400140E80012002AF5D184F8423005
:10316000256320680C3050E8001F21F0100140E872
:103170000012002AF5D1E06BFEF7A8FD6663A08D72
:10318000E18D401A81B206E0A18D8142A8D1D069BB
:10319000B842A5D166632046FFF717FFF8BDA08DA2
:1031A000E18D401A81B2E08D0028F7D00029F5D0DA
:1031B00020680C3050E8002F22F4907240E800277D
:1031C000002FF5D12068143050E8002F22F00102C2
:1031D00040E80027002FF5D184F8423025632068AD
:1031E0000C3050E8002F00E006E022F0100240E82A
:1031F0000023002BF3D1CDE705062BD5150629D5E5
:1032000094F841002128C9D1A068B0F5805F01D1B0
:103210002069B0B1206A411C2162216800784860B1
:10322000E08C401E0004000CE084B7D12068C16827
:1032300021F08001C1602068C16841F04001C16097
:10324000F8BD206A0088C0F308004860206A801C2E
:103250002062E5E74006F3D55006F1D5CA6820465E
:1032600022F04002CA6084F8413000F045F9F8BD10
:103270004944000870B5040004D094F841000025CA
:1032800010B106E0012070BD84F84050204600F0E7
:1032900023F8242084F841002068C16821F40051FB
:1032A000C160204601F060F92068016921F4904175
:1032B00001612068416921F02A0141612068C168EB
:1032C00041F40051C1606564202084F8410084F815
:1032D00042006563002070BDF0B587B0044614213C
:1032E0006846FDF7DEFA30492E4B226800252E484D
:1032F00010390324022608279A421AD1026842F4A0
:1033000000220260006800F400200590086840F088
:10331000010008600868CDE9004600F00100CDE931
:103320000470CDE9025469462048FEF73DFD07B020
:10333000F0BD1F4B9A42FAD1026842F4801202603B
:10334000006800F480100590086840F004000860F0
:10335000086800F004000590086840F00800086064
:103360000868CDE9025400F0080005909814CDE9F2
:103370000006694604970F48FEF716FD0420CDE9C4
:103380000006CDE90254694604970B48FEF70CFD90
:10339000002205213520FFF70DFA3520FFF7FCF953
:1033A000C5E70000004C00404038024000000240E9
:1033B0000050004000080240000C024090F84230EB
:1033C000202B01D00220704721B11AB100230363E2
:1033D00001F050B90120704700B50068124989B06A
:1033E00088421FD1FEF7DEFD104948600F480121D9
:1033F000801C00F071FB0D490122891C0C48FFF76D
:10340000DDFF00280ED020220AA16846FDF70FFA42
:103410006846FDF75DF982B24FF6FF7369460D48C5
:1034200000F01AF809B000BD005000400400002070
:103430006406002055415254352052652D73746145
:1034400072742072656365697665206572726F7249
:103450000D0A00001C0600202DE9F843044690F8F0
:103460004100984616460D46202802D00220BDE8AD
:10347000F88385B17EB100206064212084F841008A
:10348000FEF790FDA6848146E684A0682027B0F56B
:10349000805F02D003E00120E9E7206910B12E46E9
:1034A00000250EE000260CE08021204601F003F903
:1034B000A8B9C6B116F8010B21684860E08C401E1F
:1034C000E084E08C4B464FF00002CDF800800028ED
:1034D000EAD14FF04001204601F0EDF840B184F808
:1034E00041700320C3E735F8020BC0F30800E3E79F
:1034F00084F841700020BAE77047FEE701684A6926
:10350000D24352050FD46FF480624A61002140F823
:10351000301F202242738173026942F0040202616B
:103520000173012070470020704700002DE9F84F1B
:103530000446006889460B9D01689846174641F489
:10354000806101602068016841F48071016000952C
:103550004FF0011B0022594620460A9B00F0E4F878
:103560004FF4007A40B120680068C00501D5C4F866
:1035700040A00320BDE8F88F216809F0FE00086133
:103580002B46284920460A9A00F016F9F0BB20681D
:103590004169806900902A4620460A9900F0A2F904
:1035A00040B1206C04283AD12068016841F40071D0
:1035B000016034E0FEB2B8F1010F09D02168380A89
:1035C00008612A4620460A9900F08CF90028E8D1C3
:1035D000206806612A4620460A9900F083F90028EF
:1035E000DFD12068016841F48071016000950022FC
:1035F000594620460A9B00F097F80028B3D121686D
:1036000009F0FF0040F00100086100E007E02B46F0
:10361000044920460A9A00F0CFF80028AAD00120D9
:10362000A8E70000020001002DE9F8430446006805
:103630000D46DDE9089701689846164641F4807109
:1036400001604B4600224FF001112046009700F028
:103650006BF848B120680068C00502D54FF40070CF
:1036600020640320BDE8F883216805F0FE000861AE
:103670003B464A461549204600F09EF888B9206826
:103680004169806900903A464946204600F02AF98F
:1036900048B1206C042804D12068016841F400710D
:1036A00001600120DEE7F5B2B8F1010F09D0216811
:1036B000300A08613A464946204600F013F90028CE
:1036C000E7D1206805610020CCE70000020001007E
:1036D00070B516460D4604461EE02046FFF70EFF65
:1036E00008B1012070BD681C16D0FEF75BFC801B82
:1036F000A84200D885B920684069C04340070BD56F
:10370000002044F8300F20216173A073216941F03B
:10371000200121612073E4E720684069C04340072D
:10372000DBD4002070BD00002DE9F0479846174615
:103730000D460446C1F30746DDF820902AE000BF9D
:10374000B8F1FF3F26D0FEF72DFCA0EB0901414563
:1037500002D8B8F1000F1DD12068012E16D0806963
:1037600025EA00000004000C12D00020B84211D15C
:10377000002044F8300F20216173A073216941F0CB
:103780002001216120730120BDE8F0874069E7E74F
:103790000120EBE72068012E0AD0806925EA0000AD
:1037A0000004000C06D00020B842C9D00020EBE78E
:1037B0004069F3E70120F7E72DE9F0479846164600
:1037C0000D4604464FF000094FF0200AC1F30747A9
:1037D00023E020684069C043400515D42068016893
:1037E00041F40071016021686FF480604861C4F8A1
:1037F000309084F83DA084F83E90216C41F00401A3
:10380000216484F83C9021E0701C06D0FEF7CAFBCE
:10381000A0EB0800B04203D816B1012F1FD021E061
:103820002068012F15D0806925EA00000004000CF3
:1038300018D000BF44F8309F84F80DA084F80E9093
:10384000216941F02001216184F80C900120BDE83C
:10385000F087406925EA00000004000CEAD12068E6
:10386000406901E02068806925EA00000004000C3E
:10387000AFD1ECE72DE9F041002590460E46044615
:10388000202728E04069C043C0060CD454F8301B00
:103890006FF01000486144F810596777A577206AE7
:1038A0002062257714E0FEF77DFBA0EB0800B04214
:1038B00000D886B920684069C04340060BD544F85B
:1038C000305F6773A573206940F020002061257385
:1038D0000120BDE8F08120684169C9434906D1D47F
:1038E0000020F6E770B516460D4604461EE0204659
:1038F000FFF704FE08B1012070BD681C16D0FEF76A
:1039000051FB801BA84200D885B920684069C0439C
:1039100000060BD5002044F8300F20216173A073FE
:10392000216941F0200121612073E4E720684069AA
:10393000C0430006DBD4002070BD0000B0B04FF4DF
:103940007A7000F097FF3448FEF7B4F808B133A15D
:1039500000E03BA10CA8FCF77BFD0CA8FCF7B8FE2F
:1039600082B22D484FF6FF730CA9A830FFF774FD03
:1039700025A92948FEF7D2F890B13AA10CA8FCF786
:1039800067FD0CA8FCF7A4FE82B223484FF6FF7334
:103990000CA9A830FFF760FD642000F06BFFE7E79B
:1039A0002F9802F0C1FF06460F462E9802F0BCFF8A
:1039B00004460D462D9802F0B7FFCDE902012C9880
:1039C00002F0B2FFCDE900012B9802F0ADFF824674
:1039D0008B462A9802F0A8FF80468946299802F073
:1039E000A3FF41EC100B08A853EC102B80E8F0006B
:1039F000DDE90201CDE90601DDE90001CDE90401BF
:103A00008DE8000F1D490CA8FCF722FD29A991ECB7
:103A1000070A00F089FEBFE7740500204D505536B7
:103A200030353020496E697469616C697A617469F6
:103A30006F6E204661696C6564210D0A000000000C
:103A40004D50553630353020496E697469616C6966
:103A50007A6174696F6E2053756363657373210DAA
:103A60000A0000004D5055363035302052656164F3
:103A7000204572726F72210D0A000000D46B00089D
:103A80000248002101704170084670470400002080
:103A9000012202490248FFF791BC00000600002005
:103AA0006406002010B5064C2078002807D0FEF7E9
:103AB00079FA6168401AC82801D90020207010BD29
:103AC0000400002003480178322901D90021017047
:103AD00070470000040000202DE9F0470025C2B027
:103AE0000F468246A8464FF00109204C204E37E091
:103AF0001AF805100A2902D00D2913D02AE02078DF
:103B000040B3311811F8011C06F800800D2984F823
:103B1000019005D0401EC1B2154800F0EFFA16E042
:103B2000801EF8E72078A8B106F8008084F801909C
:103B30000F4A10A16846FCF78BFC6846FCF7C8FDED
:103B400082B24FF6FF7369460D48FFF785FC84F893
:103B5000008003E020783154401C20706D1CEDB2D1
:103B6000BD42C5D342B00020BDE8F087040000206C
:103B7000740100204D6573736167653A20257300F9
:103B80001C0600209AB00024FFF77AFF642000F0A2
:103B900071FEFFF77DFF4FF6FF7508B11AA100E037
:103BA00022A16846FCF754FC6846FCF791FD82B2FE
:103BB0002B4669462748FFF74FFC4FF47A7000F018
:103BC00059FE25A16846FCF743FC6846FCF780FDDA
:103BD00082B22B4669461F48FFF73EFC0A2000F0E0
:103BE00049FEFFF75FFFFFF76DFFFEF723F820B9EF
:103BF000FEF7D8F9001B0A28F0D300F0E7FAFEF729
:103C0000D1F90446EAE700004661696C65642074F6
:103C10006F20737461727420554152543520495499
:103C200020726563656976650D0A0000554152543E
:103C30003520495420726563656976652073746127
:103C400072746564207375636365737366756C6CF9
:103C5000790D0A001C0600204A6574736F6E2043BC
:103C60006F6D6D205461736B205374617274656461
:103C700020617420313030487A0D0A0070B586B06A
:103C800014216846FCF70DFE1E480024016841F02F
:103C900080010160016801F080010591016841F037
:103CA00001010160016801F001010591016841F025
:103CB00002010160016801F002010591016841F013
:103CC00004010160016801F004010591016841F0FF
:103CD0000801016000680C4E00F008004FF48055A8
:103CE0000590002229463046FEF756F9012000953E
:103CF000CDE90104694630460394FEF755F806B055
:103D000070BD000030380240000402400C4810B57D
:103D10000A4901600B49416000214FF480428160F3
:103D2000C0E9031241618161C1610162FEF740F99E
:103D3000002801D0FDF79EFF10BD00000054004098
:103D400074050020A08601000C4810B50A490160E6
:103D50000B49416000214FF480428160C0E90312A9
:103D600041618161C1610162FEF722F9002801D041
:103D7000FDF780FF10BD000000580040C80500207E
:103D8000A08601000B4810B5094901604FF4E131EC
:103D90004160002181600C22C160C0E90412816190
:103DA000C161FFF767FA002801D0FDF763FF10BD7E
:103DB000004C00401C0600200F4810B50D49016062
:103DC0004FF4E1314160002181600C22C160C0E903
:103DD00004128161C161FFF74DFA08B1FDF74AFF96
:103DE000002205213520FEF7E5FCBDE81040352016
:103DF000FEF7D2BC0050004064060020FEE7FEE75C
:103E000030B505462DED028B85B000208DF80C00F5
:103E10000121642203A88DE807000B46B0EE408A1A
:103E2000002280212846FEF73FFBB0EE480A2846D4
:103E300000F02CF8002400231A462146284600F002
:103E4000ADF8641CE4B2102CF5D34FF4FA70FDF712
:103E500099FF05B0BDEC028B30BD0000B42A00D93B
:103E6000B42200EE102A9FED071A0022F8EE400A55
:103E70009FED050A00EE810ABCEEC00A10EE103A72
:103E800000F08CB8AE4711400000DC4270B5064629
:103E90002DED028B88B010EE100A02F045FD9FED6B
:103EA000371B53EC112B02F057FB02F0F5F89FED96
:103EB000358B02F039FD41EC100B51EC180B53EC33
:103EC000102B02F0C3F99FED311B53EC112B02F0C4
:103ED00041FC9FED301B53EC112B02F00FF902F067
:103EE0000DFB8DF81400012504A8CDE9000564241C
:103EF0002B460022802102943046FEF7D3F99DF82C
:103F000010008DF80C0000F07F0040F010008DF8DC
:103F1000180006A8CDE900050123002280210294A3
:103F20003046FEF7C1FA05A8CDE900050123FE22BF
:103F3000802102943046FEF7B7FA03A8CDE90005C8
:103F400001230022802102943046FEF7ADFA0220C0
:103F5000FDF718FF9DF80C00012340F0A1008DF83B
:103F60001C0007A8CDE900050022802102943046FC
:103F7000FEF79AFA08B0BDEC028B70BD713D0AD70E
:103F8000A370ED3F0000000084D7B74000000000A0
:103F90000000F03F000000000000E03F1FB5642477
:103FA0008DF80C20C2F303228DF80D208DF80E3011
:103FB000C3F303228DF80F20042303AA8DE81C000D
:103FC000062202EB810201238021FEF76DFA1FBD5C
:103FD0002DED028B4FF47A759AB0284600F04AFC1A
:103FE0006423052280212948FEF7A6F89FED288A40
:103FF00004004FF6FF7616D026A16846FCF728FA93
:104000006846FCF765FB82B2204833466946543067
:10401000FFF722FA6423052280211C48FEF78CF862
:1040200004001FD012E0B0EE480A1848FFF7E8FE7F
:104030001FA16846FCF70CFA6846FCF749FB82B200
:104040001248334669465430FFF706FA284600F016
:1040500011FC002CDED1284600F00CFC284600F0B4
:1040600009FCF8E7B0EE480A0848FFF7C9FE19A1B5
:104070006846FCF7EDF96846FCF72AFB82B2034874
:10408000334669465430FFF7E7F9E7E7C8050020F3
:10409000000048425043413936383520446576693E
:1040A0006365204E6F7420466F756E64210D0A00A3
:1040B0005043413936383520496E697469616C69FD
:1040C0007A6174696F6E2053756363657373210D34
:1040D0000A000000504341393638352052652D69B9
:1040E0006E697469616C697A6174696F6E20537569
:1040F0006363657373210D0A0000000070B590B012
:10410000002839D0002937D0402935D200226B460B
:1041100002E0845C9C54521C8A4201DA3F2AF8D3A4
:1041200000205854062221A11846FCF7F0FA18BBCB
:1041300020A16846FCF7C6FAF0B11FA1FCF7D8FB36
:10414000D0B91CA10020FCF7BDFAA8B1FCF7ACFA6D
:10415000C5B218A10020FCF7B5FA68B1FCF7A4FAC3
:1041600084B214A10020FCF7ADFA28B1FCF79CFA48
:10417000102D01D2B42C02D9012010B070BD104E08
:1041800026F81540FDF70EFF3062FDF70BFF0D49D5
:104190002436886026F81540FDF704FF3062E2B24D
:1041A00029460948FFF75AFE0020E6E753455256D4
:1041B0004F2C00002C000000534552564F000000C9
:1041C000C800002004000020C80500202DE9F047A9
:1041D000314CDEB0E06B02F0A7FB07468846A06BCF
:1041E00002F0A2FB05460E46606B02F09DFBCDE996
:1041F0000401206B02F098FBCDE90201E06A02F0B5
:1042000093FBCDE90001A06A02F08EFB81468A464D
:10421000606A02F089FB02461AA80B4680E8E001BA
:10422000DDE90401CDE91801DDE90201CDE916015E
:10423000DDE90001CDE9140110A80BAD80E80C0602
:10424000608BE28BA18B236A85E80F00608A07AD43
:10425000238BE28AA18A85E80F00608903AD238A57
:10426000E289A18985E80F00A0882289E1888DE88C
:1042700007006388228809491EA8FCF7E9F81EA8F0
:10428000FCF726FA82B24FF6FF731EA90448FFF727
:10429000E3F85EB0BDE8F087EC000020846B000816
:1042A0006406002010B54FF0E020006901F012FD17
:1042B000012803D0BDE8104001F040BA10BD000055
:1042C00030B593B030216846FCF7EBFA14210CA806
:1042D000FCF7E7FA1C480025016841F080510160B5
:1042E000006800F0805011901848016841F4804146
:1042F00001600068022400F48040119001200390C6
:1043000010200490009406940820CDE90750A820BE
:10431000CDE9090404200B906846FEF789FB70B9CB
:104320000CA90F2081E831004FF4A0500F90E0025B
:10433000109005210CA8FEF76FFA002801D0FDF7B8
:1043400099FC13B030BD00004038024000700040BE
:104350000248016841F470010160704788ED00E097
:104360000148FEF78CBD0000AC060020F0B50268E5
:10437000274B284D284E294F294C4FF0804C98420E
:1043800009D0604507D0A84205D0B04203D0B8425A
:1043900001D0A04204D122F0700E4A6842EA0E0217
:1043A00098421BD0604519D0A84217D0B04215D012
:1043B000B84213D0A04211D01A4DA8420ED01A4DC7
:1043C000A8420BD0194DA84208D0194DA84205D0DB
:1043D000184DA84202D0184DA84203D122F44075CE
:1043E000CA682A434D6922F080022A438D68C5625B
:1043F0000D688562984201D0A04201D1096901632C
:10440000016841F004010160012141610260F0BDD9
:10441000000001400004004000080040000C004083
:1044200000040140004001400044014000480140B8
:1044300000180040001C0040002000400148FEF72A
:10444000D9BD00006406002010B5806B0021C18535
:10445000FEF7BCFD10BD01680C3151E8002F22F4BD
:10446000907241E80023002BF5D10168143151E826
:10447000002F22F0010241E80023002BF5D1016B4F
:10448000012909D101680C3151E8002F22F01002F6
:1044900041E80023002BF5D1202180F842100021B3
:1044A0000163704708B590F84210222901D002201C
:1044B00008BD82684FF480539A4201D1016921B14D
:1044C000816A9A421BD04AB10AE00268816A526846
:1044D000C2F308020A80816A891C08E0026972B18D
:1044E0000268526802F07F020A70816A491C816288
:1044F000C18D491E0904090CC18503D01BE0026867
:104500005268F1E70168CA6822F02002CA600168B7
:10451000CA6822F48072CA6001684A6922F0010206
:104520004A61202180F8421000214163026B012A78
:1045300003D0FEF751FF002008BD016301680C3174
:1045400051E8002F22F0100241E80023002BF5D1A2
:1045500001680A68D20602D50A6849680091818D0F
:10456000FEF733FDE7E7000070B504460068016917
:10457000E26821F44051114301612169A068E269B8
:1045800008436169114308432168CA6849F20C6312
:104590009A430243CA6020684169A26921F44071CC
:1045A0001143416131492068884202D03049884234
:1045B00002D1FEF7FBF901E0FEF7E8F9E26900231A
:1045C000192164253226B2F5004F626828D0A0FB7D
:1045D0000101930F9200FBF7C3FE0146B0FBF5F01B
:1045E0006FF01802504301EB800006EB0010B0FBA7
:1045F000F5F000F0F002B1FBF5F002EB0012B1FBB8
:10460000F5F06FF01803584301EB800006EB001043
:10461000B0FBF5F000F00F0021681044886070BD19
:10462000A0FB010192185B41FBF79AFE0146B0FB2B
:10463000F5F00201B1FBF5F06FF01803584301EB00
:10464000800006EBC000B0FBF5F000F0F80002EBD4
:104650004002B1FBF5F0584301EB800006EBC000CF
:10466000B0FBF5F000F00700D6E7000000100140B5
:104670000014014081628285C285002141642221AB
:1046800080F84210016921B10168CA6842F4807261
:10469000CA6001684A6942F001024A610068C16863
:1046A00041F02001C160002070474FF47A74204629
:1046B00000F0E0F8FBE72DE9F843984617460D4671
:1046C0000446089E24E0701C22D0FDF76BFCA0EB92
:1046D0000800B0421AD8CEB12068C168490717D582
:1046E000802D15D0402D13D00168C94309070FD480
:1046F00001680025406800902046FFF7ACFE0820C6
:10470000606484F840500120BDE8F8830320FBE793
:104710002068006835EA000004D00020B842D2D0FA
:104720000020F1E70120F9E710B5044C04F1240062
:1047300080EC070AFDF736FC206410BDEC00002079
:10474000FEE703B401984100009850EAC12018BF69
:1047500004204A0D18BF40F0010040F2FF72B2EB96
:10476000515F08BF40F00200012808BF052002B0D9
:1047700070470907090E002804DB00F1E02080F8EB
:104780000014704700F00F0000F1E02080F8141DC5
:10479000704730380A2801D2012070470020704746
:1047A00088B0FDF777FFFFF78BFDFFF767FAFFF79C
:1047B000E9FAFFF7ABFAFFF7C7FAFFF7FDFAFFF7E1
:1047C0005DFAFFF7DFFA20221AA16846FCF72FF8FE
:1047D0006846FBF77DFF82B24FF6FF7369461D48BE
:1047E000FEF73AFE00F054F81B4A00211B4800F087
:1047F0007DF81B4C184A002120602432194800F033
:1048000075F8154A606048320021174800F06EF8CC
:10481000114AA0606C320021144800F067F80E4A7B
:10482000E06090320021124800F060F8206100F052
:1048300041F8FEE753797374656D205374617274A7
:104840006564205375636365737366756C6C792159
:104850000D0A00001C060020246A0008C51C000880
:1048600010000020AB4600083D390008D13F000889
:10487000853B000810B5EFF3058111B16FF0050419
:1048800003E0002408B100F0F9FD204610BD00004F
:10489000EFF3058010B16FF0050070470448016820
:1048A00011B14FF0FF3070470121016000207047C7
:1048B0008400002010B5EFF3058010B16FF0050003
:1048C00010BD08480168012902D04FF0FF3010BD2B
:1048D000054A002182F8141D0221016000F036FE15
:1048E000002010BD840000200BE000E02DE9FF4116
:1048F0004FEA01034FF00005EFF30581039549BB33
:1049000040B38027182100244AB3166806B1344604
:1049100096691EB13146761E382E02D21679F607F8
:1049200003D0002004B0BDE8F081566906B1B70895
:10493000D2F808C0BCF1000F0DD0D5685C2D18D39B
:1049400012693AB136B18DE806103A46214601F0B7
:1049500096F903900DE0D6685EB912694AB903AAC8
:10496000CDE90012BAB2214601F05CF9012800D06D
:1049700003950398D6E700002DE9F041134C0F464C
:104980000546E6682068001D00F044FC681C07D15D
:1049900037B12168BDE8F0410D48091D00F08ABC1F
:1049A00020683544B5424560216805D2A06BBDE85A
:1049B000F041091D00F066BC606B091D00F062FC4F
:1049C000A06A854200D2A562BDE8F08134000020D3
:1049D000E40B00202DE9F041054600F077FC2D4C5A
:1049E000A068401CA06020682B4F10B1606930B3F4
:1049F0002BE02560A068012827D1002606EB860061
:104A000007EB800000F030FC761C382EF6D32348EC
:104A100000F02AFC2148143000F026FC1F48283002
:104A200000F022FC1D483C3000F01EFC1B485030BA
:104A300000F01AFC194860631430A06305E0206898
:104A4000E96AC06A884200D82560606A401C6062DA
:104A50006864E86A2169884200D9206100EB80001F
:104A600007EB8000291D00F025FC00F04FFC606979
:104A700000280CD02068E96AC06A884207D2084939
:104A80004FF080500860BFF34F8FBFF36F8FBDE8CA
:104A9000F08100003400002034070020940B002037
:104AA00004ED00E038B500F011FC104C2068C8B9E6
:104AB0000F4800F0D9FB0E48143000F0D5FB0C482D
:104AC000E060143020610A4B0020F03B009003F1BD
:104AD000500210210A2000F047FE206010B105A10D
:104AE00000F096FCBDE8384000F010BC70000020DB
:104AF000E80C0020546D72510000000030B4026CCC
:104B00000B46002A0BD0C1681144C1608468A142E1
:104B100001D30168C16030BC1846FBF743BE30BC0E
:104B200070472DE9F041856B174604460026026C5C
:104B300082B1C7B1E068FBF735FEE168206C091A65
:104B4000E1602268914202D2A168081AE060022F57
:104B500016D017E02068A8B9A06801F033F906461E
:104B60000020A0600EE06068FBF71CFE216C60680E
:104B700008446060A168884204D32068606001E056
:104B800005B16D1E6D1CA5633046BDE8F08110B502
:104B9000044690F8590058B101280CD002280FD0D3
:104BA000502080F31188BFF34F8FBFF36F8FFEE764
:104BB000206B00F0BFFB2046BDE8104000F0BABB00
:104BC00010BD000010484FF47051420706D0C01DC0
:104BD0000D4920F00700411AC1F570510B4A00231E
:104BE0000144C2E900030839183A21F007011160B5
:104BF0004B600B600B1AC0E9001393604FF000404C
:104C00005360506170470000C8130020A0000020CE
:104C1000144E154CA6F29C474FF08058DFF84C908C
:104C200012E000BF00F052FBF068C568281D00F0DC
:104C3000F1FAA068401EA0606068401E606000F04D
:104C400065FB2846FFF7A3FF60680028EAD13868B3
:104C50000128F9D9C9F80080BFF34F8FBFF36F8FD8
:104C6000F2E70000D00B00203400002004ED00E04B
:104C700070B51D46049C51B1C4F80020C4E90F0171
:104C80000121204600F0A4FD84F84C5070BD246042
:104C9000F4E700002DE9F05F8846DDE90B94154646
:104CA000834691009A460A9EA522206BFBF7F1FDF0
:104CB0006FF00301206B01EB8501084420F007072A
:104CC000780707D0502080F31188BFF34F8FBFF3D0
:104CD0006F8FFEE70025B8F1000F0FD05FF00000E6
:104CE000221818F8001082F8341018F8001011B1CA
:104CF000401C1028F4D384F8435001E084F8345069
:104D0000382E00D33726E662C4E91365201D00F073
:104D1000B6FA04F1180000F0B2FA2461C6F13800C6
:104D20006462A061656584F8585052465946384619
:104D300000F05AFA2060B9F1000F01D0C9F8004024
:104D4000BDE8F09F30B5114900E011460A68824283
:104D5000FBD34B685C18844203D140681844486018
:104D6000084643681C18944209D1084C183C246832
:104D7000A24209D052681A4442600A68126802606E
:104D8000814200D0086030BD0460F9E7A000002037
:104D900070B5002441600B4D0061914206D8D11AD4
:104DA0008269914206D2011D286907E09A4203D226
:104DB000994201D3012403E0011DE86800F062FA82
:104DC000204670BD7000002010B5044600F07EFA49
:104DD000A06B28B15FF0000400F098FA204610BDE7
:104DE0000124F9E730B589B03C4D6EE00498002805
:104DF00006DADDE90601059A90470498002864DB8D
:104E0000069C606910B1201D00F004FA03A800F0B0
:104E1000D7F8024604980A2857D2DFE800F00505C3
:104E2000052D334A05052D3394F8280040F0010084
:104E300084F828000599A069059B01442046FFF7E6
:104E4000A7FF68B3216A2046884794F828004007E6
:104E50003BD5002000900598A1690023421819460F
:104E6000204601F0B9F8D8B9502080F31188BFF37B
:104E70004F8FBFF36F8FFEE714F8280F20F001006B
:104E8000207022E094F8280040F0010084F8280007
:104E90000598A06128B1811813462046FFF778FFD6
:104EA00013E0502080F31188BFF34F8FBFF36F8F53
:104EB000FEE794F82800810703D4204600F03AFA70
:104EC00003E020F0010084F82800002204A92868EB
:104ED00000F0D2FD002889D109B030BD700000205B
:104EE0002DE9FC410F46054600F074FB01A800F0D7
:104EF00067F80446019818B100F0DCFFBDE8FC81BA
:104F0000254EAFB130690068D0B30027291B3A465F
:104F1000306800F091FA00F0CDFF0028EED11F4973
:104F20004FF080500860BFF34F8FBFF36F8FE5E7FE
:104F3000A542EBD800F0BEFFF0682746C068C46801
:104F4000201D00F067F994F82800410719D5A069E1
:104F50002B4641193A462046FFF71AFFA8B1002018
:104F60000346014600902A46204601F035F860B914
:104F7000502080F31188BFF34F8FBFF36F8FFEE790
:104F800007E020F0010084F82800216A20468847C5
:104F9000B4E70127BAE700007000002004ED00E04C
:104FA0000648416B096829B1416BC968C9684968FD
:104FB000816270474FF0FF31FAE7000034000020B3
:104FC00070B5054600F094FE064E0446B068844273
:104FD00003D200F009F8012000E0002028602046FC
:104FE000B46070BD70000020F8B5194D20E0C068B5
:104FF000C4680668201D00F00DF9216A2046884724
:1050000094F82800400713D5A0693044B04206D96F
:1050100024616060211DE86800F034F908E0002098
:105020000346014600903246204600F0D5FF38B1D5
:10503000E86801680029DAD12969C5E90310F8BDDB
:10504000502080F31188BFF34F8FBFF36F8FFEE7BF
:105050007000002008484068401C4FF0500080F36A
:10506000118804D0BFF34F8FBFF36F8FFEE7BFF3FC
:105070004F8FBFF36F8FFEE7A8000020074CE0685A
:10508000016841B1C0680021D0F80000FFF728FF97
:10509000FFF7A8FEF3E701210020F7E770000020EA
:1050A0002DE9F041044600F011F994F9455004F15E
:1050B000240609E0606A48B1304600F0C3FE08B13A
:1050C00000F00AFA6D1E6DB2002DF3DC4FF0FF36D2
:1050D00084F8456000F01AF900F0F8F894F94450AB
:1050E00004F1100709E0206948B1384600F0AAFE33
:1050F00008B100F0F1F96D1E6DB2002DF3DC84F8FB
:105100004460BDE8F04100F001B900002DE9F04134
:105110000546002700F05EFA324E306808B9FFF706
:1051200051FD706905424ED1C5B3083568070ED0F0
:1051300005F00700C0F108000544680707D05020BB
:1051400080F31188BFF34F8FBFF36F8FFEE72DB34E
:105150007068854237D82348183001460C6801E052
:1051600020460C466168A94202D221680029F7D185
:1051700031688C4227D00768216801606068083771
:10518000411B10290FD96019420708D0502080F325
:105190001188BFF34F8FBFF36F8FFEE713E04160BD
:1051A0006560FFF7CFFD61687068401A7060B26893
:1051B000904200D2B060706901430020C4E9000150
:1051C000F068401CF06000F075FE780707D05020B2
:1051D00080F31188BFF34F8FBFF36F8FFEE7384620
:1051E000BDE8F0818800002010B5031F4FF08074E7
:1051F0001C601B1F21F001011960191F044B0B607B
:1052000014390A60091F6FF0020244380A6010BDA9
:1052100055500008D0E9013201699A60D0E90123B4
:105220005A604A68824201D182684A600022026163
:105230000868401E0860086870470000034B036060
:1052400003F15C000860802010607047100D0020A2
:10525000044B036003F15C0008604FF48070106041
:10526000704700006C0F002000F108014FF0FF3282
:10527000C0E90112C1600161002101607047002195
:105280000161704730B50B685A1C02D000F108026A
:1052900002E0026904E02246546825689D42FAD97A
:1052A00053684B6099608A60516008610168491CCD
:1052B000016030BD42684A6093688B6093685960B2
:1052C000916008610168491C01607047502080F3BB
:1052D0001188BFF34F8FBFF36F8F0A494868401C96
:1052E000486001280CD10848006810F0FF0F07D073
:1052F000502080F31188BFF34F8FBFF36F8FFEE70D
:1053000070470000A800002004ED00E0084948684C
:1053100028B1401E486001D180F3118870475020A9
:1053200080F31188BFF34F8FBFF36F8FFEE700004C
:10533000A800002070B500282AD0164DA0F108045E
:1053400060686969084207D1502080F31188BFF373
:105350004F8FBFF36F8FFEE722683AB1502080F382
:105360001188BFF34F8FBFF36F8FFEE788436060F4
:1053700000F030F960686968084468602046FFF70B
:10538000E1FC2869401C2861BDE8704000F092BD36
:1053900070BD0000880000204FF0E0200021016176
:1053A000816105494FF47A720968B1FBF2F1491E37
:1053B00041610721016170473000002010B5FAF704
:1053C000ABFF114910280ED300F1E02090F8F00354
:1053D0000A78904207D2502080F31188BFF34F8F94
:1053E000BFF36F8FFEE709480068896800F4E0604A
:1053F000884207D9502080F31188BFF34F8FBFF345
:105400006F8FFEE710BD0000A80000200CED00E04B
:1054100010B5084B002200BF53F832401CB1521C9B
:10542000082AF9D310BD43F8321003EBC2014860DB
:1054300010BD0000F406002070B515460E46044667
:10544000FFF744FF94F944100020491C01D184F86F
:10545000440094F94510491C01D184F84500FFF738
:1054600055FFA06B28B92A46314604F1240000F00C
:1054700051F82046BDE87040FFF712BE10B502009B
:1054800014D00F48006B38B1502080F31188BFF35F
:105490004F8FBFF36F8FFEE700F09CF8002110469E
:1054A000FFF76AFA00F006FD002807D105494FF022
:1054B00080500860BFF34F8FBFF36F8F10BD0000A7
:1054C0003400002004ED00E002490A6A0260C96865
:1054D000416070473400002001490120C8617047D5
:1054E0003400002010B50C4650B109490968183144
:1054F000FFF7C8FE2046BDE810400121FFF73CBA87
:10550000502080F31188BFF34F8FBFF36F8FFEE7FA
:105510003400002070B514460D4668B10A49096888
:105520001831FFF7C7FE0CB14FF0FF352146284672
:10553000BDE87040FFF720BA502080F31188BFF318
:105540004F8FBFF36F8FFEE73400002030B587B078
:105550000024039405AA04A903A80494FFF76EFE8F
:10556000DDE903010094CDE90110002315A11748DE
:10557000059A00F084FB164D0028E8621FD000F069
:10558000FBFC012809D0401C19D1502080F3118860
:10559000BFF34F8FBFF36F8FFEE7502080F311886A
:1055A000BFF34F8FBFF36F8F4FF0FF30A862012022
:1055B0006861EC6007B0BDE8304000F045B807B066
:1055C00030BD000049444C4500000000114C00086B
:1055D000340000200248016B491C01637047000041
:1055E00034000020164810B5016B11B10121C161D2
:1055F00010BD0021C1610169124A01E0B9B1491E23
:1056000001EB810352F82330002BF7D001EB81032B
:1056100002EB830202F1080453685B685360A34203
:1056200001D15B685360DA680260016110BD5020EF
:1056300080F31188BFF34F8FBFF36F8FFEE7000039
:1056400034000020340700201CB537480168374A71
:10565000914207D1502080F31188BFF34F8FBFF3E1
:105660006F8FFEE700683149491E884207D15020FC
:1056700080F31188BFF34F8FBFF36F8FFEE72C4984
:1056800008780190FF20087008788DF800009DF8D8
:1056900000009DF8002000F0F000904207D050205C
:1056A00080F31188BFF34F8FBFF36F8FFEE79DF834
:1056B0000000204C00F0500020700720A06005E0A2
:1056C0009DF8002052008DF80020401E9DF800201B
:1056D0001206F5D4A060032807D0502080F311886B
:1056E000BFF34F8FBFF36F8FFEE74FF44070A060A2
:1056F000019808700C482030016841F47001016085
:10570000016841F070410160FFF746FE00206060D3
:10571000FAF7CAFD0848016841F040410160FAF714
:10572000AFFD00201CBD000000ED00E071C20F4184
:1057300000E400E0A800002034EF00E010B55020A5
:1057400080F31188BFF34F8FBFF36F8F00F0D6FA4D
:1057500018B104494FF080500860002080F3118890
:1057600010BD000004ED00E038B5049D18B153B140
:10577000CAB181B120E0502080F31188BFF34F8F70
:10578000BFF36F8FFEE7502080F31188BFF34F8F78
:10579000BFF36F8FFEE7502080F31188BFF34F8F68
:1057A000BFF36F8FFEE739B1502080F31188BFF34C
:1057B0004F8FBFF36F8FFEE750241C46012384F800
:1057C00046302B460094FFF753FA204638BD0000C0
:1057D00070B50D46040025D0FFF778FDD4E90F2001
:1057E000216802FB0011A1600021A16321686160B2
:1057F0000A46D4E90F01401E00FB0121E160214669
:105800004FF0FF3001F8440F487004F110008DB1E3
:10581000FFF72AFD04F12400FFF726FDFFF776FDD0
:10582000012070BD502080F31188BFF34F8FBFF36C
:105830006F8FFEE721690029F0D000F003FB0028FC
:10584000ECD004494FF080500860BFF34F8FBFF396
:105850006F8FE3E704ED00E02DE9FF4782B01D46BE
:105860008A464FF00008040003D0BAF1000F08D0B8
:1058700011E0502080F31188BFF34F8FBFF36F8F7B
:10588000FEE7206C38B1502080F31188BFF34F8FB2
:10589000BFF36F8FFEE7022D0AD1E06B012807D01E
:1058A000502080F31188BFF34F8FBFF36F8FFEE757
:1058B00000F010FA3F4F4FF000094FF0805648B902
:1058C000049838B1502080F31188BFF34F8FBFF395
:1058D0006F8FFEE7FFF7FAFCA06BE16B884207D3FE
:1058E000022D05D00498D0B1B8F1000F1AD01EE0F7
:1058F0002A4651462046FFF714F9616A19B104F1AE
:10590000240000F09FFA20B13E60BFF34F8FBFF339
:105910006F8FFFF7FBFC012006B0BDE8F087FFF7B3
:10592000F5FC22E06846FFF7CFFD4FF00108FFF7D6
:10593000EDFCFFF74FFEFFF7C9FC94F94400401C53
:1059400001D184F8449094F94500401C01D184F8B9
:105950004590FFF7DBFC04A9684600F029F930B157
:105960002046FFF79DFB00F0A5FA0020D4E7FFF7E3
:10597000ADFCA06BE16B884213D1FFF7C7FC04F1CB
:1059800010000499FFF7AEFD2046FFF789FB00F0F9
:1059900091FA00289ED13E60BFF34F8FBFF36F8F07
:1059A00098E7FFF7B3FC2046FFF77AFB00F082FA96
:1059B00090E7000004ED00E02DE9F0471F46904617
:1059C0008946040003D0B9F1000F08D011E050203F
:1059D00080F31188BFF34F8FBFF36F8FFEE7206C0A
:1059E00038B1502080F31188BFF34F8FBFF36F8F12
:1059F000FEE7022F0AD1E06B012807D0502080F388
:105A00001188BFF34F8FBFF36F8FFEE7FFF7D6FC10
:105A10005020EFF3118680F31188BFF34F8FBFF34F
:105A20006F8FA06BE16B884206D3022F04D0002059
:105A300086F31188BDE8F08794F94550A06B3A468B
:105A400049462046FFF76DF8681C04D06D1C84F8A9
:105A500045500120ECE7606A0028FAD004F12400E8
:105A600000F0F0F90028F4D0B8F1000FF1D00121D6
:105A7000C8F80010EDE700002DE9F747002683B0D5
:105A80008A46040003D0BAF1000F08D011E050207C
:105A900080F31188BFF34F8FBFF36F8FFEE7206C49
:105AA00038B1502080F31188BFF34F8FBFF36F8F51
:105AB000FEE700F00FF9DFF8F4804FF000094FF037
:105AC000805748B9059838B1502080F31188BFF34A
:105AD0004F8FBFF36F8FFEE7FFF7F8FBA56BC5B1E4
